{
	"patient.sol": {
		"Patient": {
			"abi": [
				{
					"inputs": [],
					"stateMutability": "nonpayable",
					"type": "constructor"
				},
				{
					"inputs": [
						{
							"internalType": "uint256",
							"name": "patient_id",
							"type": "uint256"
						}
					],
					"name": "retreive_attendant_details",
					"outputs": [
						{
							"internalType": "string",
							"name": "",
							"type": "string"
						},
						{
							"internalType": "string",
							"name": "",
							"type": "string"
						},
						{
							"internalType": "uint256",
							"name": "",
							"type": "uint256"
						}
					],
					"stateMutability": "view",
					"type": "function"
				},
				{
					"inputs": [
						{
							"internalType": "uint256",
							"name": "patient_id",
							"type": "uint256"
						}
					],
					"name": "retreive_patient_details",
					"outputs": [
						{
							"internalType": "string",
							"name": "",
							"type": "string"
						},
						{
							"internalType": "uint256",
							"name": "",
							"type": "uint256"
						},
						{
							"internalType": "string",
							"name": "",
							"type": "string"
						},
						{
							"internalType": "string",
							"name": "",
							"type": "string"
						},
						{
							"internalType": "uint256",
							"name": "",
							"type": "uint256"
						},
						{
							"internalType": "string",
							"name": "",
							"type": "string"
						},
						{
							"internalType": "uint256",
							"name": "",
							"type": "uint256"
						},
						{
							"internalType": "string",
							"name": "",
							"type": "string"
						},
						{
							"internalType": "uint256",
							"name": "",
							"type": "uint256"
						}
					],
					"stateMutability": "view",
					"type": "function"
				},
				{
					"inputs": [
						{
							"internalType": "uint256",
							"name": "patient_id",
							"type": "uint256"
						},
						{
							"internalType": "string",
							"name": "_attendant_name",
							"type": "string"
						},
						{
							"internalType": "string",
							"name": "_attendant_relation",
							"type": "string"
						},
						{
							"internalType": "uint256",
							"name": "_attendant_phn_no",
							"type": "uint256"
						}
					],
					"name": "store_attendant_details",
					"outputs": [],
					"stateMutability": "nonpayable",
					"type": "function"
				},
				{
					"inputs": [
						{
							"internalType": "uint256",
							"name": "patient_id",
							"type": "uint256"
						},
						{
							"internalType": "string",
							"name": "_patient_name",
							"type": "string"
						},
						{
							"internalType": "uint256",
							"name": "_age",
							"type": "uint256"
						},
						{
							"internalType": "string",
							"name": "_gender",
							"type": "string"
						},
						{
							"internalType": "string",
							"name": "_height",
							"type": "string"
						},
						{
							"internalType": "uint256",
							"name": "_weight",
							"type": "uint256"
						},
						{
							"internalType": "string",
							"name": "_patient_address",
							"type": "string"
						},
						{
							"internalType": "uint256",
							"name": "_phone_no",
							"type": "uint256"
						},
						{
							"internalType": "string",
							"name": "_email_id",
							"type": "string"
						},
						{
							"internalType": "uint256",
							"name": "_date",
							"type": "uint256"
						}
					],
					"name": "store_patient_details",
					"outputs": [],
					"stateMutability": "nonpayable",
					"type": "function"
				}
			],
			"devdoc": {
				"kind": "dev",
				"methods": {},
				"version": 1
			},
			"evm": {
				"assembly": "    /* \"patient.sol\":134:3625  contract Patient {... */\n  mstore(0x40, 0x80)\n    /* \"patient.sol\":770:879  constructor()   {... */\n  callvalue\n  dup1\n  iszero\n  tag_1\n  jumpi\n  0x00\n  dup1\n  revert\ntag_1:\n  pop\n    /* \"patient.sol\":806:848  0xE6005Cc724c2d44F0aF23d663017a7E375DD7F35 */\n  0xe6005cc724c2d44f0af23d663017a7e375dd7f35\n    /* \"patient.sol\":798:803  owner */\n  0x11\n  0x00\n    /* \"patient.sol\":798:848  owner = 0xE6005Cc724c2d44F0aF23d663017a7E375DD7F35 */\n  0x0100\n  exp\n  dup2\n  sload\n  dup2\n  0xffffffffffffffffffffffffffffffffffffffff\n  mul\n  not\n  and\n  swap1\n  dup4\n  0xffffffffffffffffffffffffffffffffffffffff\n  and\n  mul\n  or\n  swap1\n  sstore\n  pop\n    /* \"patient.sol\":134:3625  contract Patient {... */\n  dataSize(sub_0)\n  dup1\n  dataOffset(sub_0)\n  0x00\n  codecopy\n  0x00\n  return\nstop\n\nsub_0: assembly {\n        /* \"patient.sol\":134:3625  contract Patient {... */\n      mstore(0x40, 0x80)\n      callvalue\n      dup1\n      iszero\n      tag_1\n      jumpi\n      0x00\n      dup1\n      revert\n    tag_1:\n      pop\n      jumpi(tag_2, lt(calldatasize, 0x04))\n      shr(0xe0, calldataload(0x00))\n      dup1\n      0x65d4352a\n      eq\n      tag_3\n      jumpi\n      dup1\n      0xc909f8f7\n      eq\n      tag_4\n      jumpi\n      dup1\n      0xd734f9b7\n      eq\n      tag_5\n      jumpi\n      dup1\n      0xf5b31bfe\n      eq\n      tag_6\n      jumpi\n    tag_2:\n      0x00\n      dup1\n      revert\n        /* \"patient.sol\":2769:3195  function retreive_patient_details(uint256 patient_id) public view returns (string memory,uint256,string memory,string memory,uint256,string memory,uint256,string memory,uint256){... */\n    tag_3:\n      tag_7\n      0x04\n      dup1\n      calldatasize\n      sub\n      dup2\n      add\n      swap1\n      tag_8\n      swap2\n      swap1\n      tag_9\n      jump\t// in\n    tag_8:\n      tag_10\n      jump\t// in\n    tag_7:\n      mload(0x40)\n      tag_11\n      swap10\n      swap9\n      swap8\n      swap7\n      swap6\n      swap5\n      swap4\n      swap3\n      swap2\n      swap1\n      tag_12\n      jump\t// in\n    tag_11:\n      mload(0x40)\n      dup1\n      swap2\n      sub\n      swap1\n      return\n        /* \"patient.sol\":1425:2023  function store_patient_details(uint256 patient_id,string memory _patient_name,uint256 _age,string memory _gender,string memory _height,uint256 _weight,string memory _patient_address,uint256 _phone_no,string memory _email_id,uint256 _date)public isOwner {... */\n    tag_4:\n      tag_13\n      0x04\n      dup1\n      calldatasize\n      sub\n      dup2\n      add\n      swap1\n      tag_14\n      swap2\n      swap1\n      tag_15\n      jump\t// in\n    tag_14:\n      tag_16\n      jump\t// in\n    tag_13:\n      stop\n        /* \"patient.sol\":3298:3605  function retreive_attendant_details(uint256 patient_id) public view returns (string memory,string memory,uint256){... */\n    tag_5:\n      tag_17\n      0x04\n      dup1\n      calldatasize\n      sub\n      dup2\n      add\n      swap1\n      tag_18\n      swap2\n      swap1\n      tag_9\n      jump\t// in\n    tag_18:\n      tag_19\n      jump\t// in\n    tag_17:\n      mload(0x40)\n      tag_20\n      swap4\n      swap3\n      swap2\n      swap1\n      tag_21\n      jump\t// in\n    tag_20:\n      mload(0x40)\n      dup1\n      swap2\n      sub\n      swap1\n      return\n        /* \"patient.sol\":2266:2668  function store_attendant_details(uint256 patient_id,string memory _attendant_name,string memory _attendant_relation, uint256 _attendant_phn_no)public isOwner {... */\n    tag_6:\n      tag_22\n      0x04\n      dup1\n      calldatasize\n      sub\n      dup2\n      add\n      swap1\n      tag_23\n      swap2\n      swap1\n      tag_24\n      jump\t// in\n    tag_23:\n      tag_25\n      jump\t// in\n    tag_22:\n      stop\n        /* \"patient.sol\":2769:3195  function retreive_patient_details(uint256 patient_id) public view returns (string memory,uint256,string memory,string memory,uint256,string memory,uint256,string memory,uint256){... */\n    tag_10:\n        /* \"patient.sol\":2844:2857  string memory */\n      0x60\n        /* \"patient.sol\":2858:2865  uint256 */\n      0x00\n        /* \"patient.sol\":2866:2879  string memory */\n      0x60\n        /* \"patient.sol\":2880:2893  string memory */\n      dup1\n        /* \"patient.sol\":2894:2901  uint256 */\n      0x00\n        /* \"patient.sol\":2902:2915  string memory */\n      0x60\n        /* \"patient.sol\":2916:2923  uint256 */\n      0x00\n        /* \"patient.sol\":2924:2937  string memory */\n      0x60\n        /* \"patient.sol\":2938:2945  uint256 */\n      0x00\n        /* \"patient.sol\":2957:2980  patient memory pDetails */\n      dup1\n        /* \"patient.sol\":2983:2994  patientlist */\n      0x00\n        /* \"patient.sol\":2983:3006  patientlist[patient_id] */\n      dup1\n        /* \"patient.sol\":2995:3005  patient_id */\n      dup13\n        /* \"patient.sol\":2983:3006  patientlist[patient_id] */\n      dup2\n      mstore\n      0x20\n      add\n      swap1\n      dup2\n      mstore\n      0x20\n      add\n      0x00\n      keccak256\n        /* \"patient.sol\":2957:3006  patient memory pDetails = patientlist[patient_id] */\n      mload(0x40)\n      dup1\n      0x0160\n      add\n      0x40\n      mstore\n      swap1\n      dup2\n      0x00\n      dup3\n      add\n      dup1\n      sload\n      tag_27\n      swap1\n      tag_28\n      jump\t// in\n    tag_27:\n      dup1\n      0x1f\n      add\n      0x20\n      dup1\n      swap2\n      div\n      mul\n      0x20\n      add\n      mload(0x40)\n      swap1\n      dup2\n      add\n      0x40\n      mstore\n      dup1\n      swap3\n      swap2\n      swap1\n      dup2\n      dup2\n      mstore\n      0x20\n      add\n      dup3\n      dup1\n      sload\n      tag_29\n      swap1\n      tag_28\n      jump\t// in\n    tag_29:\n      dup1\n      iszero\n      tag_30\n      jumpi\n      dup1\n      0x1f\n      lt\n      tag_31\n      jumpi\n      0x0100\n      dup1\n      dup4\n      sload\n      div\n      mul\n      dup4\n      mstore\n      swap2\n      0x20\n      add\n      swap2\n      jump(tag_30)\n    tag_31:\n      dup3\n      add\n      swap2\n      swap1\n      0x00\n      mstore\n      keccak256(0x00, 0x20)\n      swap1\n    tag_32:\n      dup2\n      sload\n      dup2\n      mstore\n      swap1\n      0x01\n      add\n      swap1\n      0x20\n      add\n      dup1\n      dup4\n      gt\n      tag_32\n      jumpi\n      dup3\n      swap1\n      sub\n      0x1f\n      and\n      dup3\n      add\n      swap2\n    tag_30:\n      pop\n      pop\n      pop\n      pop\n      pop\n      dup2\n      mstore\n      0x20\n      add\n      0x01\n      dup3\n      add\n      sload\n      dup2\n      mstore\n      0x20\n      add\n      0x02\n      dup3\n      add\n      dup1\n      sload\n      tag_33\n      swap1\n      tag_28\n      jump\t// in\n    tag_33:\n      dup1\n      0x1f\n      add\n      0x20\n      dup1\n      swap2\n      div\n      mul\n      0x20\n      add\n      mload(0x40)\n      swap1\n      dup2\n      add\n      0x40\n      mstore\n      dup1\n      swap3\n      swap2\n      swap1\n      dup2\n      dup2\n      mstore\n      0x20\n      add\n      dup3\n      dup1\n      sload\n      tag_34\n      swap1\n      tag_28\n      jump\t// in\n    tag_34:\n      dup1\n      iszero\n      tag_35\n      jumpi\n      dup1\n      0x1f\n      lt\n      tag_36\n      jumpi\n      0x0100\n      dup1\n      dup4\n      sload\n      div\n      mul\n      dup4\n      mstore\n      swap2\n      0x20\n      add\n      swap2\n      jump(tag_35)\n    tag_36:\n      dup3\n      add\n      swap2\n      swap1\n      0x00\n      mstore\n      keccak256(0x00, 0x20)\n      swap1\n    tag_37:\n      dup2\n      sload\n      dup2\n      mstore\n      swap1\n      0x01\n      add\n      swap1\n      0x20\n      add\n      dup1\n      dup4\n      gt\n      tag_37\n      jumpi\n      dup3\n      swap1\n      sub\n      0x1f\n      and\n      dup3\n      add\n      swap2\n    tag_35:\n      pop\n      pop\n      pop\n      pop\n      pop\n      dup2\n      mstore\n      0x20\n      add\n      0x03\n      dup3\n      add\n      dup1\n      sload\n      tag_38\n      swap1\n      tag_28\n      jump\t// in\n    tag_38:\n      dup1\n      0x1f\n      add\n      0x20\n      dup1\n      swap2\n      div\n      mul\n      0x20\n      add\n      mload(0x40)\n      swap1\n      dup2\n      add\n      0x40\n      mstore\n      dup1\n      swap3\n      swap2\n      swap1\n      dup2\n      dup2\n      mstore\n      0x20\n      add\n      dup3\n      dup1\n      sload\n      tag_39\n      swap1\n      tag_28\n      jump\t// in\n    tag_39:\n      dup1\n      iszero\n      tag_40\n      jumpi\n      dup1\n      0x1f\n      lt\n      tag_41\n      jumpi\n      0x0100\n      dup1\n      dup4\n      sload\n      div\n      mul\n      dup4\n      mstore\n      swap2\n      0x20\n      add\n      swap2\n      jump(tag_40)\n    tag_41:\n      dup3\n      add\n      swap2\n      swap1\n      0x00\n      mstore\n      keccak256(0x00, 0x20)\n      swap1\n    tag_42:\n      dup2\n      sload\n      dup2\n      mstore\n      swap1\n      0x01\n      add\n      swap1\n      0x20\n      add\n      dup1\n      dup4\n      gt\n      tag_42\n      jumpi\n      dup3\n      swap1\n      sub\n      0x1f\n      and\n      dup3\n      add\n      swap2\n    tag_40:\n      pop\n      pop\n      pop\n      pop\n      pop\n      dup2\n      mstore\n      0x20\n      add\n      0x04\n      dup3\n      add\n      sload\n      dup2\n      mstore\n      0x20\n      add\n      0x05\n      dup3\n      add\n      dup1\n      sload\n      tag_43\n      swap1\n      tag_28\n      jump\t// in\n    tag_43:\n      dup1\n      0x1f\n      add\n      0x20\n      dup1\n      swap2\n      div\n      mul\n      0x20\n      add\n      mload(0x40)\n      swap1\n      dup2\n      add\n      0x40\n      mstore\n      dup1\n      swap3\n      swap2\n      swap1\n      dup2\n      dup2\n      mstore\n      0x20\n      add\n      dup3\n      dup1\n      sload\n      tag_44\n      swap1\n      tag_28\n      jump\t// in\n    tag_44:\n      dup1\n      iszero\n      tag_45\n      jumpi\n      dup1\n      0x1f\n      lt\n      tag_46\n      jumpi\n      0x0100\n      dup1\n      dup4\n      sload\n      div\n      mul\n      dup4\n      mstore\n      swap2\n      0x20\n      add\n      swap2\n      jump(tag_45)\n    tag_46:\n      dup3\n      add\n      swap2\n      swap1\n      0x00\n      mstore\n      keccak256(0x00, 0x20)\n      swap1\n    tag_47:\n      dup2\n      sload\n      dup2\n      mstore\n      swap1\n      0x01\n      add\n      swap1\n      0x20\n      add\n      dup1\n      dup4\n      gt\n      tag_47\n      jumpi\n      dup3\n      swap1\n      sub\n      0x1f\n      and\n      dup3\n      add\n      swap2\n    tag_45:\n      pop\n      pop\n      pop\n      pop\n      pop\n      dup2\n      mstore\n      0x20\n      add\n      0x06\n      dup3\n      add\n      sload\n      dup2\n      mstore\n      0x20\n      add\n      0x07\n      dup3\n      add\n      dup1\n      sload\n      tag_48\n      swap1\n      tag_28\n      jump\t// in\n    tag_48:\n      dup1\n      0x1f\n      add\n      0x20\n      dup1\n      swap2\n      div\n      mul\n      0x20\n      add\n      mload(0x40)\n      swap1\n      dup2\n      add\n      0x40\n      mstore\n      dup1\n      swap3\n      swap2\n      swap1\n      dup2\n      dup2\n      mstore\n      0x20\n      add\n      dup3\n      dup1\n      sload\n      tag_49\n      swap1\n      tag_28\n      jump\t// in\n    tag_49:\n      dup1\n      iszero\n      tag_50\n      jumpi\n      dup1\n      0x1f\n      lt\n      tag_51\n      jumpi\n      0x0100\n      dup1\n      dup4\n      sload\n      div\n      mul\n      dup4\n      mstore\n      swap2\n      0x20\n      add\n      swap2\n      jump(tag_50)\n    tag_51:\n      dup3\n      add\n      swap2\n      swap1\n      0x00\n      mstore\n      keccak256(0x00, 0x20)\n      swap1\n    tag_52:\n      dup2\n      sload\n      dup2\n      mstore\n      swap1\n      0x01\n      add\n      swap1\n      0x20\n      add\n      dup1\n      dup4\n      gt\n      tag_52\n      jumpi\n      dup3\n      swap1\n      sub\n      0x1f\n      and\n      dup3\n      add\n      swap2\n    tag_50:\n      pop\n      pop\n      pop\n      pop\n      pop\n      dup2\n      mstore\n      0x20\n      add\n      0x08\n      dup3\n      add\n      sload\n      dup2\n      mstore\n      0x20\n      add\n      0x09\n      dup3\n      add\n      sload\n      dup2\n      mstore\n      0x20\n      add\n      0x0a\n      dup3\n      add\n      sload\n      dup2\n      mstore\n      pop\n      pop\n      swap1\n      pop\n        /* \"patient.sol\":3031:3039  pDetails */\n      dup1\n        /* \"patient.sol\":3031:3052  pDetails.patient_name */\n      0x00\n      add\n      mload\n        /* \"patient.sol\":3053:3061  pDetails */\n      dup2\n        /* \"patient.sol\":3053:3065  pDetails.age */\n      0x20\n      add\n      mload\n        /* \"patient.sol\":3066:3074  pDetails */\n      dup3\n        /* \"patient.sol\":3066:3081  pDetails.gender */\n      0x40\n      add\n      mload\n        /* \"patient.sol\":3082:3083  p */\n      0x02\n        /* \"patient.sol\":3082:3090  p.height */\n      0x03\n      add\n        /* \"patient.sol\":3091:3099  pDetails */\n      dup5\n        /* \"patient.sol\":3091:3106  pDetails.weight */\n      0x80\n      add\n      mload\n        /* \"patient.sol\":3107:3115  pDetails */\n      dup6\n        /* \"patient.sol\":3107:3131  pDetails.patient_address */\n      0xa0\n      add\n      mload\n        /* \"patient.sol\":3132:3140  pDetails */\n      dup7\n        /* \"patient.sol\":3132:3149  pDetails.phone_no */\n      0xc0\n      add\n      mload\n        /* \"patient.sol\":3150:3158  pDetails */\n      dup8\n        /* \"patient.sol\":3150:3167  pDetails.email_id */\n      0xe0\n      add\n      mload\n        /* \"patient.sol\":3168:3176  pDetails */\n      dup9\n        /* \"patient.sol\":3168:3181  pDetails.date */\n      0x0100\n      add\n      mload\n        /* \"patient.sol\":3023:3182  return (pDetails.patient_name,pDetails.age,pDetails.gender,p.height,pDetails.weight,pDetails.patient_address,pDetails.phone_no,pDetails.email_id,pDetails.date) */\n      dup6\n      dup1\n      sload\n      tag_53\n      swap1\n      tag_28\n      jump\t// in\n    tag_53:\n      dup1\n      0x1f\n      add\n      0x20\n      dup1\n      swap2\n      div\n      mul\n      0x20\n      add\n      mload(0x40)\n      swap1\n      dup2\n      add\n      0x40\n      mstore\n      dup1\n      swap3\n      swap2\n      swap1\n      dup2\n      dup2\n      mstore\n      0x20\n      add\n      dup3\n      dup1\n      sload\n      tag_54\n      swap1\n      tag_28\n      jump\t// in\n    tag_54:\n      dup1\n      iszero\n      tag_55\n      jumpi\n      dup1\n      0x1f\n      lt\n      tag_56\n      jumpi\n      0x0100\n      dup1\n      dup4\n      sload\n      div\n      mul\n      dup4\n      mstore\n      swap2\n      0x20\n      add\n      swap2\n      jump(tag_55)\n    tag_56:\n      dup3\n      add\n      swap2\n      swap1\n      0x00\n      mstore\n      keccak256(0x00, 0x20)\n      swap1\n    tag_57:\n      dup2\n      sload\n      dup2\n      mstore\n      swap1\n      0x01\n      add\n      swap1\n      0x20\n      add\n      dup1\n      dup4\n      gt\n      tag_57\n      jumpi\n      dup3\n      swap1\n      sub\n      0x1f\n      and\n      dup3\n      add\n      swap2\n    tag_55:\n      pop\n      pop\n      pop\n      pop\n      pop\n      swap6\n      pop\n      swap10\n      pop\n      swap10\n      pop\n      swap10\n      pop\n      swap10\n      pop\n      swap10\n      pop\n      swap10\n      pop\n      swap10\n      pop\n      swap10\n      pop\n      swap10\n      pop\n      pop\n        /* \"patient.sol\":2769:3195  function retreive_patient_details(uint256 patient_id) public view returns (string memory,uint256,string memory,string memory,uint256,string memory,uint256,string memory,uint256){... */\n      swap2\n      swap4\n      swap6\n      swap8\n      swap10\n      swap1\n      swap3\n      swap5\n      swap7\n      swap9\n      pop\n      jump\t// out\n        /* \"patient.sol\":1425:2023  function store_patient_details(uint256 patient_id,string memory _patient_name,uint256 _age,string memory _gender,string memory _height,uint256 _weight,string memory _patient_address,uint256 _phone_no,string memory _email_id,uint256 _date)public isOwner {... */\n    tag_16:\n        /* \"patient.sol\":1003:1008  owner */\n      0x11\n      0x00\n      swap1\n      sload\n      swap1\n      0x0100\n      exp\n      swap1\n      div\n      0xffffffffffffffffffffffffffffffffffffffff\n      and\n        /* \"patient.sol\":989:1008  msg.sender == owner */\n      0xffffffffffffffffffffffffffffffffffffffff\n      and\n        /* \"patient.sol\":989:999  msg.sender */\n      caller\n        /* \"patient.sol\":989:1008  msg.sender == owner */\n      0xffffffffffffffffffffffffffffffffffffffff\n      and\n      eq\n        /* \"patient.sol\":981:1034  require(msg.sender == owner, \"Access is not allowed\") */\n      tag_59\n      jumpi\n      mload(0x40)\n      0x08c379a000000000000000000000000000000000000000000000000000000000\n      dup2\n      mstore\n      0x04\n      add\n      tag_60\n      swap1\n      tag_61\n      jump\t// in\n    tag_60:\n      mload(0x40)\n      dup1\n      swap2\n      sub\n      swap1\n      revert\n    tag_59:\n        /* \"patient.sol\":1719:1732  _patient_name */\n      dup9\n        /* \"patient.sol\":1704:1705  p */\n      0x02\n        /* \"patient.sol\":1704:1718  p.patient_name */\n      0x00\n      add\n        /* \"patient.sol\":1704:1732  p.patient_name=_patient_name */\n      swap1\n      dup2\n      tag_63\n      swap2\n      swap1\n      tag_64\n      jump\t// in\n    tag_63:\n      pop\n        /* \"patient.sol\":1749:1753  _age */\n      dup8\n        /* \"patient.sol\":1743:1744  p */\n      0x02\n        /* \"patient.sol\":1743:1748  p.age */\n      0x01\n      add\n        /* \"patient.sol\":1743:1753  p.age=_age */\n      dup2\n      swap1\n      sstore\n      pop\n        /* \"patient.sol\":1773:1780  _gender */\n      dup7\n        /* \"patient.sol\":1764:1765  p */\n      0x02\n        /* \"patient.sol\":1764:1772  p.gender */\n      dup1\n      add\n        /* \"patient.sol\":1764:1780  p.gender=_gender */\n      swap1\n      dup2\n      tag_65\n      swap2\n      swap1\n      tag_64\n      jump\t// in\n    tag_65:\n      pop\n        /* \"patient.sol\":1800:1807  _height */\n      dup6\n        /* \"patient.sol\":1791:1792  p */\n      0x02\n        /* \"patient.sol\":1791:1799  p.height */\n      0x03\n      add\n        /* \"patient.sol\":1791:1807  p.height=_height */\n      swap1\n      dup2\n      tag_66\n      swap2\n      swap1\n      tag_64\n      jump\t// in\n    tag_66:\n      pop\n        /* \"patient.sol\":1827:1834  _weight */\n      dup5\n        /* \"patient.sol\":1818:1819  p */\n      0x02\n        /* \"patient.sol\":1818:1826  p.weight */\n      0x04\n      add\n        /* \"patient.sol\":1818:1834  p.weight=_weight */\n      dup2\n      swap1\n      sstore\n      pop\n        /* \"patient.sol\":1863:1879  _patient_address */\n      dup4\n        /* \"patient.sol\":1845:1846  p */\n      0x02\n        /* \"patient.sol\":1845:1862  p.patient_address */\n      0x05\n      add\n        /* \"patient.sol\":1845:1879  p.patient_address=_patient_address */\n      swap1\n      dup2\n      tag_67\n      swap2\n      swap1\n      tag_64\n      jump\t// in\n    tag_67:\n      pop\n        /* \"patient.sol\":1901:1910  _phone_no */\n      dup3\n        /* \"patient.sol\":1890:1891  p */\n      0x02\n        /* \"patient.sol\":1890:1900  p.phone_no */\n      0x06\n      add\n        /* \"patient.sol\":1890:1910  p.phone_no=_phone_no */\n      dup2\n      swap1\n      sstore\n      pop\n        /* \"patient.sol\":1932:1941  _email_id */\n      dup2\n        /* \"patient.sol\":1921:1922  p */\n      0x02\n        /* \"patient.sol\":1921:1931  p.email_id */\n      0x07\n      add\n        /* \"patient.sol\":1921:1941  p.email_id=_email_id */\n      swap1\n      dup2\n      tag_68\n      swap2\n      swap1\n      tag_64\n      jump\t// in\n    tag_68:\n      pop\n        /* \"patient.sol\":1959:1964  _date */\n      dup1\n        /* \"patient.sol\":1952:1953  p */\n      0x02\n        /* \"patient.sol\":1952:1958  p.date */\n      0x08\n      add\n        /* \"patient.sol\":1952:1964  p.date=_date */\n      dup2\n      swap1\n      sstore\n      pop\n        /* \"patient.sol\":2010:2011  p */\n      0x02\n        /* \"patient.sol\":1984:1995  patientlist */\n      0x00\n        /* \"patient.sol\":1984:2007  patientlist[patient_id] */\n      dup1\n        /* \"patient.sol\":1996:2006  patient_id */\n      dup13\n        /* \"patient.sol\":1984:2007  patientlist[patient_id] */\n      dup2\n      mstore\n      0x20\n      add\n      swap1\n      dup2\n      mstore\n      0x20\n      add\n      0x00\n      keccak256\n        /* \"patient.sol\":1984:2011  patientlist[patient_id] = p */\n      0x00\n      dup3\n      add\n      dup2\n      0x00\n      add\n      swap1\n      dup2\n      tag_69\n      swap2\n      swap1\n      tag_70\n      jump\t// in\n    tag_69:\n      pop\n      0x01\n      dup3\n      add\n      sload\n      dup2\n      0x01\n      add\n      sstore\n      0x02\n      dup3\n      add\n      dup2\n      0x02\n      add\n      swap1\n      dup2\n      tag_71\n      swap2\n      swap1\n      tag_70\n      jump\t// in\n    tag_71:\n      pop\n      0x03\n      dup3\n      add\n      dup2\n      0x03\n      add\n      swap1\n      dup2\n      tag_72\n      swap2\n      swap1\n      tag_70\n      jump\t// in\n    tag_72:\n      pop\n      0x04\n      dup3\n      add\n      sload\n      dup2\n      0x04\n      add\n      sstore\n      0x05\n      dup3\n      add\n      dup2\n      0x05\n      add\n      swap1\n      dup2\n      tag_73\n      swap2\n      swap1\n      tag_70\n      jump\t// in\n    tag_73:\n      pop\n      0x06\n      dup3\n      add\n      sload\n      dup2\n      0x06\n      add\n      sstore\n      0x07\n      dup3\n      add\n      dup2\n      0x07\n      add\n      swap1\n      dup2\n      tag_74\n      swap2\n      swap1\n      tag_70\n      jump\t// in\n    tag_74:\n      pop\n      0x08\n      dup3\n      add\n      sload\n      dup2\n      0x08\n      add\n      sstore\n      0x09\n      dup3\n      add\n      sload\n      dup2\n      0x09\n      add\n      sstore\n      0x0a\n      dup3\n      add\n      sload\n      dup2\n      0x0a\n      add\n      sstore\n      swap1\n      pop\n      pop\n        /* \"patient.sol\":1425:2023  function store_patient_details(uint256 patient_id,string memory _patient_name,uint256 _age,string memory _gender,string memory _height,uint256 _weight,string memory _patient_address,uint256 _phone_no,string memory _email_id,uint256 _date)public isOwner {... */\n      pop\n      pop\n      pop\n      pop\n      pop\n      pop\n      pop\n      pop\n      pop\n      pop\n      jump\t// out\n        /* \"patient.sol\":3298:3605  function retreive_attendant_details(uint256 patient_id) public view returns (string memory,string memory,uint256){... */\n    tag_19:\n        /* \"patient.sol\":3375:3388  string memory */\n      0x60\n        /* \"patient.sol\":3389:3402  string memory */\n      dup1\n        /* \"patient.sol\":3403:3410  uint256 */\n      0x00\n        /* \"patient.sol\":3433:3458  attendant memory aDetails */\n      dup1\n        /* \"patient.sol\":3461:3474  attendantlist */\n      0x01\n        /* \"patient.sol\":3461:3486  attendantlist[patient_id] */\n      0x00\n        /* \"patient.sol\":3475:3485  patient_id */\n      dup7\n        /* \"patient.sol\":3461:3486  attendantlist[patient_id] */\n      dup2\n      mstore\n      0x20\n      add\n      swap1\n      dup2\n      mstore\n      0x20\n      add\n      0x00\n      keccak256\n        /* \"patient.sol\":3433:3486  attendant memory aDetails = attendantlist[patient_id] */\n      mload(0x40)\n      dup1\n      0x80\n      add\n      0x40\n      mstore\n      swap1\n      dup2\n      0x00\n      dup3\n      add\n      sload\n      dup2\n      mstore\n      0x20\n      add\n      0x01\n      dup3\n      add\n      dup1\n      sload\n      tag_76\n      swap1\n      tag_28\n      jump\t// in\n    tag_76:\n      dup1\n      0x1f\n      add\n      0x20\n      dup1\n      swap2\n      div\n      mul\n      0x20\n      add\n      mload(0x40)\n      swap1\n      dup2\n      add\n      0x40\n      mstore\n      dup1\n      swap3\n      swap2\n      swap1\n      dup2\n      dup2\n      mstore\n      0x20\n      add\n      dup3\n      dup1\n      sload\n      tag_77\n      swap1\n      tag_28\n      jump\t// in\n    tag_77:\n      dup1\n      iszero\n      tag_78\n      jumpi\n      dup1\n      0x1f\n      lt\n      tag_79\n      jumpi\n      0x0100\n      dup1\n      dup4\n      sload\n      div\n      mul\n      dup4\n      mstore\n      swap2\n      0x20\n      add\n      swap2\n      jump(tag_78)\n    tag_79:\n      dup3\n      add\n      swap2\n      swap1\n      0x00\n      mstore\n      keccak256(0x00, 0x20)\n      swap1\n    tag_80:\n      dup2\n      sload\n      dup2\n      mstore\n      swap1\n      0x01\n      add\n      swap1\n      0x20\n      add\n      dup1\n      dup4\n      gt\n      tag_80\n      jumpi\n      dup3\n      swap1\n      sub\n      0x1f\n      and\n      dup3\n      add\n      swap2\n    tag_78:\n      pop\n      pop\n      pop\n      pop\n      pop\n      dup2\n      mstore\n      0x20\n      add\n      0x02\n      dup3\n      add\n      dup1\n      sload\n      tag_81\n      swap1\n      tag_28\n      jump\t// in\n    tag_81:\n      dup1\n      0x1f\n      add\n      0x20\n      dup1\n      swap2\n      div\n      mul\n      0x20\n      add\n      mload(0x40)\n      swap1\n      dup2\n      add\n      0x40\n      mstore\n      dup1\n      swap3\n      swap2\n      swap1\n      dup2\n      dup2\n      mstore\n      0x20\n      add\n      dup3\n      dup1\n      sload\n      tag_82\n      swap1\n      tag_28\n      jump\t// in\n    tag_82:\n      dup1\n      iszero\n      tag_83\n      jumpi\n      dup1\n      0x1f\n      lt\n      tag_84\n      jumpi\n      0x0100\n      dup1\n      dup4\n      sload\n      div\n      mul\n      dup4\n      mstore\n      swap2\n      0x20\n      add\n      swap2\n      jump(tag_83)\n    tag_84:\n      dup3\n      add\n      swap2\n      swap1\n      0x00\n      mstore\n      keccak256(0x00, 0x20)\n      swap1\n    tag_85:\n      dup2\n      sload\n      dup2\n      mstore\n      swap1\n      0x01\n      add\n      swap1\n      0x20\n      add\n      dup1\n      dup4\n      gt\n      tag_85\n      jumpi\n      dup3\n      swap1\n      sub\n      0x1f\n      and\n      dup3\n      add\n      swap2\n    tag_83:\n      pop\n      pop\n      pop\n      pop\n      pop\n      dup2\n      mstore\n      0x20\n      add\n      0x03\n      dup3\n      add\n      sload\n      dup2\n      mstore\n      pop\n      pop\n      swap1\n      pop\n        /* \"patient.sol\":3513:3521  aDetails */\n      dup1\n        /* \"patient.sol\":3513:3536  aDetails.attendant_name */\n      0x20\n      add\n      mload\n        /* \"patient.sol\":3537:3545  aDetails */\n      dup2\n        /* \"patient.sol\":3537:3564  aDetails.attendant_relation */\n      0x40\n      add\n      mload\n        /* \"patient.sol\":3565:3573  aDetails */\n      dup3\n        /* \"patient.sol\":3565:3590  aDetails.attendant_phn_no */\n      0x60\n      add\n      mload\n        /* \"patient.sol\":3505:3591  return (aDetails.attendant_name,aDetails.attendant_relation,aDetails.attendant_phn_no) */\n      swap4\n      pop\n      swap4\n      pop\n      swap4\n      pop\n      pop\n        /* \"patient.sol\":3298:3605  function retreive_attendant_details(uint256 patient_id) public view returns (string memory,string memory,uint256){... */\n      swap2\n      swap4\n      swap1\n      swap3\n      pop\n      jump\t// out\n        /* \"patient.sol\":2266:2668  function store_attendant_details(uint256 patient_id,string memory _attendant_name,string memory _attendant_relation, uint256 _attendant_phn_no)public isOwner {... */\n    tag_25:\n        /* \"patient.sol\":1003:1008  owner */\n      0x11\n      0x00\n      swap1\n      sload\n      swap1\n      0x0100\n      exp\n      swap1\n      div\n      0xffffffffffffffffffffffffffffffffffffffff\n      and\n        /* \"patient.sol\":989:1008  msg.sender == owner */\n      0xffffffffffffffffffffffffffffffffffffffff\n      and\n        /* \"patient.sol\":989:999  msg.sender */\n      caller\n        /* \"patient.sol\":989:1008  msg.sender == owner */\n      0xffffffffffffffffffffffffffffffffffffffff\n      and\n      eq\n        /* \"patient.sol\":981:1034  require(msg.sender == owner, \"Access is not allowed\") */\n      tag_87\n      jumpi\n      mload(0x40)\n      0x08c379a000000000000000000000000000000000000000000000000000000000\n      dup2\n      mstore\n      0x04\n      add\n      tag_88\n      swap1\n      tag_61\n      jump\t// in\n    tag_88:\n      mload(0x40)\n      dup1\n      swap2\n      sub\n      swap1\n      revert\n    tag_87:\n        /* \"patient.sol\":2460:2470  patient_id */\n      dup4\n        /* \"patient.sol\":2445:2446  a */\n      0x0d\n        /* \"patient.sol\":2445:2457  a.patient_id */\n      0x00\n      add\n        /* \"patient.sol\":2445:2470  a.patient_id = patient_id */\n      dup2\n      swap1\n      sstore\n      pop\n        /* \"patient.sol\":2497:2512  _attendant_name */\n      dup3\n        /* \"patient.sol\":2480:2481  a */\n      0x0d\n        /* \"patient.sol\":2480:2496  a.attendant_name */\n      0x01\n      add\n        /* \"patient.sol\":2480:2512  a.attendant_name=_attendant_name */\n      swap1\n      dup2\n      tag_90\n      swap2\n      swap1\n      tag_64\n      jump\t// in\n    tag_90:\n      pop\n        /* \"patient.sol\":2544:2563  _attendant_relation */\n      dup2\n        /* \"patient.sol\":2523:2524  a */\n      0x0d\n        /* \"patient.sol\":2523:2543  a.attendant_relation */\n      0x02\n      add\n        /* \"patient.sol\":2523:2563  a.attendant_relation=_attendant_relation */\n      swap1\n      dup2\n      tag_91\n      swap2\n      swap1\n      tag_64\n      jump\t// in\n    tag_91:\n      pop\n        /* \"patient.sol\":2593:2610  _attendant_phn_no */\n      dup1\n        /* \"patient.sol\":2574:2575  a */\n      0x0d\n        /* \"patient.sol\":2574:2592  a.attendant_phn_no */\n      0x03\n      add\n        /* \"patient.sol\":2574:2610  a.attendant_phn_no=_attendant_phn_no */\n      dup2\n      swap1\n      sstore\n      pop\n        /* \"patient.sol\":2659:2660  a */\n      0x0d\n        /* \"patient.sol\":2631:2644  attendantlist */\n      0x01\n        /* \"patient.sol\":2631:2656  attendantlist[patient_id] */\n      0x00\n        /* \"patient.sol\":2645:2655  patient_id */\n      dup7\n        /* \"patient.sol\":2631:2656  attendantlist[patient_id] */\n      dup2\n      mstore\n      0x20\n      add\n      swap1\n      dup2\n      mstore\n      0x20\n      add\n      0x00\n      keccak256\n        /* \"patient.sol\":2631:2660  attendantlist[patient_id] = a */\n      0x00\n      dup3\n      add\n      sload\n      dup2\n      0x00\n      add\n      sstore\n      0x01\n      dup3\n      add\n      dup2\n      0x01\n      add\n      swap1\n      dup2\n      tag_92\n      swap2\n      swap1\n      tag_70\n      jump\t// in\n    tag_92:\n      pop\n      0x02\n      dup3\n      add\n      dup2\n      0x02\n      add\n      swap1\n      dup2\n      tag_93\n      swap2\n      swap1\n      tag_70\n      jump\t// in\n    tag_93:\n      pop\n      0x03\n      dup3\n      add\n      sload\n      dup2\n      0x03\n      add\n      sstore\n      swap1\n      pop\n      pop\n        /* \"patient.sol\":2266:2668  function store_attendant_details(uint256 patient_id,string memory _attendant_name,string memory _attendant_relation, uint256 _attendant_phn_no)public isOwner {... */\n      pop\n      pop\n      pop\n      pop\n      jump\t// out\n        /* \"#utility.yul\":7:82   */\n    tag_94:\n        /* \"#utility.yul\":40:46   */\n      0x00\n        /* \"#utility.yul\":73:75   */\n      0x40\n        /* \"#utility.yul\":67:76   */\n      mload\n        /* \"#utility.yul\":57:76   */\n      swap1\n      pop\n        /* \"#utility.yul\":7:82   */\n      swap1\n      jump\t// out\n        /* \"#utility.yul\":88:205   */\n    tag_95:\n        /* \"#utility.yul\":197:198   */\n      0x00\n        /* \"#utility.yul\":194:195   */\n      dup1\n        /* \"#utility.yul\":187:199   */\n      revert\n        /* \"#utility.yul\":211:328   */\n    tag_96:\n        /* \"#utility.yul\":320:321   */\n      0x00\n        /* \"#utility.yul\":317:318   */\n      dup1\n        /* \"#utility.yul\":310:322   */\n      revert\n        /* \"#utility.yul\":334:411   */\n    tag_97:\n        /* \"#utility.yul\":371:378   */\n      0x00\n        /* \"#utility.yul\":400:405   */\n      dup2\n        /* \"#utility.yul\":389:405   */\n      swap1\n      pop\n        /* \"#utility.yul\":334:411   */\n      swap2\n      swap1\n      pop\n      jump\t// out\n        /* \"#utility.yul\":417:539   */\n    tag_98:\n        /* \"#utility.yul\":490:514   */\n      tag_140\n        /* \"#utility.yul\":508:513   */\n      dup2\n        /* \"#utility.yul\":490:514   */\n      tag_97\n      jump\t// in\n    tag_140:\n        /* \"#utility.yul\":483:488   */\n      dup2\n        /* \"#utility.yul\":480:515   */\n      eq\n        /* \"#utility.yul\":470:533   */\n      tag_141\n      jumpi\n        /* \"#utility.yul\":529:530   */\n      0x00\n        /* \"#utility.yul\":526:527   */\n      dup1\n        /* \"#utility.yul\":519:531   */\n      revert\n        /* \"#utility.yul\":470:533   */\n    tag_141:\n        /* \"#utility.yul\":417:539   */\n      pop\n      jump\t// out\n        /* \"#utility.yul\":545:684   */\n    tag_99:\n        /* \"#utility.yul\":591:596   */\n      0x00\n        /* \"#utility.yul\":629:635   */\n      dup2\n        /* \"#utility.yul\":616:636   */\n      calldataload\n        /* \"#utility.yul\":607:636   */\n      swap1\n      pop\n        /* \"#utility.yul\":645:678   */\n      tag_143\n        /* \"#utility.yul\":672:677   */\n      dup2\n        /* \"#utility.yul\":645:678   */\n      tag_98\n      jump\t// in\n    tag_143:\n        /* \"#utility.yul\":545:684   */\n      swap3\n      swap2\n      pop\n      pop\n      jump\t// out\n        /* \"#utility.yul\":690:1019   */\n    tag_9:\n        /* \"#utility.yul\":749:755   */\n      0x00\n        /* \"#utility.yul\":798:800   */\n      0x20\n        /* \"#utility.yul\":786:795   */\n      dup3\n        /* \"#utility.yul\":777:784   */\n      dup5\n        /* \"#utility.yul\":773:796   */\n      sub\n        /* \"#utility.yul\":769:801   */\n      slt\n        /* \"#utility.yul\":766:885   */\n      iszero\n      tag_145\n      jumpi\n        /* \"#utility.yul\":804:883   */\n      tag_146\n      tag_95\n      jump\t// in\n    tag_146:\n        /* \"#utility.yul\":766:885   */\n    tag_145:\n        /* \"#utility.yul\":924:925   */\n      0x00\n        /* \"#utility.yul\":949:1002   */\n      tag_147\n        /* \"#utility.yul\":994:1001   */\n      dup5\n        /* \"#utility.yul\":985:991   */\n      dup3\n        /* \"#utility.yul\":974:983   */\n      dup6\n        /* \"#utility.yul\":970:992   */\n      add\n        /* \"#utility.yul\":949:1002   */\n      tag_99\n      jump\t// in\n    tag_147:\n        /* \"#utility.yul\":939:1002   */\n      swap2\n      pop\n        /* \"#utility.yul\":895:1012   */\n      pop\n        /* \"#utility.yul\":690:1019   */\n      swap3\n      swap2\n      pop\n      pop\n      jump\t// out\n        /* \"#utility.yul\":1025:1124   */\n    tag_100:\n        /* \"#utility.yul\":1077:1083   */\n      0x00\n        /* \"#utility.yul\":1111:1116   */\n      dup2\n        /* \"#utility.yul\":1105:1117   */\n      mload\n        /* \"#utility.yul\":1095:1117   */\n      swap1\n      pop\n        /* \"#utility.yul\":1025:1124   */\n      swap2\n      swap1\n      pop\n      jump\t// out\n        /* \"#utility.yul\":1130:1299   */\n    tag_101:\n        /* \"#utility.yul\":1214:1225   */\n      0x00\n        /* \"#utility.yul\":1248:1254   */\n      dup3\n        /* \"#utility.yul\":1243:1246   */\n      dup3\n        /* \"#utility.yul\":1236:1255   */\n      mstore\n        /* \"#utility.yul\":1288:1292   */\n      0x20\n        /* \"#utility.yul\":1283:1286   */\n      dup3\n        /* \"#utility.yul\":1279:1293   */\n      add\n        /* \"#utility.yul\":1264:1293   */\n      swap1\n      pop\n        /* \"#utility.yul\":1130:1299   */\n      swap3\n      swap2\n      pop\n      pop\n      jump\t// out\n        /* \"#utility.yul\":1305:1551   */\n    tag_102:\n        /* \"#utility.yul\":1386:1387   */\n      0x00\n        /* \"#utility.yul\":1396:1509   */\n    tag_151:\n        /* \"#utility.yul\":1410:1416   */\n      dup4\n        /* \"#utility.yul\":1407:1408   */\n      dup2\n        /* \"#utility.yul\":1404:1417   */\n      lt\n        /* \"#utility.yul\":1396:1509   */\n      iszero\n      tag_153\n      jumpi\n        /* \"#utility.yul\":1495:1496   */\n      dup1\n        /* \"#utility.yul\":1490:1493   */\n      dup3\n        /* \"#utility.yul\":1486:1497   */\n      add\n        /* \"#utility.yul\":1480:1498   */\n      mload\n        /* \"#utility.yul\":1476:1477   */\n      dup2\n        /* \"#utility.yul\":1471:1474   */\n      dup5\n        /* \"#utility.yul\":1467:1478   */\n      add\n        /* \"#utility.yul\":1460:1499   */\n      mstore\n        /* \"#utility.yul\":1432:1434   */\n      0x20\n        /* \"#utility.yul\":1429:1430   */\n      dup2\n        /* \"#utility.yul\":1425:1435   */\n      add\n        /* \"#utility.yul\":1420:1435   */\n      swap1\n      pop\n        /* \"#utility.yul\":1396:1509   */\n      jump(tag_151)\n    tag_153:\n        /* \"#utility.yul\":1543:1544   */\n      0x00\n        /* \"#utility.yul\":1534:1540   */\n      dup5\n        /* \"#utility.yul\":1529:1532   */\n      dup5\n        /* \"#utility.yul\":1525:1541   */\n      add\n        /* \"#utility.yul\":1518:1545   */\n      mstore\n        /* \"#utility.yul\":1367:1551   */\n      pop\n        /* \"#utility.yul\":1305:1551   */\n      pop\n      pop\n      pop\n      jump\t// out\n        /* \"#utility.yul\":1557:1659   */\n    tag_103:\n        /* \"#utility.yul\":1598:1604   */\n      0x00\n        /* \"#utility.yul\":1649:1651   */\n      0x1f\n        /* \"#utility.yul\":1645:1652   */\n      not\n        /* \"#utility.yul\":1640:1642   */\n      0x1f\n        /* \"#utility.yul\":1633:1638   */\n      dup4\n        /* \"#utility.yul\":1629:1643   */\n      add\n        /* \"#utility.yul\":1625:1653   */\n      and\n        /* \"#utility.yul\":1615:1653   */\n      swap1\n      pop\n        /* \"#utility.yul\":1557:1659   */\n      swap2\n      swap1\n      pop\n      jump\t// out\n        /* \"#utility.yul\":1665:2042   */\n    tag_104:\n        /* \"#utility.yul\":1753:1756   */\n      0x00\n        /* \"#utility.yul\":1781:1820   */\n      tag_156\n        /* \"#utility.yul\":1814:1819   */\n      dup3\n        /* \"#utility.yul\":1781:1820   */\n      tag_100\n      jump\t// in\n    tag_156:\n        /* \"#utility.yul\":1836:1907   */\n      tag_157\n        /* \"#utility.yul\":1900:1906   */\n      dup2\n        /* \"#utility.yul\":1895:1898   */\n      dup6\n        /* \"#utility.yul\":1836:1907   */\n      tag_101\n      jump\t// in\n    tag_157:\n        /* \"#utility.yul\":1829:1907   */\n      swap4\n      pop\n        /* \"#utility.yul\":1916:1981   */\n      tag_158\n        /* \"#utility.yul\":1974:1980   */\n      dup2\n        /* \"#utility.yul\":1969:1972   */\n      dup6\n        /* \"#utility.yul\":1962:1966   */\n      0x20\n        /* \"#utility.yul\":1955:1960   */\n      dup7\n        /* \"#utility.yul\":1951:1967   */\n      add\n        /* \"#utility.yul\":1916:1981   */\n      tag_102\n      jump\t// in\n    tag_158:\n        /* \"#utility.yul\":2006:2035   */\n      tag_159\n        /* \"#utility.yul\":2028:2034   */\n      dup2\n        /* \"#utility.yul\":2006:2035   */\n      tag_103\n      jump\t// in\n    tag_159:\n        /* \"#utility.yul\":2001:2004   */\n      dup5\n        /* \"#utility.yul\":1997:2036   */\n      add\n        /* \"#utility.yul\":1990:2036   */\n      swap2\n      pop\n        /* \"#utility.yul\":1757:2042   */\n      pop\n        /* \"#utility.yul\":1665:2042   */\n      swap3\n      swap2\n      pop\n      pop\n      jump\t// out\n        /* \"#utility.yul\":2048:2166   */\n    tag_105:\n        /* \"#utility.yul\":2135:2159   */\n      tag_161\n        /* \"#utility.yul\":2153:2158   */\n      dup2\n        /* \"#utility.yul\":2135:2159   */\n      tag_97\n      jump\t// in\n    tag_161:\n        /* \"#utility.yul\":2130:2133   */\n      dup3\n        /* \"#utility.yul\":2123:2160   */\n      mstore\n        /* \"#utility.yul\":2048:2166   */\n      pop\n      pop\n      jump\t// out\n        /* \"#utility.yul\":2172:3735   */\n    tag_12:\n        /* \"#utility.yul\":2589:2593   */\n      0x00\n        /* \"#utility.yul\":2627:2630   */\n      0x0120\n        /* \"#utility.yul\":2616:2625   */\n      dup3\n        /* \"#utility.yul\":2612:2631   */\n      add\n        /* \"#utility.yul\":2604:2631   */\n      swap1\n      pop\n        /* \"#utility.yul\":2677:2686   */\n      dup2\n        /* \"#utility.yul\":2671:2675   */\n      dup2\n        /* \"#utility.yul\":2667:2687   */\n      sub\n        /* \"#utility.yul\":2663:2664   */\n      0x00\n        /* \"#utility.yul\":2652:2661   */\n      dup4\n        /* \"#utility.yul\":2648:2665   */\n      add\n        /* \"#utility.yul\":2641:2688   */\n      mstore\n        /* \"#utility.yul\":2705:2783   */\n      tag_163\n        /* \"#utility.yul\":2778:2782   */\n      dup2\n        /* \"#utility.yul\":2769:2775   */\n      dup13\n        /* \"#utility.yul\":2705:2783   */\n      tag_104\n      jump\t// in\n    tag_163:\n        /* \"#utility.yul\":2697:2783   */\n      swap1\n      pop\n        /* \"#utility.yul\":2793:2865   */\n      tag_164\n        /* \"#utility.yul\":2861:2863   */\n      0x20\n        /* \"#utility.yul\":2850:2859   */\n      dup4\n        /* \"#utility.yul\":2846:2864   */\n      add\n        /* \"#utility.yul\":2837:2843   */\n      dup12\n        /* \"#utility.yul\":2793:2865   */\n      tag_105\n      jump\t// in\n    tag_164:\n        /* \"#utility.yul\":2912:2921   */\n      dup2\n        /* \"#utility.yul\":2906:2910   */\n      dup2\n        /* \"#utility.yul\":2902:2922   */\n      sub\n        /* \"#utility.yul\":2897:2899   */\n      0x40\n        /* \"#utility.yul\":2886:2895   */\n      dup4\n        /* \"#utility.yul\":2882:2900   */\n      add\n        /* \"#utility.yul\":2875:2923   */\n      mstore\n        /* \"#utility.yul\":2940:3018   */\n      tag_165\n        /* \"#utility.yul\":3013:3017   */\n      dup2\n        /* \"#utility.yul\":3004:3010   */\n      dup11\n        /* \"#utility.yul\":2940:3018   */\n      tag_104\n      jump\t// in\n    tag_165:\n        /* \"#utility.yul\":2932:3018   */\n      swap1\n      pop\n        /* \"#utility.yul\":3065:3074   */\n      dup2\n        /* \"#utility.yul\":3059:3063   */\n      dup2\n        /* \"#utility.yul\":3055:3075   */\n      sub\n        /* \"#utility.yul\":3050:3052   */\n      0x60\n        /* \"#utility.yul\":3039:3048   */\n      dup4\n        /* \"#utility.yul\":3035:3053   */\n      add\n        /* \"#utility.yul\":3028:3076   */\n      mstore\n        /* \"#utility.yul\":3093:3171   */\n      tag_166\n        /* \"#utility.yul\":3166:3170   */\n      dup2\n        /* \"#utility.yul\":3157:3163   */\n      dup10\n        /* \"#utility.yul\":3093:3171   */\n      tag_104\n      jump\t// in\n    tag_166:\n        /* \"#utility.yul\":3085:3171   */\n      swap1\n      pop\n        /* \"#utility.yul\":3181:3254   */\n      tag_167\n        /* \"#utility.yul\":3249:3252   */\n      0x80\n        /* \"#utility.yul\":3238:3247   */\n      dup4\n        /* \"#utility.yul\":3234:3253   */\n      add\n        /* \"#utility.yul\":3225:3231   */\n      dup9\n        /* \"#utility.yul\":3181:3254   */\n      tag_105\n      jump\t// in\n    tag_167:\n        /* \"#utility.yul\":3302:3311   */\n      dup2\n        /* \"#utility.yul\":3296:3300   */\n      dup2\n        /* \"#utility.yul\":3292:3312   */\n      sub\n        /* \"#utility.yul\":3286:3289   */\n      0xa0\n        /* \"#utility.yul\":3275:3284   */\n      dup4\n        /* \"#utility.yul\":3271:3290   */\n      add\n        /* \"#utility.yul\":3264:3313   */\n      mstore\n        /* \"#utility.yul\":3330:3408   */\n      tag_168\n        /* \"#utility.yul\":3403:3407   */\n      dup2\n        /* \"#utility.yul\":3394:3400   */\n      dup8\n        /* \"#utility.yul\":3330:3408   */\n      tag_104\n      jump\t// in\n    tag_168:\n        /* \"#utility.yul\":3322:3408   */\n      swap1\n      pop\n        /* \"#utility.yul\":3418:3491   */\n      tag_169\n        /* \"#utility.yul\":3486:3489   */\n      0xc0\n        /* \"#utility.yul\":3475:3484   */\n      dup4\n        /* \"#utility.yul\":3471:3490   */\n      add\n        /* \"#utility.yul\":3462:3468   */\n      dup7\n        /* \"#utility.yul\":3418:3491   */\n      tag_105\n      jump\t// in\n    tag_169:\n        /* \"#utility.yul\":3539:3548   */\n      dup2\n        /* \"#utility.yul\":3533:3537   */\n      dup2\n        /* \"#utility.yul\":3529:3549   */\n      sub\n        /* \"#utility.yul\":3523:3526   */\n      0xe0\n        /* \"#utility.yul\":3512:3521   */\n      dup4\n        /* \"#utility.yul\":3508:3527   */\n      add\n        /* \"#utility.yul\":3501:3550   */\n      mstore\n        /* \"#utility.yul\":3567:3645   */\n      tag_170\n        /* \"#utility.yul\":3640:3644   */\n      dup2\n        /* \"#utility.yul\":3631:3637   */\n      dup6\n        /* \"#utility.yul\":3567:3645   */\n      tag_104\n      jump\t// in\n    tag_170:\n        /* \"#utility.yul\":3559:3645   */\n      swap1\n      pop\n        /* \"#utility.yul\":3655:3728   */\n      tag_171\n        /* \"#utility.yul\":3723:3726   */\n      0x0100\n        /* \"#utility.yul\":3712:3721   */\n      dup4\n        /* \"#utility.yul\":3708:3727   */\n      add\n        /* \"#utility.yul\":3699:3705   */\n      dup5\n        /* \"#utility.yul\":3655:3728   */\n      tag_105\n      jump\t// in\n    tag_171:\n        /* \"#utility.yul\":2172:3735   */\n      swap11\n      swap10\n      pop\n      pop\n      pop\n      pop\n      pop\n      pop\n      pop\n      pop\n      pop\n      pop\n      jump\t// out\n        /* \"#utility.yul\":3741:3858   */\n    tag_106:\n        /* \"#utility.yul\":3850:3851   */\n      0x00\n        /* \"#utility.yul\":3847:3848   */\n      dup1\n        /* \"#utility.yul\":3840:3852   */\n      revert\n        /* \"#utility.yul\":3864:3981   */\n    tag_107:\n        /* \"#utility.yul\":3973:3974   */\n      0x00\n        /* \"#utility.yul\":3970:3971   */\n      dup1\n        /* \"#utility.yul\":3963:3975   */\n      revert\n        /* \"#utility.yul\":3987:4167   */\n    tag_108:\n        /* \"#utility.yul\":4035:4112   */\n      0x4e487b7100000000000000000000000000000000000000000000000000000000\n        /* \"#utility.yul\":4032:4033   */\n      0x00\n        /* \"#utility.yul\":4025:4113   */\n      mstore\n        /* \"#utility.yul\":4132:4136   */\n      0x41\n        /* \"#utility.yul\":4129:4130   */\n      0x04\n        /* \"#utility.yul\":4122:4137   */\n      mstore\n        /* \"#utility.yul\":4156:4160   */\n      0x24\n        /* \"#utility.yul\":4153:4154   */\n      0x00\n        /* \"#utility.yul\":4146:4161   */\n      revert\n        /* \"#utility.yul\":4173:4454   */\n    tag_109:\n        /* \"#utility.yul\":4256:4283   */\n      tag_176\n        /* \"#utility.yul\":4278:4282   */\n      dup3\n        /* \"#utility.yul\":4256:4283   */\n      tag_103\n      jump\t// in\n    tag_176:\n        /* \"#utility.yul\":4248:4254   */\n      dup2\n        /* \"#utility.yul\":4244:4284   */\n      add\n        /* \"#utility.yul\":4386:4392   */\n      dup2\n        /* \"#utility.yul\":4374:4384   */\n      dup2\n        /* \"#utility.yul\":4371:4393   */\n      lt\n        /* \"#utility.yul\":4350:4368   */\n      0xffffffffffffffff\n        /* \"#utility.yul\":4338:4348   */\n      dup3\n        /* \"#utility.yul\":4335:4369   */\n      gt\n        /* \"#utility.yul\":4332:4394   */\n      or\n        /* \"#utility.yul\":4329:4417   */\n      iszero\n      tag_177\n      jumpi\n        /* \"#utility.yul\":4397:4415   */\n      tag_178\n      tag_108\n      jump\t// in\n    tag_178:\n        /* \"#utility.yul\":4329:4417   */\n    tag_177:\n        /* \"#utility.yul\":4437:4447   */\n      dup1\n        /* \"#utility.yul\":4433:4435   */\n      0x40\n        /* \"#utility.yul\":4426:4448   */\n      mstore\n        /* \"#utility.yul\":4216:4454   */\n      pop\n        /* \"#utility.yul\":4173:4454   */\n      pop\n      pop\n      jump\t// out\n        /* \"#utility.yul\":4460:4589   */\n    tag_110:\n        /* \"#utility.yul\":4494:4500   */\n      0x00\n        /* \"#utility.yul\":4521:4541   */\n      tag_180\n      tag_94\n      jump\t// in\n    tag_180:\n        /* \"#utility.yul\":4511:4541   */\n      swap1\n      pop\n        /* \"#utility.yul\":4550:4583   */\n      tag_181\n        /* \"#utility.yul\":4578:4582   */\n      dup3\n        /* \"#utility.yul\":4570:4576   */\n      dup3\n        /* \"#utility.yul\":4550:4583   */\n      tag_109\n      jump\t// in\n    tag_181:\n        /* \"#utility.yul\":4460:4589   */\n      swap2\n      swap1\n      pop\n      jump\t// out\n        /* \"#utility.yul\":4595:4903   */\n    tag_111:\n        /* \"#utility.yul\":4657:4661   */\n      0x00\n        /* \"#utility.yul\":4747:4765   */\n      0xffffffffffffffff\n        /* \"#utility.yul\":4739:4745   */\n      dup3\n        /* \"#utility.yul\":4736:4766   */\n      gt\n        /* \"#utility.yul\":4733:4789   */\n      iszero\n      tag_183\n      jumpi\n        /* \"#utility.yul\":4769:4787   */\n      tag_184\n      tag_108\n      jump\t// in\n    tag_184:\n        /* \"#utility.yul\":4733:4789   */\n    tag_183:\n        /* \"#utility.yul\":4807:4836   */\n      tag_185\n        /* \"#utility.yul\":4829:4835   */\n      dup3\n        /* \"#utility.yul\":4807:4836   */\n      tag_103\n      jump\t// in\n    tag_185:\n        /* \"#utility.yul\":4799:4836   */\n      swap1\n      pop\n        /* \"#utility.yul\":4891:4895   */\n      0x20\n        /* \"#utility.yul\":4885:4889   */\n      dup2\n        /* \"#utility.yul\":4881:4896   */\n      add\n        /* \"#utility.yul\":4873:4896   */\n      swap1\n      pop\n        /* \"#utility.yul\":4595:4903   */\n      swap2\n      swap1\n      pop\n      jump\t// out\n        /* \"#utility.yul\":4909:5055   */\n    tag_112:\n        /* \"#utility.yul\":5006:5012   */\n      dup3\n        /* \"#utility.yul\":5001:5004   */\n      dup2\n        /* \"#utility.yul\":4996:4999   */\n      dup4\n        /* \"#utility.yul\":4983:5013   */\n      calldatacopy\n        /* \"#utility.yul\":5047:5048   */\n      0x00\n        /* \"#utility.yul\":5038:5044   */\n      dup4\n        /* \"#utility.yul\":5033:5036   */\n      dup4\n        /* \"#utility.yul\":5029:5045   */\n      add\n        /* \"#utility.yul\":5022:5049   */\n      mstore\n        /* \"#utility.yul\":4909:5055   */\n      pop\n      pop\n      pop\n      jump\t// out\n        /* \"#utility.yul\":5061:5486   */\n    tag_113:\n        /* \"#utility.yul\":5139:5144   */\n      0x00\n        /* \"#utility.yul\":5164:5230   */\n      tag_188\n        /* \"#utility.yul\":5180:5229   */\n      tag_189\n        /* \"#utility.yul\":5222:5228   */\n      dup5\n        /* \"#utility.yul\":5180:5229   */\n      tag_111\n      jump\t// in\n    tag_189:\n        /* \"#utility.yul\":5164:5230   */\n      tag_110\n      jump\t// in\n    tag_188:\n        /* \"#utility.yul\":5155:5230   */\n      swap1\n      pop\n        /* \"#utility.yul\":5253:5259   */\n      dup3\n        /* \"#utility.yul\":5246:5251   */\n      dup2\n        /* \"#utility.yul\":5239:5260   */\n      mstore\n        /* \"#utility.yul\":5291:5295   */\n      0x20\n        /* \"#utility.yul\":5284:5289   */\n      dup2\n        /* \"#utility.yul\":5280:5296   */\n      add\n        /* \"#utility.yul\":5329:5332   */\n      dup5\n        /* \"#utility.yul\":5320:5326   */\n      dup5\n        /* \"#utility.yul\":5315:5318   */\n      dup5\n        /* \"#utility.yul\":5311:5327   */\n      add\n        /* \"#utility.yul\":5308:5333   */\n      gt\n        /* \"#utility.yul\":5305:5417   */\n      iszero\n      tag_190\n      jumpi\n        /* \"#utility.yul\":5336:5415   */\n      tag_191\n      tag_107\n      jump\t// in\n    tag_191:\n        /* \"#utility.yul\":5305:5417   */\n    tag_190:\n        /* \"#utility.yul\":5426:5480   */\n      tag_192\n        /* \"#utility.yul\":5473:5479   */\n      dup5\n        /* \"#utility.yul\":5468:5471   */\n      dup3\n        /* \"#utility.yul\":5463:5466   */\n      dup6\n        /* \"#utility.yul\":5426:5480   */\n      tag_112\n      jump\t// in\n    tag_192:\n        /* \"#utility.yul\":5145:5486   */\n      pop\n        /* \"#utility.yul\":5061:5486   */\n      swap4\n      swap3\n      pop\n      pop\n      pop\n      jump\t// out\n        /* \"#utility.yul\":5506:5846   */\n    tag_114:\n        /* \"#utility.yul\":5562:5567   */\n      0x00\n        /* \"#utility.yul\":5611:5614   */\n      dup3\n        /* \"#utility.yul\":5604:5608   */\n      0x1f\n        /* \"#utility.yul\":5596:5602   */\n      dup4\n        /* \"#utility.yul\":5592:5609   */\n      add\n        /* \"#utility.yul\":5588:5615   */\n      slt\n        /* \"#utility.yul\":5578:5700   */\n      tag_194\n      jumpi\n        /* \"#utility.yul\":5619:5698   */\n      tag_195\n      tag_106\n      jump\t// in\n    tag_195:\n        /* \"#utility.yul\":5578:5700   */\n    tag_194:\n        /* \"#utility.yul\":5736:5742   */\n      dup2\n        /* \"#utility.yul\":5723:5743   */\n      calldataload\n        /* \"#utility.yul\":5761:5840   */\n      tag_196\n        /* \"#utility.yul\":5836:5839   */\n      dup5\n        /* \"#utility.yul\":5828:5834   */\n      dup3\n        /* \"#utility.yul\":5821:5825   */\n      0x20\n        /* \"#utility.yul\":5813:5819   */\n      dup7\n        /* \"#utility.yul\":5809:5826   */\n      add\n        /* \"#utility.yul\":5761:5840   */\n      tag_113\n      jump\t// in\n    tag_196:\n        /* \"#utility.yul\":5752:5840   */\n      swap2\n      pop\n        /* \"#utility.yul\":5568:5846   */\n      pop\n        /* \"#utility.yul\":5506:5846   */\n      swap3\n      swap2\n      pop\n      pop\n      jump\t// out\n        /* \"#utility.yul\":5852:8393   */\n    tag_15:\n        /* \"#utility.yul\":6042:6048   */\n      0x00\n        /* \"#utility.yul\":6050:6056   */\n      dup1\n        /* \"#utility.yul\":6058:6064   */\n      0x00\n        /* \"#utility.yul\":6066:6072   */\n      dup1\n        /* \"#utility.yul\":6074:6080   */\n      0x00\n        /* \"#utility.yul\":6082:6088   */\n      dup1\n        /* \"#utility.yul\":6090:6096   */\n      0x00\n        /* \"#utility.yul\":6098:6104   */\n      dup1\n        /* \"#utility.yul\":6106:6112   */\n      0x00\n        /* \"#utility.yul\":6114:6120   */\n      dup1\n        /* \"#utility.yul\":6163:6166   */\n      0x0140\n        /* \"#utility.yul\":6151:6160   */\n      dup12\n        /* \"#utility.yul\":6142:6149   */\n      dup14\n        /* \"#utility.yul\":6138:6161   */\n      sub\n        /* \"#utility.yul\":6134:6167   */\n      slt\n        /* \"#utility.yul\":6131:6251   */\n      iszero\n      tag_198\n      jumpi\n        /* \"#utility.yul\":6170:6249   */\n      tag_199\n      tag_95\n      jump\t// in\n    tag_199:\n        /* \"#utility.yul\":6131:6251   */\n    tag_198:\n        /* \"#utility.yul\":6290:6291   */\n      0x00\n        /* \"#utility.yul\":6315:6368   */\n      tag_200\n        /* \"#utility.yul\":6360:6367   */\n      dup14\n        /* \"#utility.yul\":6351:6357   */\n      dup3\n        /* \"#utility.yul\":6340:6349   */\n      dup15\n        /* \"#utility.yul\":6336:6358   */\n      add\n        /* \"#utility.yul\":6315:6368   */\n      tag_99\n      jump\t// in\n    tag_200:\n        /* \"#utility.yul\":6305:6368   */\n      swap11\n      pop\n        /* \"#utility.yul\":6261:6378   */\n      pop\n        /* \"#utility.yul\":6445:6447   */\n      0x20\n        /* \"#utility.yul\":6434:6443   */\n      dup12\n        /* \"#utility.yul\":6430:6448   */\n      add\n        /* \"#utility.yul\":6417:6449   */\n      calldataload\n        /* \"#utility.yul\":6476:6494   */\n      0xffffffffffffffff\n        /* \"#utility.yul\":6468:6474   */\n      dup2\n        /* \"#utility.yul\":6465:6495   */\n      gt\n        /* \"#utility.yul\":6462:6579   */\n      iszero\n      tag_201\n      jumpi\n        /* \"#utility.yul\":6498:6577   */\n      tag_202\n      tag_96\n      jump\t// in\n    tag_202:\n        /* \"#utility.yul\":6462:6579   */\n    tag_201:\n        /* \"#utility.yul\":6603:6666   */\n      tag_203\n        /* \"#utility.yul\":6658:6665   */\n      dup14\n        /* \"#utility.yul\":6649:6655   */\n      dup3\n        /* \"#utility.yul\":6638:6647   */\n      dup15\n        /* \"#utility.yul\":6634:6656   */\n      add\n        /* \"#utility.yul\":6603:6666   */\n      tag_114\n      jump\t// in\n    tag_203:\n        /* \"#utility.yul\":6593:6666   */\n      swap10\n      pop\n        /* \"#utility.yul\":6388:6676   */\n      pop\n        /* \"#utility.yul\":6715:6717   */\n      0x40\n        /* \"#utility.yul\":6741:6794   */\n      tag_204\n        /* \"#utility.yul\":6786:6793   */\n      dup14\n        /* \"#utility.yul\":6777:6783   */\n      dup3\n        /* \"#utility.yul\":6766:6775   */\n      dup15\n        /* \"#utility.yul\":6762:6784   */\n      add\n        /* \"#utility.yul\":6741:6794   */\n      tag_99\n      jump\t// in\n    tag_204:\n        /* \"#utility.yul\":6731:6794   */\n      swap9\n      pop\n        /* \"#utility.yul\":6686:6804   */\n      pop\n        /* \"#utility.yul\":6871:6873   */\n      0x60\n        /* \"#utility.yul\":6860:6869   */\n      dup12\n        /* \"#utility.yul\":6856:6874   */\n      add\n        /* \"#utility.yul\":6843:6875   */\n      calldataload\n        /* \"#utility.yul\":6902:6920   */\n      0xffffffffffffffff\n        /* \"#utility.yul\":6894:6900   */\n      dup2\n        /* \"#utility.yul\":6891:6921   */\n      gt\n        /* \"#utility.yul\":6888:7005   */\n      iszero\n      tag_205\n      jumpi\n        /* \"#utility.yul\":6924:7003   */\n      tag_206\n      tag_96\n      jump\t// in\n    tag_206:\n        /* \"#utility.yul\":6888:7005   */\n    tag_205:\n        /* \"#utility.yul\":7029:7092   */\n      tag_207\n        /* \"#utility.yul\":7084:7091   */\n      dup14\n        /* \"#utility.yul\":7075:7081   */\n      dup3\n        /* \"#utility.yul\":7064:7073   */\n      dup15\n        /* \"#utility.yul\":7060:7082   */\n      add\n        /* \"#utility.yul\":7029:7092   */\n      tag_114\n      jump\t// in\n    tag_207:\n        /* \"#utility.yul\":7019:7092   */\n      swap8\n      pop\n        /* \"#utility.yul\":6814:7102   */\n      pop\n        /* \"#utility.yul\":7169:7172   */\n      0x80\n        /* \"#utility.yul\":7158:7167   */\n      dup12\n        /* \"#utility.yul\":7154:7173   */\n      add\n        /* \"#utility.yul\":7141:7174   */\n      calldataload\n        /* \"#utility.yul\":7201:7219   */\n      0xffffffffffffffff\n        /* \"#utility.yul\":7193:7199   */\n      dup2\n        /* \"#utility.yul\":7190:7220   */\n      gt\n        /* \"#utility.yul\":7187:7304   */\n      iszero\n      tag_208\n      jumpi\n        /* \"#utility.yul\":7223:7302   */\n      tag_209\n      tag_96\n      jump\t// in\n    tag_209:\n        /* \"#utility.yul\":7187:7304   */\n    tag_208:\n        /* \"#utility.yul\":7328:7391   */\n      tag_210\n        /* \"#utility.yul\":7383:7390   */\n      dup14\n        /* \"#utility.yul\":7374:7380   */\n      dup3\n        /* \"#utility.yul\":7363:7372   */\n      dup15\n        /* \"#utility.yul\":7359:7381   */\n      add\n        /* \"#utility.yul\":7328:7391   */\n      tag_114\n      jump\t// in\n    tag_210:\n        /* \"#utility.yul\":7318:7391   */\n      swap7\n      pop\n        /* \"#utility.yul\":7112:7401   */\n      pop\n        /* \"#utility.yul\":7440:7443   */\n      0xa0\n        /* \"#utility.yul\":7467:7520   */\n      tag_211\n        /* \"#utility.yul\":7512:7519   */\n      dup14\n        /* \"#utility.yul\":7503:7509   */\n      dup3\n        /* \"#utility.yul\":7492:7501   */\n      dup15\n        /* \"#utility.yul\":7488:7510   */\n      add\n        /* \"#utility.yul\":7467:7520   */\n      tag_99\n      jump\t// in\n    tag_211:\n        /* \"#utility.yul\":7457:7520   */\n      swap6\n      pop\n        /* \"#utility.yul\":7411:7530   */\n      pop\n        /* \"#utility.yul\":7597:7600   */\n      0xc0\n        /* \"#utility.yul\":7586:7595   */\n      dup12\n        /* \"#utility.yul\":7582:7601   */\n      add\n        /* \"#utility.yul\":7569:7602   */\n      calldataload\n        /* \"#utility.yul\":7629:7647   */\n      0xffffffffffffffff\n        /* \"#utility.yul\":7621:7627   */\n      dup2\n        /* \"#utility.yul\":7618:7648   */\n      gt\n        /* \"#utility.yul\":7615:7732   */\n      iszero\n      tag_212\n      jumpi\n        /* \"#utility.yul\":7651:7730   */\n      tag_213\n      tag_96\n      jump\t// in\n    tag_213:\n        /* \"#utility.yul\":7615:7732   */\n    tag_212:\n        /* \"#utility.yul\":7756:7819   */\n      tag_214\n        /* \"#utility.yul\":7811:7818   */\n      dup14\n        /* \"#utility.yul\":7802:7808   */\n      dup3\n        /* \"#utility.yul\":7791:7800   */\n      dup15\n        /* \"#utility.yul\":7787:7809   */\n      add\n        /* \"#utility.yul\":7756:7819   */\n      tag_114\n      jump\t// in\n    tag_214:\n        /* \"#utility.yul\":7746:7819   */\n      swap5\n      pop\n        /* \"#utility.yul\":7540:7829   */\n      pop\n        /* \"#utility.yul\":7868:7871   */\n      0xe0\n        /* \"#utility.yul\":7895:7948   */\n      tag_215\n        /* \"#utility.yul\":7940:7947   */\n      dup14\n        /* \"#utility.yul\":7931:7937   */\n      dup3\n        /* \"#utility.yul\":7920:7929   */\n      dup15\n        /* \"#utility.yul\":7916:7938   */\n      add\n        /* \"#utility.yul\":7895:7948   */\n      tag_99\n      jump\t// in\n    tag_215:\n        /* \"#utility.yul\":7885:7948   */\n      swap4\n      pop\n        /* \"#utility.yul\":7839:7958   */\n      pop\n        /* \"#utility.yul\":8025:8028   */\n      0x0100\n        /* \"#utility.yul\":8014:8023   */\n      dup12\n        /* \"#utility.yul\":8010:8029   */\n      add\n        /* \"#utility.yul\":7997:8030   */\n      calldataload\n        /* \"#utility.yul\":8057:8075   */\n      0xffffffffffffffff\n        /* \"#utility.yul\":8049:8055   */\n      dup2\n        /* \"#utility.yul\":8046:8076   */\n      gt\n        /* \"#utility.yul\":8043:8160   */\n      iszero\n      tag_216\n      jumpi\n        /* \"#utility.yul\":8079:8158   */\n      tag_217\n      tag_96\n      jump\t// in\n    tag_217:\n        /* \"#utility.yul\":8043:8160   */\n    tag_216:\n        /* \"#utility.yul\":8184:8247   */\n      tag_218\n        /* \"#utility.yul\":8239:8246   */\n      dup14\n        /* \"#utility.yul\":8230:8236   */\n      dup3\n        /* \"#utility.yul\":8219:8228   */\n      dup15\n        /* \"#utility.yul\":8215:8237   */\n      add\n        /* \"#utility.yul\":8184:8247   */\n      tag_114\n      jump\t// in\n    tag_218:\n        /* \"#utility.yul\":8174:8247   */\n      swap3\n      pop\n        /* \"#utility.yul\":7968:8257   */\n      pop\n        /* \"#utility.yul\":8296:8299   */\n      0x0120\n        /* \"#utility.yul\":8323:8376   */\n      tag_219\n        /* \"#utility.yul\":8368:8375   */\n      dup14\n        /* \"#utility.yul\":8359:8365   */\n      dup3\n        /* \"#utility.yul\":8348:8357   */\n      dup15\n        /* \"#utility.yul\":8344:8366   */\n      add\n        /* \"#utility.yul\":8323:8376   */\n      tag_99\n      jump\t// in\n    tag_219:\n        /* \"#utility.yul\":8313:8376   */\n      swap2\n      pop\n        /* \"#utility.yul\":8267:8386   */\n      pop\n        /* \"#utility.yul\":5852:8393   */\n      swap3\n      swap6\n      swap9\n      swap12\n      swap2\n      swap5\n      swap8\n      swap11\n      pop\n      swap3\n      swap6\n      swap9\n      pop\n      jump\t// out\n        /* \"#utility.yul\":8399:9023   */\n    tag_21:\n        /* \"#utility.yul\":8588:8592   */\n      0x00\n        /* \"#utility.yul\":8626:8628   */\n      0x60\n        /* \"#utility.yul\":8615:8624   */\n      dup3\n        /* \"#utility.yul\":8611:8629   */\n      add\n        /* \"#utility.yul\":8603:8629   */\n      swap1\n      pop\n        /* \"#utility.yul\":8675:8684   */\n      dup2\n        /* \"#utility.yul\":8669:8673   */\n      dup2\n        /* \"#utility.yul\":8665:8685   */\n      sub\n        /* \"#utility.yul\":8661:8662   */\n      0x00\n        /* \"#utility.yul\":8650:8659   */\n      dup4\n        /* \"#utility.yul\":8646:8663   */\n      add\n        /* \"#utility.yul\":8639:8686   */\n      mstore\n        /* \"#utility.yul\":8703:8781   */\n      tag_221\n        /* \"#utility.yul\":8776:8780   */\n      dup2\n        /* \"#utility.yul\":8767:8773   */\n      dup7\n        /* \"#utility.yul\":8703:8781   */\n      tag_104\n      jump\t// in\n    tag_221:\n        /* \"#utility.yul\":8695:8781   */\n      swap1\n      pop\n        /* \"#utility.yul\":8828:8837   */\n      dup2\n        /* \"#utility.yul\":8822:8826   */\n      dup2\n        /* \"#utility.yul\":8818:8838   */\n      sub\n        /* \"#utility.yul\":8813:8815   */\n      0x20\n        /* \"#utility.yul\":8802:8811   */\n      dup4\n        /* \"#utility.yul\":8798:8816   */\n      add\n        /* \"#utility.yul\":8791:8839   */\n      mstore\n        /* \"#utility.yul\":8856:8934   */\n      tag_222\n        /* \"#utility.yul\":8929:8933   */\n      dup2\n        /* \"#utility.yul\":8920:8926   */\n      dup6\n        /* \"#utility.yul\":8856:8934   */\n      tag_104\n      jump\t// in\n    tag_222:\n        /* \"#utility.yul\":8848:8934   */\n      swap1\n      pop\n        /* \"#utility.yul\":8944:9016   */\n      tag_223\n        /* \"#utility.yul\":9012:9014   */\n      0x40\n        /* \"#utility.yul\":9001:9010   */\n      dup4\n        /* \"#utility.yul\":8997:9015   */\n      add\n        /* \"#utility.yul\":8988:8994   */\n      dup5\n        /* \"#utility.yul\":8944:9016   */\n      tag_105\n      jump\t// in\n    tag_223:\n        /* \"#utility.yul\":8399:9023   */\n      swap5\n      swap4\n      pop\n      pop\n      pop\n      pop\n      jump\t// out\n        /* \"#utility.yul\":9029:10154   */\n    tag_24:\n        /* \"#utility.yul\":9135:9141   */\n      0x00\n        /* \"#utility.yul\":9143:9149   */\n      dup1\n        /* \"#utility.yul\":9151:9157   */\n      0x00\n        /* \"#utility.yul\":9159:9165   */\n      dup1\n        /* \"#utility.yul\":9208:9211   */\n      0x80\n        /* \"#utility.yul\":9196:9205   */\n      dup6\n        /* \"#utility.yul\":9187:9194   */\n      dup8\n        /* \"#utility.yul\":9183:9206   */\n      sub\n        /* \"#utility.yul\":9179:9212   */\n      slt\n        /* \"#utility.yul\":9176:9296   */\n      iszero\n      tag_225\n      jumpi\n        /* \"#utility.yul\":9215:9294   */\n      tag_226\n      tag_95\n      jump\t// in\n    tag_226:\n        /* \"#utility.yul\":9176:9296   */\n    tag_225:\n        /* \"#utility.yul\":9335:9336   */\n      0x00\n        /* \"#utility.yul\":9360:9413   */\n      tag_227\n        /* \"#utility.yul\":9405:9412   */\n      dup8\n        /* \"#utility.yul\":9396:9402   */\n      dup3\n        /* \"#utility.yul\":9385:9394   */\n      dup9\n        /* \"#utility.yul\":9381:9403   */\n      add\n        /* \"#utility.yul\":9360:9413   */\n      tag_99\n      jump\t// in\n    tag_227:\n        /* \"#utility.yul\":9350:9413   */\n      swap5\n      pop\n        /* \"#utility.yul\":9306:9423   */\n      pop\n        /* \"#utility.yul\":9490:9492   */\n      0x20\n        /* \"#utility.yul\":9479:9488   */\n      dup6\n        /* \"#utility.yul\":9475:9493   */\n      add\n        /* \"#utility.yul\":9462:9494   */\n      calldataload\n        /* \"#utility.yul\":9521:9539   */\n      0xffffffffffffffff\n        /* \"#utility.yul\":9513:9519   */\n      dup2\n        /* \"#utility.yul\":9510:9540   */\n      gt\n        /* \"#utility.yul\":9507:9624   */\n      iszero\n      tag_228\n      jumpi\n        /* \"#utility.yul\":9543:9622   */\n      tag_229\n      tag_96\n      jump\t// in\n    tag_229:\n        /* \"#utility.yul\":9507:9624   */\n    tag_228:\n        /* \"#utility.yul\":9648:9711   */\n      tag_230\n        /* \"#utility.yul\":9703:9710   */\n      dup8\n        /* \"#utility.yul\":9694:9700   */\n      dup3\n        /* \"#utility.yul\":9683:9692   */\n      dup9\n        /* \"#utility.yul\":9679:9701   */\n      add\n        /* \"#utility.yul\":9648:9711   */\n      tag_114\n      jump\t// in\n    tag_230:\n        /* \"#utility.yul\":9638:9711   */\n      swap4\n      pop\n        /* \"#utility.yul\":9433:9721   */\n      pop\n        /* \"#utility.yul\":9788:9790   */\n      0x40\n        /* \"#utility.yul\":9777:9786   */\n      dup6\n        /* \"#utility.yul\":9773:9791   */\n      add\n        /* \"#utility.yul\":9760:9792   */\n      calldataload\n        /* \"#utility.yul\":9819:9837   */\n      0xffffffffffffffff\n        /* \"#utility.yul\":9811:9817   */\n      dup2\n        /* \"#utility.yul\":9808:9838   */\n      gt\n        /* \"#utility.yul\":9805:9922   */\n      iszero\n      tag_231\n      jumpi\n        /* \"#utility.yul\":9841:9920   */\n      tag_232\n      tag_96\n      jump\t// in\n    tag_232:\n        /* \"#utility.yul\":9805:9922   */\n    tag_231:\n        /* \"#utility.yul\":9946:10009   */\n      tag_233\n        /* \"#utility.yul\":10001:10008   */\n      dup8\n        /* \"#utility.yul\":9992:9998   */\n      dup3\n        /* \"#utility.yul\":9981:9990   */\n      dup9\n        /* \"#utility.yul\":9977:9999   */\n      add\n        /* \"#utility.yul\":9946:10009   */\n      tag_114\n      jump\t// in\n    tag_233:\n        /* \"#utility.yul\":9936:10009   */\n      swap3\n      pop\n        /* \"#utility.yul\":9731:10019   */\n      pop\n        /* \"#utility.yul\":10058:10060   */\n      0x60\n        /* \"#utility.yul\":10084:10137   */\n      tag_234\n        /* \"#utility.yul\":10129:10136   */\n      dup8\n        /* \"#utility.yul\":10120:10126   */\n      dup3\n        /* \"#utility.yul\":10109:10118   */\n      dup9\n        /* \"#utility.yul\":10105:10127   */\n      add\n        /* \"#utility.yul\":10084:10137   */\n      tag_99\n      jump\t// in\n    tag_234:\n        /* \"#utility.yul\":10074:10137   */\n      swap2\n      pop\n        /* \"#utility.yul\":10029:10147   */\n      pop\n        /* \"#utility.yul\":9029:10154   */\n      swap3\n      swap6\n      swap2\n      swap5\n      pop\n      swap3\n      pop\n      jump\t// out\n        /* \"#utility.yul\":10160:10340   */\n    tag_115:\n        /* \"#utility.yul\":10208:10285   */\n      0x4e487b7100000000000000000000000000000000000000000000000000000000\n        /* \"#utility.yul\":10205:10206   */\n      0x00\n        /* \"#utility.yul\":10198:10286   */\n      mstore\n        /* \"#utility.yul\":10305:10309   */\n      0x22\n        /* \"#utility.yul\":10302:10303   */\n      0x04\n        /* \"#utility.yul\":10295:10310   */\n      mstore\n        /* \"#utility.yul\":10329:10333   */\n      0x24\n        /* \"#utility.yul\":10326:10327   */\n      0x00\n        /* \"#utility.yul\":10319:10334   */\n      revert\n        /* \"#utility.yul\":10346:10666   */\n    tag_28:\n        /* \"#utility.yul\":10390:10396   */\n      0x00\n        /* \"#utility.yul\":10427:10428   */\n      0x02\n        /* \"#utility.yul\":10421:10425   */\n      dup3\n        /* \"#utility.yul\":10417:10429   */\n      div\n        /* \"#utility.yul\":10407:10429   */\n      swap1\n      pop\n        /* \"#utility.yul\":10474:10475   */\n      0x01\n        /* \"#utility.yul\":10468:10472   */\n      dup3\n        /* \"#utility.yul\":10464:10476   */\n      and\n        /* \"#utility.yul\":10495:10513   */\n      dup1\n        /* \"#utility.yul\":10485:10566   */\n      tag_237\n      jumpi\n        /* \"#utility.yul\":10551:10555   */\n      0x7f\n        /* \"#utility.yul\":10543:10549   */\n      dup3\n        /* \"#utility.yul\":10539:10556   */\n      and\n        /* \"#utility.yul\":10529:10556   */\n      swap2\n      pop\n        /* \"#utility.yul\":10485:10566   */\n    tag_237:\n        /* \"#utility.yul\":10613:10615   */\n      0x20\n        /* \"#utility.yul\":10605:10611   */\n      dup3\n        /* \"#utility.yul\":10602:10616   */\n      lt\n        /* \"#utility.yul\":10582:10600   */\n      dup2\n        /* \"#utility.yul\":10579:10617   */\n      sub\n        /* \"#utility.yul\":10576:10660   */\n      tag_238\n      jumpi\n        /* \"#utility.yul\":10632:10650   */\n      tag_239\n      tag_115\n      jump\t// in\n    tag_239:\n        /* \"#utility.yul\":10576:10660   */\n    tag_238:\n        /* \"#utility.yul\":10397:10666   */\n      pop\n        /* \"#utility.yul\":10346:10666   */\n      swap2\n      swap1\n      pop\n      jump\t// out\n        /* \"#utility.yul\":10672:10843   */\n    tag_116:\n        /* \"#utility.yul\":10812:10835   */\n      0x416363657373206973206e6f7420616c6c6f7765640000000000000000000000\n        /* \"#utility.yul\":10808:10809   */\n      0x00\n        /* \"#utility.yul\":10800:10806   */\n      dup3\n        /* \"#utility.yul\":10796:10810   */\n      add\n        /* \"#utility.yul\":10789:10836   */\n      mstore\n        /* \"#utility.yul\":10672:10843   */\n      pop\n      jump\t// out\n        /* \"#utility.yul\":10849:11215   */\n    tag_117:\n        /* \"#utility.yul\":10991:10994   */\n      0x00\n        /* \"#utility.yul\":11012:11079   */\n      tag_242\n        /* \"#utility.yul\":11076:11078   */\n      0x15\n        /* \"#utility.yul\":11071:11074   */\n      dup4\n        /* \"#utility.yul\":11012:11079   */\n      tag_101\n      jump\t// in\n    tag_242:\n        /* \"#utility.yul\":11005:11079   */\n      swap2\n      pop\n        /* \"#utility.yul\":11088:11181   */\n      tag_243\n        /* \"#utility.yul\":11177:11180   */\n      dup3\n        /* \"#utility.yul\":11088:11181   */\n      tag_116\n      jump\t// in\n    tag_243:\n        /* \"#utility.yul\":11206:11208   */\n      0x20\n        /* \"#utility.yul\":11201:11204   */\n      dup3\n        /* \"#utility.yul\":11197:11209   */\n      add\n        /* \"#utility.yul\":11190:11209   */\n      swap1\n      pop\n        /* \"#utility.yul\":10849:11215   */\n      swap2\n      swap1\n      pop\n      jump\t// out\n        /* \"#utility.yul\":11221:11640   */\n    tag_61:\n        /* \"#utility.yul\":11387:11391   */\n      0x00\n        /* \"#utility.yul\":11425:11427   */\n      0x20\n        /* \"#utility.yul\":11414:11423   */\n      dup3\n        /* \"#utility.yul\":11410:11428   */\n      add\n        /* \"#utility.yul\":11402:11428   */\n      swap1\n      pop\n        /* \"#utility.yul\":11474:11483   */\n      dup2\n        /* \"#utility.yul\":11468:11472   */\n      dup2\n        /* \"#utility.yul\":11464:11484   */\n      sub\n        /* \"#utility.yul\":11460:11461   */\n      0x00\n        /* \"#utility.yul\":11449:11458   */\n      dup4\n        /* \"#utility.yul\":11445:11462   */\n      add\n        /* \"#utility.yul\":11438:11485   */\n      mstore\n        /* \"#utility.yul\":11502:11633   */\n      tag_245\n        /* \"#utility.yul\":11628:11632   */\n      dup2\n        /* \"#utility.yul\":11502:11633   */\n      tag_117\n      jump\t// in\n    tag_245:\n        /* \"#utility.yul\":11494:11633   */\n      swap1\n      pop\n        /* \"#utility.yul\":11221:11640   */\n      swap2\n      swap1\n      pop\n      jump\t// out\n        /* \"#utility.yul\":11646:11787   */\n    tag_118:\n        /* \"#utility.yul\":11695:11699   */\n      0x00\n        /* \"#utility.yul\":11718:11721   */\n      dup2\n        /* \"#utility.yul\":11710:11721   */\n      swap1\n      pop\n        /* \"#utility.yul\":11741:11744   */\n      dup2\n        /* \"#utility.yul\":11738:11739   */\n      0x00\n        /* \"#utility.yul\":11731:11745   */\n      mstore\n        /* \"#utility.yul\":11775:11779   */\n      0x20\n        /* \"#utility.yul\":11772:11773   */\n      0x00\n        /* \"#utility.yul\":11762:11780   */\n      keccak256\n        /* \"#utility.yul\":11754:11780   */\n      swap1\n      pop\n        /* \"#utility.yul\":11646:11787   */\n      swap2\n      swap1\n      pop\n      jump\t// out\n        /* \"#utility.yul\":11793:11886   */\n    tag_119:\n        /* \"#utility.yul\":11830:11836   */\n      0x00\n        /* \"#utility.yul\":11877:11879   */\n      0x20\n        /* \"#utility.yul\":11872:11874   */\n      0x1f\n        /* \"#utility.yul\":11865:11870   */\n      dup4\n        /* \"#utility.yul\":11861:11875   */\n      add\n        /* \"#utility.yul\":11857:11880   */\n      div\n        /* \"#utility.yul\":11847:11880   */\n      swap1\n      pop\n        /* \"#utility.yul\":11793:11886   */\n      swap2\n      swap1\n      pop\n      jump\t// out\n        /* \"#utility.yul\":11892:11999   */\n    tag_120:\n        /* \"#utility.yul\":11936:11944   */\n      0x00\n        /* \"#utility.yul\":11986:11991   */\n      dup3\n        /* \"#utility.yul\":11980:11984   */\n      dup3\n        /* \"#utility.yul\":11976:11992   */\n      shl\n        /* \"#utility.yul\":11955:11992   */\n      swap1\n      pop\n        /* \"#utility.yul\":11892:11999   */\n      swap3\n      swap2\n      pop\n      pop\n      jump\t// out\n        /* \"#utility.yul\":12005:12398   */\n    tag_121:\n        /* \"#utility.yul\":12074:12080   */\n      0x00\n        /* \"#utility.yul\":12124:12125   */\n      0x08\n        /* \"#utility.yul\":12112:12122   */\n      dup4\n        /* \"#utility.yul\":12108:12126   */\n      mul\n        /* \"#utility.yul\":12147:12244   */\n      tag_250\n        /* \"#utility.yul\":12177:12243   */\n      0xffffffffffffffffffffffffffffffffffffffffffffffffffffffffffffffff\n        /* \"#utility.yul\":12166:12175   */\n      dup3\n        /* \"#utility.yul\":12147:12244   */\n      tag_120\n      jump\t// in\n    tag_250:\n        /* \"#utility.yul\":12265:12304   */\n      tag_251\n        /* \"#utility.yul\":12295:12303   */\n      dup7\n        /* \"#utility.yul\":12284:12293   */\n      dup4\n        /* \"#utility.yul\":12265:12304   */\n      tag_120\n      jump\t// in\n    tag_251:\n        /* \"#utility.yul\":12253:12304   */\n      swap6\n      pop\n        /* \"#utility.yul\":12337:12341   */\n      dup1\n        /* \"#utility.yul\":12333:12342   */\n      not\n        /* \"#utility.yul\":12326:12331   */\n      dup5\n        /* \"#utility.yul\":12322:12343   */\n      and\n        /* \"#utility.yul\":12313:12343   */\n      swap4\n      pop\n        /* \"#utility.yul\":12386:12390   */\n      dup1\n        /* \"#utility.yul\":12376:12384   */\n      dup7\n        /* \"#utility.yul\":12372:12391   */\n      and\n        /* \"#utility.yul\":12365:12370   */\n      dup5\n        /* \"#utility.yul\":12362:12392   */\n      or\n        /* \"#utility.yul\":12352:12392   */\n      swap3\n      pop\n        /* \"#utility.yul\":12081:12398   */\n      pop\n      pop\n        /* \"#utility.yul\":12005:12398   */\n      swap4\n      swap3\n      pop\n      pop\n      pop\n      jump\t// out\n        /* \"#utility.yul\":12404:12464   */\n    tag_122:\n        /* \"#utility.yul\":12432:12435   */\n      0x00\n        /* \"#utility.yul\":12453:12458   */\n      dup2\n        /* \"#utility.yul\":12446:12458   */\n      swap1\n      pop\n        /* \"#utility.yul\":12404:12464   */\n      swap2\n      swap1\n      pop\n      jump\t// out\n        /* \"#utility.yul\":12470:12612   */\n    tag_123:\n        /* \"#utility.yul\":12520:12529   */\n      0x00\n        /* \"#utility.yul\":12553:12606   */\n      tag_254\n        /* \"#utility.yul\":12571:12605   */\n      tag_255\n        /* \"#utility.yul\":12580:12604   */\n      tag_256\n        /* \"#utility.yul\":12598:12603   */\n      dup5\n        /* \"#utility.yul\":12580:12604   */\n      tag_97\n      jump\t// in\n    tag_256:\n        /* \"#utility.yul\":12571:12605   */\n      tag_122\n      jump\t// in\n    tag_255:\n        /* \"#utility.yul\":12553:12606   */\n      tag_97\n      jump\t// in\n    tag_254:\n        /* \"#utility.yul\":12540:12606   */\n      swap1\n      pop\n        /* \"#utility.yul\":12470:12612   */\n      swap2\n      swap1\n      pop\n      jump\t// out\n        /* \"#utility.yul\":12618:12693   */\n    tag_124:\n        /* \"#utility.yul\":12661:12664   */\n      0x00\n        /* \"#utility.yul\":12682:12687   */\n      dup2\n        /* \"#utility.yul\":12675:12687   */\n      swap1\n      pop\n        /* \"#utility.yul\":12618:12693   */\n      swap2\n      swap1\n      pop\n      jump\t// out\n        /* \"#utility.yul\":12699:12968   */\n    tag_125:\n        /* \"#utility.yul\":12809:12848   */\n      tag_259\n        /* \"#utility.yul\":12840:12847   */\n      dup4\n        /* \"#utility.yul\":12809:12848   */\n      tag_123\n      jump\t// in\n    tag_259:\n        /* \"#utility.yul\":12870:12961   */\n      tag_260\n        /* \"#utility.yul\":12919:12960   */\n      tag_261\n        /* \"#utility.yul\":12943:12959   */\n      dup3\n        /* \"#utility.yul\":12919:12960   */\n      tag_124\n      jump\t// in\n    tag_261:\n        /* \"#utility.yul\":12911:12917   */\n      dup5\n        /* \"#utility.yul\":12904:12908   */\n      dup5\n        /* \"#utility.yul\":12898:12909   */\n      sload\n        /* \"#utility.yul\":12870:12961   */\n      tag_121\n      jump\t// in\n    tag_260:\n        /* \"#utility.yul\":12864:12868   */\n      dup3\n        /* \"#utility.yul\":12857:12962   */\n      sstore\n        /* \"#utility.yul\":12775:12968   */\n      pop\n        /* \"#utility.yul\":12699:12968   */\n      pop\n      pop\n      pop\n      jump\t// out\n        /* \"#utility.yul\":12974:13047   */\n    tag_126:\n        /* \"#utility.yul\":13019:13022   */\n      0x00\n        /* \"#utility.yul\":12974:13047   */\n      swap1\n      jump\t// out\n        /* \"#utility.yul\":13053:13242   */\n    tag_127:\n        /* \"#utility.yul\":13130:13162   */\n      tag_264\n      tag_126\n      jump\t// in\n    tag_264:\n        /* \"#utility.yul\":13171:13236   */\n      tag_265\n        /* \"#utility.yul\":13229:13235   */\n      dup2\n        /* \"#utility.yul\":13221:13227   */\n      dup5\n        /* \"#utility.yul\":13215:13219   */\n      dup5\n        /* \"#utility.yul\":13171:13236   */\n      tag_125\n      jump\t// in\n    tag_265:\n        /* \"#utility.yul\":13106:13242   */\n      pop\n        /* \"#utility.yul\":13053:13242   */\n      pop\n      pop\n      jump\t// out\n        /* \"#utility.yul\":13248:13434   */\n    tag_128:\n        /* \"#utility.yul\":13308:13428   */\n    tag_267:\n        /* \"#utility.yul\":13325:13328   */\n      dup2\n        /* \"#utility.yul\":13318:13323   */\n      dup2\n        /* \"#utility.yul\":13315:13329   */\n      lt\n        /* \"#utility.yul\":13308:13428   */\n      iszero\n      tag_269\n      jumpi\n        /* \"#utility.yul\":13379:13418   */\n      tag_270\n        /* \"#utility.yul\":13416:13417   */\n      0x00\n        /* \"#utility.yul\":13409:13414   */\n      dup3\n        /* \"#utility.yul\":13379:13418   */\n      tag_127\n      jump\t// in\n    tag_270:\n        /* \"#utility.yul\":13352:13353   */\n      0x01\n        /* \"#utility.yul\":13345:13350   */\n      dup2\n        /* \"#utility.yul\":13341:13354   */\n      add\n        /* \"#utility.yul\":13332:13354   */\n      swap1\n      pop\n        /* \"#utility.yul\":13308:13428   */\n      jump(tag_267)\n    tag_269:\n        /* \"#utility.yul\":13248:13434   */\n      pop\n      pop\n      jump\t// out\n        /* \"#utility.yul\":13440:13983   */\n    tag_129:\n        /* \"#utility.yul\":13541:13543   */\n      0x1f\n        /* \"#utility.yul\":13536:13539   */\n      dup3\n        /* \"#utility.yul\":13533:13544   */\n      gt\n        /* \"#utility.yul\":13530:13976   */\n      iszero\n      tag_272\n      jumpi\n        /* \"#utility.yul\":13575:13613   */\n      tag_273\n        /* \"#utility.yul\":13607:13612   */\n      dup2\n        /* \"#utility.yul\":13575:13613   */\n      tag_118\n      jump\t// in\n    tag_273:\n        /* \"#utility.yul\":13659:13688   */\n      tag_274\n        /* \"#utility.yul\":13677:13687   */\n      dup5\n        /* \"#utility.yul\":13659:13688   */\n      tag_119\n      jump\t// in\n    tag_274:\n        /* \"#utility.yul\":13649:13657   */\n      dup2\n        /* \"#utility.yul\":13645:13689   */\n      add\n        /* \"#utility.yul\":13842:13844   */\n      0x20\n        /* \"#utility.yul\":13830:13840   */\n      dup6\n        /* \"#utility.yul\":13827:13845   */\n      lt\n        /* \"#utility.yul\":13824:13873   */\n      iszero\n      tag_275\n      jumpi\n        /* \"#utility.yul\":13863:13871   */\n      dup2\n        /* \"#utility.yul\":13848:13871   */\n      swap1\n      pop\n        /* \"#utility.yul\":13824:13873   */\n    tag_275:\n        /* \"#utility.yul\":13886:13966   */\n      tag_276\n        /* \"#utility.yul\":13942:13964   */\n      tag_277\n        /* \"#utility.yul\":13960:13963   */\n      dup6\n        /* \"#utility.yul\":13942:13964   */\n      tag_119\n      jump\t// in\n    tag_277:\n        /* \"#utility.yul\":13932:13940   */\n      dup4\n        /* \"#utility.yul\":13928:13965   */\n      add\n        /* \"#utility.yul\":13915:13926   */\n      dup3\n        /* \"#utility.yul\":13886:13966   */\n      tag_128\n      jump\t// in\n    tag_276:\n        /* \"#utility.yul\":13545:13976   */\n      pop\n      pop\n        /* \"#utility.yul\":13530:13976   */\n    tag_272:\n        /* \"#utility.yul\":13440:13983   */\n      pop\n      pop\n      pop\n      jump\t// out\n        /* \"#utility.yul\":13989:14106   */\n    tag_130:\n        /* \"#utility.yul\":14043:14051   */\n      0x00\n        /* \"#utility.yul\":14093:14098   */\n      dup3\n        /* \"#utility.yul\":14087:14091   */\n      dup3\n        /* \"#utility.yul\":14083:14099   */\n      shr\n        /* \"#utility.yul\":14062:14099   */\n      swap1\n      pop\n        /* \"#utility.yul\":13989:14106   */\n      swap3\n      swap2\n      pop\n      pop\n      jump\t// out\n        /* \"#utility.yul\":14112:14281   */\n    tag_131:\n        /* \"#utility.yul\":14156:14162   */\n      0x00\n        /* \"#utility.yul\":14189:14240   */\n      tag_280\n        /* \"#utility.yul\":14237:14238   */\n      0x00\n        /* \"#utility.yul\":14233:14239   */\n      not\n        /* \"#utility.yul\":14225:14230   */\n      dup5\n        /* \"#utility.yul\":14222:14223   */\n      0x08\n        /* \"#utility.yul\":14218:14231   */\n      mul\n        /* \"#utility.yul\":14189:14240   */\n      tag_130\n      jump\t// in\n    tag_280:\n        /* \"#utility.yul\":14185:14241   */\n      not\n        /* \"#utility.yul\":14270:14274   */\n      dup1\n        /* \"#utility.yul\":14264:14268   */\n      dup4\n        /* \"#utility.yul\":14260:14275   */\n      and\n        /* \"#utility.yul\":14250:14275   */\n      swap2\n      pop\n        /* \"#utility.yul\":14163:14281   */\n      pop\n        /* \"#utility.yul\":14112:14281   */\n      swap3\n      swap2\n      pop\n      pop\n      jump\t// out\n        /* \"#utility.yul\":14286:14581   */\n    tag_132:\n        /* \"#utility.yul\":14362:14366   */\n      0x00\n        /* \"#utility.yul\":14508:14537   */\n      tag_282\n        /* \"#utility.yul\":14533:14536   */\n      dup4\n        /* \"#utility.yul\":14527:14531   */\n      dup4\n        /* \"#utility.yul\":14508:14537   */\n      tag_131\n      jump\t// in\n    tag_282:\n        /* \"#utility.yul\":14500:14537   */\n      swap2\n      pop\n        /* \"#utility.yul\":14570:14573   */\n      dup3\n        /* \"#utility.yul\":14567:14568   */\n      0x02\n        /* \"#utility.yul\":14563:14574   */\n      mul\n        /* \"#utility.yul\":14557:14561   */\n      dup3\n        /* \"#utility.yul\":14554:14575   */\n      or\n        /* \"#utility.yul\":14546:14575   */\n      swap1\n      pop\n        /* \"#utility.yul\":14286:14581   */\n      swap3\n      swap2\n      pop\n      pop\n      jump\t// out\n        /* \"#utility.yul\":14586:15981   */\n    tag_64:\n        /* \"#utility.yul\":14703:14740   */\n      tag_284\n        /* \"#utility.yul\":14736:14739   */\n      dup3\n        /* \"#utility.yul\":14703:14740   */\n      tag_100\n      jump\t// in\n    tag_284:\n        /* \"#utility.yul\":14805:14823   */\n      0xffffffffffffffff\n        /* \"#utility.yul\":14797:14803   */\n      dup2\n        /* \"#utility.yul\":14794:14824   */\n      gt\n        /* \"#utility.yul\":14791:14847   */\n      iszero\n      tag_285\n      jumpi\n        /* \"#utility.yul\":14827:14845   */\n      tag_286\n      tag_108\n      jump\t// in\n    tag_286:\n        /* \"#utility.yul\":14791:14847   */\n    tag_285:\n        /* \"#utility.yul\":14871:14909   */\n      tag_287\n        /* \"#utility.yul\":14903:14907   */\n      dup3\n        /* \"#utility.yul\":14897:14908   */\n      sload\n        /* \"#utility.yul\":14871:14909   */\n      tag_28\n      jump\t// in\n    tag_287:\n        /* \"#utility.yul\":14956:15023   */\n      tag_288\n        /* \"#utility.yul\":15016:15022   */\n      dup3\n        /* \"#utility.yul\":15008:15014   */\n      dup3\n        /* \"#utility.yul\":15002:15006   */\n      dup6\n        /* \"#utility.yul\":14956:15023   */\n      tag_129\n      jump\t// in\n    tag_288:\n        /* \"#utility.yul\":15050:15051   */\n      0x00\n        /* \"#utility.yul\":15074:15078   */\n      0x20\n        /* \"#utility.yul\":15061:15078   */\n      swap1\n      pop\n        /* \"#utility.yul\":15106:15108   */\n      0x1f\n        /* \"#utility.yul\":15098:15104   */\n      dup4\n        /* \"#utility.yul\":15095:15109   */\n      gt\n        /* \"#utility.yul\":15123:15124   */\n      0x01\n        /* \"#utility.yul\":15118:15736   */\n      dup2\n      eq\n      tag_290\n      jumpi\n        /* \"#utility.yul\":15780:15781   */\n      0x00\n        /* \"#utility.yul\":15797:15803   */\n      dup5\n        /* \"#utility.yul\":15794:15871   */\n      iszero\n      tag_291\n      jumpi\n        /* \"#utility.yul\":15846:15855   */\n      dup3\n        /* \"#utility.yul\":15841:15844   */\n      dup8\n        /* \"#utility.yul\":15837:15856   */\n      add\n        /* \"#utility.yul\":15831:15857   */\n      mload\n        /* \"#utility.yul\":15822:15857   */\n      swap1\n      pop\n        /* \"#utility.yul\":15794:15871   */\n    tag_291:\n        /* \"#utility.yul\":15897:15964   */\n      tag_292\n        /* \"#utility.yul\":15957:15963   */\n      dup6\n        /* \"#utility.yul\":15950:15955   */\n      dup3\n        /* \"#utility.yul\":15897:15964   */\n      tag_132\n      jump\t// in\n    tag_292:\n        /* \"#utility.yul\":15891:15895   */\n      dup7\n        /* \"#utility.yul\":15884:15965   */\n      sstore\n        /* \"#utility.yul\":15753:15975   */\n      pop\n        /* \"#utility.yul\":15088:15975   */\n      jump(tag_289)\n        /* \"#utility.yul\":15118:15736   */\n    tag_290:\n        /* \"#utility.yul\":15170:15174   */\n      0x1f\n        /* \"#utility.yul\":15166:15175   */\n      not\n        /* \"#utility.yul\":15158:15164   */\n      dup5\n        /* \"#utility.yul\":15154:15176   */\n      and\n        /* \"#utility.yul\":15204:15241   */\n      tag_293\n        /* \"#utility.yul\":15236:15240   */\n      dup7\n        /* \"#utility.yul\":15204:15241   */\n      tag_118\n      jump\t// in\n    tag_293:\n        /* \"#utility.yul\":15263:15264   */\n      0x00\n        /* \"#utility.yul\":15277:15485   */\n    tag_294:\n        /* \"#utility.yul\":15291:15298   */\n      dup3\n        /* \"#utility.yul\":15288:15289   */\n      dup2\n        /* \"#utility.yul\":15285:15299   */\n      lt\n        /* \"#utility.yul\":15277:15485   */\n      iszero\n      tag_296\n      jumpi\n        /* \"#utility.yul\":15370:15379   */\n      dup5\n        /* \"#utility.yul\":15365:15368   */\n      dup10\n        /* \"#utility.yul\":15361:15380   */\n      add\n        /* \"#utility.yul\":15355:15381   */\n      mload\n        /* \"#utility.yul\":15347:15353   */\n      dup3\n        /* \"#utility.yul\":15340:15382   */\n      sstore\n        /* \"#utility.yul\":15421:15422   */\n      0x01\n        /* \"#utility.yul\":15413:15419   */\n      dup3\n        /* \"#utility.yul\":15409:15423   */\n      add\n        /* \"#utility.yul\":15399:15423   */\n      swap2\n      pop\n        /* \"#utility.yul\":15468:15470   */\n      0x20\n        /* \"#utility.yul\":15457:15466   */\n      dup6\n        /* \"#utility.yul\":15453:15471   */\n      add\n        /* \"#utility.yul\":15440:15471   */\n      swap5\n      pop\n        /* \"#utility.yul\":15314:15318   */\n      0x20\n        /* \"#utility.yul\":15311:15312   */\n      dup2\n        /* \"#utility.yul\":15307:15319   */\n      add\n        /* \"#utility.yul\":15302:15319   */\n      swap1\n      pop\n        /* \"#utility.yul\":15277:15485   */\n      jump(tag_294)\n    tag_296:\n        /* \"#utility.yul\":15513:15519   */\n      dup7\n        /* \"#utility.yul\":15504:15511   */\n      dup4\n        /* \"#utility.yul\":15501:15520   */\n      lt\n        /* \"#utility.yul\":15498:15677   */\n      iszero\n      tag_297\n      jumpi\n        /* \"#utility.yul\":15571:15580   */\n      dup5\n        /* \"#utility.yul\":15566:15569   */\n      dup10\n        /* \"#utility.yul\":15562:15581   */\n      add\n        /* \"#utility.yul\":15556:15582   */\n      mload\n        /* \"#utility.yul\":15614:15662   */\n      tag_298\n        /* \"#utility.yul\":15656:15660   */\n      0x1f\n        /* \"#utility.yul\":15648:15654   */\n      dup10\n        /* \"#utility.yul\":15644:15661   */\n      and\n        /* \"#utility.yul\":15633:15642   */\n      dup3\n        /* \"#utility.yul\":15614:15662   */\n      tag_131\n      jump\t// in\n    tag_298:\n        /* \"#utility.yul\":15606:15612   */\n      dup4\n        /* \"#utility.yul\":15599:15663   */\n      sstore\n        /* \"#utility.yul\":15521:15677   */\n      pop\n        /* \"#utility.yul\":15498:15677   */\n    tag_297:\n        /* \"#utility.yul\":15723:15724   */\n      0x01\n        /* \"#utility.yul\":15719:15720   */\n      0x02\n        /* \"#utility.yul\":15711:15717   */\n      dup9\n        /* \"#utility.yul\":15707:15721   */\n      mul\n        /* \"#utility.yul\":15703:15725   */\n      add\n        /* \"#utility.yul\":15697:15701   */\n      dup9\n        /* \"#utility.yul\":15690:15726   */\n      sstore\n        /* \"#utility.yul\":15125:15736   */\n      pop\n      pop\n      pop\n        /* \"#utility.yul\":15088:15975   */\n    tag_289:\n      pop\n        /* \"#utility.yul\":14678:15981   */\n      pop\n      pop\n      pop\n        /* \"#utility.yul\":14586:15981   */\n      pop\n      pop\n      jump\t// out\n        /* \"#utility.yul\":15987:16136   */\n    tag_133:\n        /* \"#utility.yul\":16036:16042   */\n      0x00\n        /* \"#utility.yul\":16070:16075   */\n      dup2\n        /* \"#utility.yul\":16064:16076   */\n      sload\n        /* \"#utility.yul\":16054:16076   */\n      swap1\n      pop\n        /* \"#utility.yul\":16096:16129   */\n      tag_300\n        /* \"#utility.yul\":16122:16128   */\n      dup2\n        /* \"#utility.yul\":16096:16129   */\n      tag_28\n      jump\t// in\n    tag_300:\n        /* \"#utility.yul\":16086:16129   */\n      swap1\n      pop\n        /* \"#utility.yul\":15987:16136   */\n      swap2\n      swap1\n      pop\n      jump\t// out\n        /* \"#utility.yul\":16142:17593   */\n    tag_70:\n        /* \"#utility.yul\":16253:16256   */\n      dup2\n        /* \"#utility.yul\":16247:16251   */\n      dup2\n        /* \"#utility.yul\":16244:16257   */\n      sub\n        /* \"#utility.yul\":16241:16267   */\n      tag_302\n      jumpi\n        /* \"#utility.yul\":16260:16265   */\n      pop\n      pop\n      jump(tag_301)\n        /* \"#utility.yul\":16241:16267   */\n    tag_302:\n        /* \"#utility.yul\":16291:16325   */\n      tag_303\n        /* \"#utility.yul\":16321:16324   */\n      dup3\n        /* \"#utility.yul\":16291:16325   */\n      tag_133\n      jump\t// in\n    tag_303:\n        /* \"#utility.yul\":16390:16408   */\n      0xffffffffffffffff\n        /* \"#utility.yul\":16382:16388   */\n      dup2\n        /* \"#utility.yul\":16379:16409   */\n      gt\n        /* \"#utility.yul\":16376:16432   */\n      iszero\n      tag_304\n      jumpi\n        /* \"#utility.yul\":16412:16430   */\n      tag_305\n      tag_108\n      jump\t// in\n    tag_305:\n        /* \"#utility.yul\":16376:16432   */\n    tag_304:\n        /* \"#utility.yul\":16456:16494   */\n      tag_306\n        /* \"#utility.yul\":16488:16492   */\n      dup3\n        /* \"#utility.yul\":16482:16493   */\n      sload\n        /* \"#utility.yul\":16456:16494   */\n      tag_28\n      jump\t// in\n    tag_306:\n        /* \"#utility.yul\":16541:16608   */\n      tag_307\n        /* \"#utility.yul\":16601:16607   */\n      dup3\n        /* \"#utility.yul\":16593:16599   */\n      dup3\n        /* \"#utility.yul\":16587:16591   */\n      dup6\n        /* \"#utility.yul\":16541:16608   */\n      tag_129\n      jump\t// in\n    tag_307:\n        /* \"#utility.yul\":16635:16636   */\n      0x00\n        /* \"#utility.yul\":16664:16666   */\n      0x1f\n        /* \"#utility.yul\":16656:16662   */\n      dup4\n        /* \"#utility.yul\":16653:16667   */\n      gt\n        /* \"#utility.yul\":16681:16682   */\n      0x01\n        /* \"#utility.yul\":16676:17348   */\n      dup2\n      eq\n      tag_309\n      jumpi\n        /* \"#utility.yul\":17392:17393   */\n      0x00\n        /* \"#utility.yul\":17409:17415   */\n      dup5\n        /* \"#utility.yul\":17406:17483   */\n      iszero\n      tag_310\n      jumpi\n        /* \"#utility.yul\":17458:17467   */\n      dup3\n        /* \"#utility.yul\":17453:17456   */\n      dup8\n        /* \"#utility.yul\":17449:17468   */\n      add\n        /* \"#utility.yul\":17443:17469   */\n      sload\n        /* \"#utility.yul\":17434:17469   */\n      swap1\n      pop\n        /* \"#utility.yul\":17406:17483   */\n    tag_310:\n        /* \"#utility.yul\":17509:17576   */\n      tag_311\n        /* \"#utility.yul\":17569:17575   */\n      dup6\n        /* \"#utility.yul\":17562:17567   */\n      dup3\n        /* \"#utility.yul\":17509:17576   */\n      tag_132\n      jump\t// in\n    tag_311:\n        /* \"#utility.yul\":17503:17507   */\n      dup7\n        /* \"#utility.yul\":17496:17577   */\n      sstore\n        /* \"#utility.yul\":17365:17587   */\n      pop\n        /* \"#utility.yul\":16646:17587   */\n      jump(tag_308)\n        /* \"#utility.yul\":16676:17348   */\n    tag_309:\n        /* \"#utility.yul\":16728:16732   */\n      0x1f\n        /* \"#utility.yul\":16724:16733   */\n      not\n        /* \"#utility.yul\":16716:16722   */\n      dup5\n        /* \"#utility.yul\":16712:16734   */\n      and\n        /* \"#utility.yul\":16754:16790   */\n      tag_312\n        /* \"#utility.yul\":16786:16789   */\n      dup8\n        /* \"#utility.yul\":16754:16790   */\n      tag_118\n      jump\t// in\n    tag_312:\n        /* \"#utility.yul\":16747:16790   */\n      swap7\n      pop\n        /* \"#utility.yul\":16817:16854   */\n      tag_313\n        /* \"#utility.yul\":16849:16853   */\n      dup7\n        /* \"#utility.yul\":16817:16854   */\n      tag_118\n      jump\t// in\n    tag_313:\n        /* \"#utility.yul\":16876:16877   */\n      0x00\n        /* \"#utility.yul\":16890:17097   */\n    tag_314:\n        /* \"#utility.yul\":16904:16911   */\n      dup3\n        /* \"#utility.yul\":16901:16902   */\n      dup2\n        /* \"#utility.yul\":16898:16912   */\n      lt\n        /* \"#utility.yul\":16890:17097   */\n      iszero\n      tag_316\n      jumpi\n        /* \"#utility.yul\":16983:16992   */\n      dup5\n        /* \"#utility.yul\":16978:16981   */\n      dup10\n        /* \"#utility.yul\":16974:16993   */\n      add\n        /* \"#utility.yul\":16968:16994   */\n      sload\n        /* \"#utility.yul\":16960:16966   */\n      dup3\n        /* \"#utility.yul\":16953:16995   */\n      sstore\n        /* \"#utility.yul\":17034:17035   */\n      0x01\n        /* \"#utility.yul\":17026:17032   */\n      dup3\n        /* \"#utility.yul\":17022:17036   */\n      add\n        /* \"#utility.yul\":17012:17036   */\n      swap2\n      pop\n        /* \"#utility.yul\":17081:17082   */\n      0x01\n        /* \"#utility.yul\":17070:17079   */\n      dup6\n        /* \"#utility.yul\":17066:17083   */\n      add\n        /* \"#utility.yul\":17053:17083   */\n      swap5\n      pop\n        /* \"#utility.yul\":16927:16931   */\n      0x20\n        /* \"#utility.yul\":16924:16925   */\n      dup2\n        /* \"#utility.yul\":16920:16932   */\n      add\n        /* \"#utility.yul\":16915:16932   */\n      swap1\n      pop\n        /* \"#utility.yul\":16890:17097   */\n      jump(tag_314)\n    tag_316:\n        /* \"#utility.yul\":17125:17131   */\n      dup7\n        /* \"#utility.yul\":17116:17123   */\n      dup4\n        /* \"#utility.yul\":17113:17132   */\n      lt\n        /* \"#utility.yul\":17110:17289   */\n      iszero\n      tag_317\n      jumpi\n        /* \"#utility.yul\":17183:17192   */\n      dup5\n        /* \"#utility.yul\":17178:17181   */\n      dup10\n        /* \"#utility.yul\":17174:17193   */\n      add\n        /* \"#utility.yul\":17168:17194   */\n      sload\n        /* \"#utility.yul\":17226:17274   */\n      tag_318\n        /* \"#utility.yul\":17268:17272   */\n      0x1f\n        /* \"#utility.yul\":17260:17266   */\n      dup10\n        /* \"#utility.yul\":17256:17273   */\n      and\n        /* \"#utility.yul\":17245:17254   */\n      dup3\n        /* \"#utility.yul\":17226:17274   */\n      tag_131\n      jump\t// in\n    tag_318:\n        /* \"#utility.yul\":17218:17224   */\n      dup4\n        /* \"#utility.yul\":17211:17275   */\n      sstore\n        /* \"#utility.yul\":17133:17289   */\n      pop\n        /* \"#utility.yul\":17110:17289   */\n    tag_317:\n        /* \"#utility.yul\":17335:17336   */\n      0x01\n        /* \"#utility.yul\":17331:17332   */\n      0x02\n        /* \"#utility.yul\":17323:17329   */\n      dup9\n        /* \"#utility.yul\":17319:17333   */\n      mul\n        /* \"#utility.yul\":17315:17337   */\n      add\n        /* \"#utility.yul\":17309:17313   */\n      dup9\n        /* \"#utility.yul\":17302:17338   */\n      sstore\n        /* \"#utility.yul\":16683:17348   */\n      pop\n      pop\n      pop\n        /* \"#utility.yul\":16646:17587   */\n    tag_308:\n      pop\n        /* \"#utility.yul\":16231:17593   */\n      pop\n      pop\n      pop\n        /* \"#utility.yul\":16142:17593   */\n      pop\n      pop\n    tag_301:\n      jump\t// out\n\n    auxdata: 0xa2646970667358221220d642819423ec82a4c53ad7dfa5f70f2c3892a6bfe6534481571642d5a697ebce64736f6c63430008160033\n}\n",
				"bytecode": {
					"linkReferences": {},
					"object": "608060405234801561000f575f80fd5b5073e6005cc724c2d44f0af23d663017a7e375dd7f3560115f6101000a81548173ffffffffffffffffffffffffffffffffffffffff021916908373ffffffffffffffffffffffffffffffffffffffff1602179055506112f0806100715f395ff3fe608060405234801561000f575f80fd5b506004361061004a575f3560e01c806365d4352a1461004e578063c909f8f714610086578063d734f9b7146100a2578063f5b31bfe146100d4575b5f80fd5b610068600480360381019061006391906109ad565b6100f0565b60405161007d99989796959493929190610a71565b60405180910390f35b6100a0600480360381019061009b9190610c4b565b6104fe565b005b6100bc60048036038101906100b791906109ad565b6106d6565b6040516100cb93929190610db0565b60405180910390f35b6100ee60048036038101906100e99190610df3565b610849565b005b60605f6060805f60605f60605f805f808c81526020019081526020015f20604051806101600160405290815f8201805461012990610ebc565b80601f016020809104026020016040519081016040528092919081815260200182805461015590610ebc565b80156101a05780601f10610177576101008083540402835291602001916101a0565b820191905f5260205f20905b81548152906001019060200180831161018357829003601f168201915b50505050508152602001600182015481526020016002820180546101c390610ebc565b80601f01602080910402602001604051908101604052809291908181526020018280546101ef90610ebc565b801561023a5780601f106102115761010080835404028352916020019161023a565b820191905f5260205f20905b81548152906001019060200180831161021d57829003601f168201915b5050505050815260200160038201805461025390610ebc565b80601f016020809104026020016040519081016040528092919081815260200182805461027f90610ebc565b80156102ca5780601f106102a1576101008083540402835291602001916102ca565b820191905f5260205f20905b8154815290600101906020018083116102ad57829003601f168201915b50505050508152602001600482015481526020016005820180546102ed90610ebc565b80601f016020809104026020016040519081016040528092919081815260200182805461031990610ebc565b80156103645780601f1061033b57610100808354040283529160200191610364565b820191905f5260205f20905b81548152906001019060200180831161034757829003601f168201915b505050505081526020016006820154815260200160078201805461038790610ebc565b80601f01602080910402602001604051908101604052809291908181526020018280546103b390610ebc565b80156103fe5780601f106103d5576101008083540402835291602001916103fe565b820191905f5260205f20905b8154815290600101906020018083116103e157829003601f168201915b505050505081526020016008820154815260200160098201548152602001600a820154815250509050805f015181602001518260400151600260030184608001518560a001518660c001518760e0015188610100015185805461046090610ebc565b80601f016020809104026020016040519081016040528092919081815260200182805461048c90610ebc565b80156104d75780601f106104ae576101008083540402835291602001916104d7565b820191905f5260205f20905b8154815290600101906020018083116104ba57829003601f168201915b50505050509550995099509950995099509950995099509950509193959799909294969850565b60115f9054906101000a900473ffffffffffffffffffffffffffffffffffffffff1673ffffffffffffffffffffffffffffffffffffffff163373ffffffffffffffffffffffffffffffffffffffff161461058d576040517f08c379a000000000000000000000000000000000000000000000000000000000815260040161058490610f36565b60405180910390fd5b8860025f01908161059e91906110f1565b5087600260010181905550866002800190816105ba91906110f1565b5085600260030190816105cd91906110f1565b508460026004018190555083600260050190816105ea91906110f1565b5082600260060181905550816002600701908161060791906110f1565b508060026008018190555060025f808c81526020019081526020015f205f8201815f01908161063691906111d5565b50600182015481600101556002820181600201908161065591906111d5565b506003820181600301908161066a91906111d5565b50600482015481600401556005820181600501908161068991906111d5565b5060068201548160060155600782018160070190816106a891906111d5565b506008820154816008015560098201548160090155600a82015481600a015590505050505050505050505050565b6060805f8060015f8681526020019081526020015f206040518060800160405290815f820154815260200160018201805461071090610ebc565b80601f016020809104026020016040519081016040528092919081815260200182805461073c90610ebc565b80156107875780601f1061075e57610100808354040283529160200191610787565b820191905f5260205f20905b81548152906001019060200180831161076a57829003601f168201915b505050505081526020016002820180546107a090610ebc565b80601f01602080910402602001604051908101604052809291908181526020018280546107cc90610ebc565b80156108175780601f106107ee57610100808354040283529160200191610817565b820191905f5260205f20905b8154815290600101906020018083116107fa57829003601f168201915b505050505081526020016003820154815250509050806020015181604001518260600151935093509350509193909250565b60115f9054906101000a900473ffffffffffffffffffffffffffffffffffffffff1673ffffffffffffffffffffffffffffffffffffffff163373ffffffffffffffffffffffffffffffffffffffff16146108d8576040517f08c379a00000000000000000000000000000000000000000000000000000000081526004016108cf90610f36565b60405180910390fd5b83600d5f018190555082600d60010190816108f391906110f1565b5081600d600201908161090691906110f1565b5080600d60030181905550600d60015f8681526020019081526020015f205f820154815f01556001820181600101908161094091906111d5565b506002820181600201908161095591906111d5565b506003820154816003015590505050505050565b5f604051905090565b5f80fd5b5f80fd5b5f819050919050565b61098c8161097a565b8114610996575f80fd5b50565b5f813590506109a781610983565b92915050565b5f602082840312156109c2576109c1610972565b5b5f6109cf84828501610999565b91505092915050565b5f81519050919050565b5f82825260208201905092915050565b5f5b83811015610a0f5780820151818401526020810190506109f4565b5f8484015250505050565b5f601f19601f8301169050919050565b5f610a34826109d8565b610a3e81856109e2565b9350610a4e8185602086016109f2565b610a5781610a1a565b840191505092915050565b610a6b8161097a565b82525050565b5f610120820190508181035f830152610a8a818c610a2a565b9050610a99602083018b610a62565b8181036040830152610aab818a610a2a565b90508181036060830152610abf8189610a2a565b9050610ace6080830188610a62565b81810360a0830152610ae08187610a2a565b9050610aef60c0830186610a62565b81810360e0830152610b018185610a2a565b9050610b11610100830184610a62565b9a9950505050505050505050565b5f80fd5b5f80fd5b7f4e487b71000000000000000000000000000000000000000000000000000000005f52604160045260245ffd5b610b5d82610a1a565b810181811067ffffffffffffffff82111715610b7c57610b7b610b27565b5b80604052505050565b5f610b8e610969565b9050610b9a8282610b54565b919050565b5f67ffffffffffffffff821115610bb957610bb8610b27565b5b610bc282610a1a565b9050602081019050919050565b828183375f83830152505050565b5f610bef610bea84610b9f565b610b85565b905082815260208101848484011115610c0b57610c0a610b23565b5b610c16848285610bcf565b509392505050565b5f82601f830112610c3257610c31610b1f565b5b8135610c42848260208601610bdd565b91505092915050565b5f805f805f805f805f806101408b8d031215610c6a57610c69610972565b5b5f610c778d828e01610999565b9a505060208b013567ffffffffffffffff811115610c9857610c97610976565b5b610ca48d828e01610c1e565b9950506040610cb58d828e01610999565b98505060608b013567ffffffffffffffff811115610cd657610cd5610976565b5b610ce28d828e01610c1e565b97505060808b013567ffffffffffffffff811115610d0357610d02610976565b5b610d0f8d828e01610c1e565b96505060a0610d208d828e01610999565b95505060c08b013567ffffffffffffffff811115610d4157610d40610976565b5b610d4d8d828e01610c1e565b94505060e0610d5e8d828e01610999565b9350506101008b013567ffffffffffffffff811115610d8057610d7f610976565b5b610d8c8d828e01610c1e565b925050610120610d9e8d828e01610999565b9150509295989b9194979a5092959850565b5f6060820190508181035f830152610dc88186610a2a565b90508181036020830152610ddc8185610a2a565b9050610deb6040830184610a62565b949350505050565b5f805f8060808587031215610e0b57610e0a610972565b5b5f610e1887828801610999565b945050602085013567ffffffffffffffff811115610e3957610e38610976565b5b610e4587828801610c1e565b935050604085013567ffffffffffffffff811115610e6657610e65610976565b5b610e7287828801610c1e565b9250506060610e8387828801610999565b91505092959194509250565b7f4e487b71000000000000000000000000000000000000000000000000000000005f52602260045260245ffd5b5f6002820490506001821680610ed357607f821691505b602082108103610ee657610ee5610e8f565b5b50919050565b7f416363657373206973206e6f7420616c6c6f77656400000000000000000000005f82015250565b5f610f206015836109e2565b9150610f2b82610eec565b602082019050919050565b5f6020820190508181035f830152610f4d81610f14565b9050919050565b5f819050815f5260205f209050919050565b5f6020601f8301049050919050565b5f82821b905092915050565b5f60088302610fb07fffffffffffffffffffffffffffffffffffffffffffffffffffffffffffffffff82610f75565b610fba8683610f75565b95508019841693508086168417925050509392505050565b5f819050919050565b5f610ff5610ff0610feb8461097a565b610fd2565b61097a565b9050919050565b5f819050919050565b61100e83610fdb565b61102261101a82610ffc565b848454610f81565b825550505050565b5f90565b61103661102a565b611041818484611005565b505050565b5b81811015611064576110595f8261102e565b600181019050611047565b5050565b601f8211156110a95761107a81610f54565b61108384610f66565b81016020851015611092578190505b6110a661109e85610f66565b830182611046565b50505b505050565b5f82821c905092915050565b5f6110c95f19846008026110ae565b1980831691505092915050565b5f6110e183836110ba565b9150826002028217905092915050565b6110fa826109d8565b67ffffffffffffffff81111561111357611112610b27565b5b61111d8254610ebc565b611128828285611068565b5f60209050601f831160018114611159575f8415611147578287015190505b61115185826110d6565b8655506111b8565b601f19841661116786610f54565b5f5b8281101561118e57848901518255600182019150602085019450602081019050611169565b868310156111ab57848901516111a7601f8916826110ba565b8355505b6001600288020188555050505b505050505050565b5f815490506111ce81610ebc565b9050919050565b8181036111e35750506112b8565b6111ec826111c0565b67ffffffffffffffff81111561120557611204610b27565b5b61120f8254610ebc565b61121a828285611068565b5f601f831160018114611247575f8415611235578287015490505b61123f85826110d6565b8655506112b1565b601f19841661125587610f54565b965061126086610f54565b5f5b8281101561128757848901548255600182019150600185019450602081019050611262565b868310156112a457848901546112a0601f8916826110ba565b8355505b6001600288020188555050505b5050505050505b56fea2646970667358221220d642819423ec82a4c53ad7dfa5f70f2c3892a6bfe6534481571642d5a697ebce64736f6c63430008160033",
					"opcodes": "PUSH1 0x80 PUSH1 0x40 MSTORE CALLVALUE DUP1 ISZERO PUSH2 0xF JUMPI PUSH0 DUP1 REVERT JUMPDEST POP PUSH20 0xE6005CC724C2D44F0AF23D663017A7E375DD7F35 PUSH1 0x11 PUSH0 PUSH2 0x100 EXP DUP2 SLOAD DUP2 PUSH20 0xFFFFFFFFFFFFFFFFFFFFFFFFFFFFFFFFFFFFFFFF MUL NOT AND SWAP1 DUP4 PUSH20 0xFFFFFFFFFFFFFFFFFFFFFFFFFFFFFFFFFFFFFFFF AND MUL OR SWAP1 SSTORE POP PUSH2 0x12F0 DUP1 PUSH2 0x71 PUSH0 CODECOPY PUSH0 RETURN INVALID PUSH1 0x80 PUSH1 0x40 MSTORE CALLVALUE DUP1 ISZERO PUSH2 0xF JUMPI PUSH0 DUP1 REVERT JUMPDEST POP PUSH1 0x4 CALLDATASIZE LT PUSH2 0x4A JUMPI PUSH0 CALLDATALOAD PUSH1 0xE0 SHR DUP1 PUSH4 0x65D4352A EQ PUSH2 0x4E JUMPI DUP1 PUSH4 0xC909F8F7 EQ PUSH2 0x86 JUMPI DUP1 PUSH4 0xD734F9B7 EQ PUSH2 0xA2 JUMPI DUP1 PUSH4 0xF5B31BFE EQ PUSH2 0xD4 JUMPI JUMPDEST PUSH0 DUP1 REVERT JUMPDEST PUSH2 0x68 PUSH1 0x4 DUP1 CALLDATASIZE SUB DUP2 ADD SWAP1 PUSH2 0x63 SWAP2 SWAP1 PUSH2 0x9AD JUMP JUMPDEST PUSH2 0xF0 JUMP JUMPDEST PUSH1 0x40 MLOAD PUSH2 0x7D SWAP10 SWAP9 SWAP8 SWAP7 SWAP6 SWAP5 SWAP4 SWAP3 SWAP2 SWAP1 PUSH2 0xA71 JUMP JUMPDEST PUSH1 0x40 MLOAD DUP1 SWAP2 SUB SWAP1 RETURN JUMPDEST PUSH2 0xA0 PUSH1 0x4 DUP1 CALLDATASIZE SUB DUP2 ADD SWAP1 PUSH2 0x9B SWAP2 SWAP1 PUSH2 0xC4B JUMP JUMPDEST PUSH2 0x4FE JUMP JUMPDEST STOP JUMPDEST PUSH2 0xBC PUSH1 0x4 DUP1 CALLDATASIZE SUB DUP2 ADD SWAP1 PUSH2 0xB7 SWAP2 SWAP1 PUSH2 0x9AD JUMP JUMPDEST PUSH2 0x6D6 JUMP JUMPDEST PUSH1 0x40 MLOAD PUSH2 0xCB SWAP4 SWAP3 SWAP2 SWAP1 PUSH2 0xDB0 JUMP JUMPDEST PUSH1 0x40 MLOAD DUP1 SWAP2 SUB SWAP1 RETURN JUMPDEST PUSH2 0xEE PUSH1 0x4 DUP1 CALLDATASIZE SUB DUP2 ADD SWAP1 PUSH2 0xE9 SWAP2 SWAP1 PUSH2 0xDF3 JUMP JUMPDEST PUSH2 0x849 JUMP JUMPDEST STOP JUMPDEST PUSH1 0x60 PUSH0 PUSH1 0x60 DUP1 PUSH0 PUSH1 0x60 PUSH0 PUSH1 0x60 PUSH0 DUP1 PUSH0 DUP1 DUP13 DUP2 MSTORE PUSH1 0x20 ADD SWAP1 DUP2 MSTORE PUSH1 0x20 ADD PUSH0 KECCAK256 PUSH1 0x40 MLOAD DUP1 PUSH2 0x160 ADD PUSH1 0x40 MSTORE SWAP1 DUP2 PUSH0 DUP3 ADD DUP1 SLOAD PUSH2 0x129 SWAP1 PUSH2 0xEBC JUMP JUMPDEST DUP1 PUSH1 0x1F ADD PUSH1 0x20 DUP1 SWAP2 DIV MUL PUSH1 0x20 ADD PUSH1 0x40 MLOAD SWAP1 DUP2 ADD PUSH1 0x40 MSTORE DUP1 SWAP3 SWAP2 SWAP1 DUP2 DUP2 MSTORE PUSH1 0x20 ADD DUP3 DUP1 SLOAD PUSH2 0x155 SWAP1 PUSH2 0xEBC JUMP JUMPDEST DUP1 ISZERO PUSH2 0x1A0 JUMPI DUP1 PUSH1 0x1F LT PUSH2 0x177 JUMPI PUSH2 0x100 DUP1 DUP4 SLOAD DIV MUL DUP4 MSTORE SWAP2 PUSH1 0x20 ADD SWAP2 PUSH2 0x1A0 JUMP JUMPDEST DUP3 ADD SWAP2 SWAP1 PUSH0 MSTORE PUSH1 0x20 PUSH0 KECCAK256 SWAP1 JUMPDEST DUP2 SLOAD DUP2 MSTORE SWAP1 PUSH1 0x1 ADD SWAP1 PUSH1 0x20 ADD DUP1 DUP4 GT PUSH2 0x183 JUMPI DUP3 SWAP1 SUB PUSH1 0x1F AND DUP3 ADD SWAP2 JUMPDEST POP POP POP POP POP DUP2 MSTORE PUSH1 0x20 ADD PUSH1 0x1 DUP3 ADD SLOAD DUP2 MSTORE PUSH1 0x20 ADD PUSH1 0x2 DUP3 ADD DUP1 SLOAD PUSH2 0x1C3 SWAP1 PUSH2 0xEBC JUMP JUMPDEST DUP1 PUSH1 0x1F ADD PUSH1 0x20 DUP1 SWAP2 DIV MUL PUSH1 0x20 ADD PUSH1 0x40 MLOAD SWAP1 DUP2 ADD PUSH1 0x40 MSTORE DUP1 SWAP3 SWAP2 SWAP1 DUP2 DUP2 MSTORE PUSH1 0x20 ADD DUP3 DUP1 SLOAD PUSH2 0x1EF SWAP1 PUSH2 0xEBC JUMP JUMPDEST DUP1 ISZERO PUSH2 0x23A JUMPI DUP1 PUSH1 0x1F LT PUSH2 0x211 JUMPI PUSH2 0x100 DUP1 DUP4 SLOAD DIV MUL DUP4 MSTORE SWAP2 PUSH1 0x20 ADD SWAP2 PUSH2 0x23A JUMP JUMPDEST DUP3 ADD SWAP2 SWAP1 PUSH0 MSTORE PUSH1 0x20 PUSH0 KECCAK256 SWAP1 JUMPDEST DUP2 SLOAD DUP2 MSTORE SWAP1 PUSH1 0x1 ADD SWAP1 PUSH1 0x20 ADD DUP1 DUP4 GT PUSH2 0x21D JUMPI DUP3 SWAP1 SUB PUSH1 0x1F AND DUP3 ADD SWAP2 JUMPDEST POP POP POP POP POP DUP2 MSTORE PUSH1 0x20 ADD PUSH1 0x3 DUP3 ADD DUP1 SLOAD PUSH2 0x253 SWAP1 PUSH2 0xEBC JUMP JUMPDEST DUP1 PUSH1 0x1F ADD PUSH1 0x20 DUP1 SWAP2 DIV MUL PUSH1 0x20 ADD PUSH1 0x40 MLOAD SWAP1 DUP2 ADD PUSH1 0x40 MSTORE DUP1 SWAP3 SWAP2 SWAP1 DUP2 DUP2 MSTORE PUSH1 0x20 ADD DUP3 DUP1 SLOAD PUSH2 0x27F SWAP1 PUSH2 0xEBC JUMP JUMPDEST DUP1 ISZERO PUSH2 0x2CA JUMPI DUP1 PUSH1 0x1F LT PUSH2 0x2A1 JUMPI PUSH2 0x100 DUP1 DUP4 SLOAD DIV MUL DUP4 MSTORE SWAP2 PUSH1 0x20 ADD SWAP2 PUSH2 0x2CA JUMP JUMPDEST DUP3 ADD SWAP2 SWAP1 PUSH0 MSTORE PUSH1 0x20 PUSH0 KECCAK256 SWAP1 JUMPDEST DUP2 SLOAD DUP2 MSTORE SWAP1 PUSH1 0x1 ADD SWAP1 PUSH1 0x20 ADD DUP1 DUP4 GT PUSH2 0x2AD JUMPI DUP3 SWAP1 SUB PUSH1 0x1F AND DUP3 ADD SWAP2 JUMPDEST POP POP POP POP POP DUP2 MSTORE PUSH1 0x20 ADD PUSH1 0x4 DUP3 ADD SLOAD DUP2 MSTORE PUSH1 0x20 ADD PUSH1 0x5 DUP3 ADD DUP1 SLOAD PUSH2 0x2ED SWAP1 PUSH2 0xEBC JUMP JUMPDEST DUP1 PUSH1 0x1F ADD PUSH1 0x20 DUP1 SWAP2 DIV MUL PUSH1 0x20 ADD PUSH1 0x40 MLOAD SWAP1 DUP2 ADD PUSH1 0x40 MSTORE DUP1 SWAP3 SWAP2 SWAP1 DUP2 DUP2 MSTORE PUSH1 0x20 ADD DUP3 DUP1 SLOAD PUSH2 0x319 SWAP1 PUSH2 0xEBC JUMP JUMPDEST DUP1 ISZERO PUSH2 0x364 JUMPI DUP1 PUSH1 0x1F LT PUSH2 0x33B JUMPI PUSH2 0x100 DUP1 DUP4 SLOAD DIV MUL DUP4 MSTORE SWAP2 PUSH1 0x20 ADD SWAP2 PUSH2 0x364 JUMP JUMPDEST DUP3 ADD SWAP2 SWAP1 PUSH0 MSTORE PUSH1 0x20 PUSH0 KECCAK256 SWAP1 JUMPDEST DUP2 SLOAD DUP2 MSTORE SWAP1 PUSH1 0x1 ADD SWAP1 PUSH1 0x20 ADD DUP1 DUP4 GT PUSH2 0x347 JUMPI DUP3 SWAP1 SUB PUSH1 0x1F AND DUP3 ADD SWAP2 JUMPDEST POP POP POP POP POP DUP2 MSTORE PUSH1 0x20 ADD PUSH1 0x6 DUP3 ADD SLOAD DUP2 MSTORE PUSH1 0x20 ADD PUSH1 0x7 DUP3 ADD DUP1 SLOAD PUSH2 0x387 SWAP1 PUSH2 0xEBC JUMP JUMPDEST DUP1 PUSH1 0x1F ADD PUSH1 0x20 DUP1 SWAP2 DIV MUL PUSH1 0x20 ADD PUSH1 0x40 MLOAD SWAP1 DUP2 ADD PUSH1 0x40 MSTORE DUP1 SWAP3 SWAP2 SWAP1 DUP2 DUP2 MSTORE PUSH1 0x20 ADD DUP3 DUP1 SLOAD PUSH2 0x3B3 SWAP1 PUSH2 0xEBC JUMP JUMPDEST DUP1 ISZERO PUSH2 0x3FE JUMPI DUP1 PUSH1 0x1F LT PUSH2 0x3D5 JUMPI PUSH2 0x100 DUP1 DUP4 SLOAD DIV MUL DUP4 MSTORE SWAP2 PUSH1 0x20 ADD SWAP2 PUSH2 0x3FE JUMP JUMPDEST DUP3 ADD SWAP2 SWAP1 PUSH0 MSTORE PUSH1 0x20 PUSH0 KECCAK256 SWAP1 JUMPDEST DUP2 SLOAD DUP2 MSTORE SWAP1 PUSH1 0x1 ADD SWAP1 PUSH1 0x20 ADD DUP1 DUP4 GT PUSH2 0x3E1 JUMPI DUP3 SWAP1 SUB PUSH1 0x1F AND DUP3 ADD SWAP2 JUMPDEST POP POP POP POP POP DUP2 MSTORE PUSH1 0x20 ADD PUSH1 0x8 DUP3 ADD SLOAD DUP2 MSTORE PUSH1 0x20 ADD PUSH1 0x9 DUP3 ADD SLOAD DUP2 MSTORE PUSH1 0x20 ADD PUSH1 0xA DUP3 ADD SLOAD DUP2 MSTORE POP POP SWAP1 POP DUP1 PUSH0 ADD MLOAD DUP2 PUSH1 0x20 ADD MLOAD DUP3 PUSH1 0x40 ADD MLOAD PUSH1 0x2 PUSH1 0x3 ADD DUP5 PUSH1 0x80 ADD MLOAD DUP6 PUSH1 0xA0 ADD MLOAD DUP7 PUSH1 0xC0 ADD MLOAD DUP8 PUSH1 0xE0 ADD MLOAD DUP9 PUSH2 0x100 ADD MLOAD DUP6 DUP1 SLOAD PUSH2 0x460 SWAP1 PUSH2 0xEBC JUMP JUMPDEST DUP1 PUSH1 0x1F ADD PUSH1 0x20 DUP1 SWAP2 DIV MUL PUSH1 0x20 ADD PUSH1 0x40 MLOAD SWAP1 DUP2 ADD PUSH1 0x40 MSTORE DUP1 SWAP3 SWAP2 SWAP1 DUP2 DUP2 MSTORE PUSH1 0x20 ADD DUP3 DUP1 SLOAD PUSH2 0x48C SWAP1 PUSH2 0xEBC JUMP JUMPDEST DUP1 ISZERO PUSH2 0x4D7 JUMPI DUP1 PUSH1 0x1F LT PUSH2 0x4AE JUMPI PUSH2 0x100 DUP1 DUP4 SLOAD DIV MUL DUP4 MSTORE SWAP2 PUSH1 0x20 ADD SWAP2 PUSH2 0x4D7 JUMP JUMPDEST DUP3 ADD SWAP2 SWAP1 PUSH0 MSTORE PUSH1 0x20 PUSH0 KECCAK256 SWAP1 JUMPDEST DUP2 SLOAD DUP2 MSTORE SWAP1 PUSH1 0x1 ADD SWAP1 PUSH1 0x20 ADD DUP1 DUP4 GT PUSH2 0x4BA JUMPI DUP3 SWAP1 SUB PUSH1 0x1F AND DUP3 ADD SWAP2 JUMPDEST POP POP POP POP POP SWAP6 POP SWAP10 POP SWAP10 POP SWAP10 POP SWAP10 POP SWAP10 POP SWAP10 POP SWAP10 POP SWAP10 POP SWAP10 POP POP SWAP2 SWAP4 SWAP6 SWAP8 SWAP10 SWAP1 SWAP3 SWAP5 SWAP7 SWAP9 POP JUMP JUMPDEST PUSH1 0x11 PUSH0 SWAP1 SLOAD SWAP1 PUSH2 0x100 EXP SWAP1 DIV PUSH20 0xFFFFFFFFFFFFFFFFFFFFFFFFFFFFFFFFFFFFFFFF AND PUSH20 0xFFFFFFFFFFFFFFFFFFFFFFFFFFFFFFFFFFFFFFFF AND CALLER PUSH20 0xFFFFFFFFFFFFFFFFFFFFFFFFFFFFFFFFFFFFFFFF AND EQ PUSH2 0x58D JUMPI PUSH1 0x40 MLOAD PUSH32 0x8C379A000000000000000000000000000000000000000000000000000000000 DUP2 MSTORE PUSH1 0x4 ADD PUSH2 0x584 SWAP1 PUSH2 0xF36 JUMP JUMPDEST PUSH1 0x40 MLOAD DUP1 SWAP2 SUB SWAP1 REVERT JUMPDEST DUP9 PUSH1 0x2 PUSH0 ADD SWAP1 DUP2 PUSH2 0x59E SWAP2 SWAP1 PUSH2 0x10F1 JUMP JUMPDEST POP DUP8 PUSH1 0x2 PUSH1 0x1 ADD DUP2 SWAP1 SSTORE POP DUP7 PUSH1 0x2 DUP1 ADD SWAP1 DUP2 PUSH2 0x5BA SWAP2 SWAP1 PUSH2 0x10F1 JUMP JUMPDEST POP DUP6 PUSH1 0x2 PUSH1 0x3 ADD SWAP1 DUP2 PUSH2 0x5CD SWAP2 SWAP1 PUSH2 0x10F1 JUMP JUMPDEST POP DUP5 PUSH1 0x2 PUSH1 0x4 ADD DUP2 SWAP1 SSTORE POP DUP4 PUSH1 0x2 PUSH1 0x5 ADD SWAP1 DUP2 PUSH2 0x5EA SWAP2 SWAP1 PUSH2 0x10F1 JUMP JUMPDEST POP DUP3 PUSH1 0x2 PUSH1 0x6 ADD DUP2 SWAP1 SSTORE POP DUP2 PUSH1 0x2 PUSH1 0x7 ADD SWAP1 DUP2 PUSH2 0x607 SWAP2 SWAP1 PUSH2 0x10F1 JUMP JUMPDEST POP DUP1 PUSH1 0x2 PUSH1 0x8 ADD DUP2 SWAP1 SSTORE POP PUSH1 0x2 PUSH0 DUP1 DUP13 DUP2 MSTORE PUSH1 0x20 ADD SWAP1 DUP2 MSTORE PUSH1 0x20 ADD PUSH0 KECCAK256 PUSH0 DUP3 ADD DUP2 PUSH0 ADD SWAP1 DUP2 PUSH2 0x636 SWAP2 SWAP1 PUSH2 0x11D5 JUMP JUMPDEST POP PUSH1 0x1 DUP3 ADD SLOAD DUP2 PUSH1 0x1 ADD SSTORE PUSH1 0x2 DUP3 ADD DUP2 PUSH1 0x2 ADD SWAP1 DUP2 PUSH2 0x655 SWAP2 SWAP1 PUSH2 0x11D5 JUMP JUMPDEST POP PUSH1 0x3 DUP3 ADD DUP2 PUSH1 0x3 ADD SWAP1 DUP2 PUSH2 0x66A SWAP2 SWAP1 PUSH2 0x11D5 JUMP JUMPDEST POP PUSH1 0x4 DUP3 ADD SLOAD DUP2 PUSH1 0x4 ADD SSTORE PUSH1 0x5 DUP3 ADD DUP2 PUSH1 0x5 ADD SWAP1 DUP2 PUSH2 0x689 SWAP2 SWAP1 PUSH2 0x11D5 JUMP JUMPDEST POP PUSH1 0x6 DUP3 ADD SLOAD DUP2 PUSH1 0x6 ADD SSTORE PUSH1 0x7 DUP3 ADD DUP2 PUSH1 0x7 ADD SWAP1 DUP2 PUSH2 0x6A8 SWAP2 SWAP1 PUSH2 0x11D5 JUMP JUMPDEST POP PUSH1 0x8 DUP3 ADD SLOAD DUP2 PUSH1 0x8 ADD SSTORE PUSH1 0x9 DUP3 ADD SLOAD DUP2 PUSH1 0x9 ADD SSTORE PUSH1 0xA DUP3 ADD SLOAD DUP2 PUSH1 0xA ADD SSTORE SWAP1 POP POP POP POP POP POP POP POP POP POP POP POP JUMP JUMPDEST PUSH1 0x60 DUP1 PUSH0 DUP1 PUSH1 0x1 PUSH0 DUP7 DUP2 MSTORE PUSH1 0x20 ADD SWAP1 DUP2 MSTORE PUSH1 0x20 ADD PUSH0 KECCAK256 PUSH1 0x40 MLOAD DUP1 PUSH1 0x80 ADD PUSH1 0x40 MSTORE SWAP1 DUP2 PUSH0 DUP3 ADD SLOAD DUP2 MSTORE PUSH1 0x20 ADD PUSH1 0x1 DUP3 ADD DUP1 SLOAD PUSH2 0x710 SWAP1 PUSH2 0xEBC JUMP JUMPDEST DUP1 PUSH1 0x1F ADD PUSH1 0x20 DUP1 SWAP2 DIV MUL PUSH1 0x20 ADD PUSH1 0x40 MLOAD SWAP1 DUP2 ADD PUSH1 0x40 MSTORE DUP1 SWAP3 SWAP2 SWAP1 DUP2 DUP2 MSTORE PUSH1 0x20 ADD DUP3 DUP1 SLOAD PUSH2 0x73C SWAP1 PUSH2 0xEBC JUMP JUMPDEST DUP1 ISZERO PUSH2 0x787 JUMPI DUP1 PUSH1 0x1F LT PUSH2 0x75E JUMPI PUSH2 0x100 DUP1 DUP4 SLOAD DIV MUL DUP4 MSTORE SWAP2 PUSH1 0x20 ADD SWAP2 PUSH2 0x787 JUMP JUMPDEST DUP3 ADD SWAP2 SWAP1 PUSH0 MSTORE PUSH1 0x20 PUSH0 KECCAK256 SWAP1 JUMPDEST DUP2 SLOAD DUP2 MSTORE SWAP1 PUSH1 0x1 ADD SWAP1 PUSH1 0x20 ADD DUP1 DUP4 GT PUSH2 0x76A JUMPI DUP3 SWAP1 SUB PUSH1 0x1F AND DUP3 ADD SWAP2 JUMPDEST POP POP POP POP POP DUP2 MSTORE PUSH1 0x20 ADD PUSH1 0x2 DUP3 ADD DUP1 SLOAD PUSH2 0x7A0 SWAP1 PUSH2 0xEBC JUMP JUMPDEST DUP1 PUSH1 0x1F ADD PUSH1 0x20 DUP1 SWAP2 DIV MUL PUSH1 0x20 ADD PUSH1 0x40 MLOAD SWAP1 DUP2 ADD PUSH1 0x40 MSTORE DUP1 SWAP3 SWAP2 SWAP1 DUP2 DUP2 MSTORE PUSH1 0x20 ADD DUP3 DUP1 SLOAD PUSH2 0x7CC SWAP1 PUSH2 0xEBC JUMP JUMPDEST DUP1 ISZERO PUSH2 0x817 JUMPI DUP1 PUSH1 0x1F LT PUSH2 0x7EE JUMPI PUSH2 0x100 DUP1 DUP4 SLOAD DIV MUL DUP4 MSTORE SWAP2 PUSH1 0x20 ADD SWAP2 PUSH2 0x817 JUMP JUMPDEST DUP3 ADD SWAP2 SWAP1 PUSH0 MSTORE PUSH1 0x20 PUSH0 KECCAK256 SWAP1 JUMPDEST DUP2 SLOAD DUP2 MSTORE SWAP1 PUSH1 0x1 ADD SWAP1 PUSH1 0x20 ADD DUP1 DUP4 GT PUSH2 0x7FA JUMPI DUP3 SWAP1 SUB PUSH1 0x1F AND DUP3 ADD SWAP2 JUMPDEST POP POP POP POP POP DUP2 MSTORE PUSH1 0x20 ADD PUSH1 0x3 DUP3 ADD SLOAD DUP2 MSTORE POP POP SWAP1 POP DUP1 PUSH1 0x20 ADD MLOAD DUP2 PUSH1 0x40 ADD MLOAD DUP3 PUSH1 0x60 ADD MLOAD SWAP4 POP SWAP4 POP SWAP4 POP POP SWAP2 SWAP4 SWAP1 SWAP3 POP JUMP JUMPDEST PUSH1 0x11 PUSH0 SWAP1 SLOAD SWAP1 PUSH2 0x100 EXP SWAP1 DIV PUSH20 0xFFFFFFFFFFFFFFFFFFFFFFFFFFFFFFFFFFFFFFFF AND PUSH20 0xFFFFFFFFFFFFFFFFFFFFFFFFFFFFFFFFFFFFFFFF AND CALLER PUSH20 0xFFFFFFFFFFFFFFFFFFFFFFFFFFFFFFFFFFFFFFFF AND EQ PUSH2 0x8D8 JUMPI PUSH1 0x40 MLOAD PUSH32 0x8C379A000000000000000000000000000000000000000000000000000000000 DUP2 MSTORE PUSH1 0x4 ADD PUSH2 0x8CF SWAP1 PUSH2 0xF36 JUMP JUMPDEST PUSH1 0x40 MLOAD DUP1 SWAP2 SUB SWAP1 REVERT JUMPDEST DUP4 PUSH1 0xD PUSH0 ADD DUP2 SWAP1 SSTORE POP DUP3 PUSH1 0xD PUSH1 0x1 ADD SWAP1 DUP2 PUSH2 0x8F3 SWAP2 SWAP1 PUSH2 0x10F1 JUMP JUMPDEST POP DUP2 PUSH1 0xD PUSH1 0x2 ADD SWAP1 DUP2 PUSH2 0x906 SWAP2 SWAP1 PUSH2 0x10F1 JUMP JUMPDEST POP DUP1 PUSH1 0xD PUSH1 0x3 ADD DUP2 SWAP1 SSTORE POP PUSH1 0xD PUSH1 0x1 PUSH0 DUP7 DUP2 MSTORE PUSH1 0x20 ADD SWAP1 DUP2 MSTORE PUSH1 0x20 ADD PUSH0 KECCAK256 PUSH0 DUP3 ADD SLOAD DUP2 PUSH0 ADD SSTORE PUSH1 0x1 DUP3 ADD DUP2 PUSH1 0x1 ADD SWAP1 DUP2 PUSH2 0x940 SWAP2 SWAP1 PUSH2 0x11D5 JUMP JUMPDEST POP PUSH1 0x2 DUP3 ADD DUP2 PUSH1 0x2 ADD SWAP1 DUP2 PUSH2 0x955 SWAP2 SWAP1 PUSH2 0x11D5 JUMP JUMPDEST POP PUSH1 0x3 DUP3 ADD SLOAD DUP2 PUSH1 0x3 ADD SSTORE SWAP1 POP POP POP POP POP POP JUMP JUMPDEST PUSH0 PUSH1 0x40 MLOAD SWAP1 POP SWAP1 JUMP JUMPDEST PUSH0 DUP1 REVERT JUMPDEST PUSH0 DUP1 REVERT JUMPDEST PUSH0 DUP2 SWAP1 POP SWAP2 SWAP1 POP JUMP JUMPDEST PUSH2 0x98C DUP2 PUSH2 0x97A JUMP JUMPDEST DUP2 EQ PUSH2 0x996 JUMPI PUSH0 DUP1 REVERT JUMPDEST POP JUMP JUMPDEST PUSH0 DUP2 CALLDATALOAD SWAP1 POP PUSH2 0x9A7 DUP2 PUSH2 0x983 JUMP JUMPDEST SWAP3 SWAP2 POP POP JUMP JUMPDEST PUSH0 PUSH1 0x20 DUP3 DUP5 SUB SLT ISZERO PUSH2 0x9C2 JUMPI PUSH2 0x9C1 PUSH2 0x972 JUMP JUMPDEST JUMPDEST PUSH0 PUSH2 0x9CF DUP5 DUP3 DUP6 ADD PUSH2 0x999 JUMP JUMPDEST SWAP2 POP POP SWAP3 SWAP2 POP POP JUMP JUMPDEST PUSH0 DUP2 MLOAD SWAP1 POP SWAP2 SWAP1 POP JUMP JUMPDEST PUSH0 DUP3 DUP3 MSTORE PUSH1 0x20 DUP3 ADD SWAP1 POP SWAP3 SWAP2 POP POP JUMP JUMPDEST PUSH0 JUMPDEST DUP4 DUP2 LT ISZERO PUSH2 0xA0F JUMPI DUP1 DUP3 ADD MLOAD DUP2 DUP5 ADD MSTORE PUSH1 0x20 DUP2 ADD SWAP1 POP PUSH2 0x9F4 JUMP JUMPDEST PUSH0 DUP5 DUP5 ADD MSTORE POP POP POP POP JUMP JUMPDEST PUSH0 PUSH1 0x1F NOT PUSH1 0x1F DUP4 ADD AND SWAP1 POP SWAP2 SWAP1 POP JUMP JUMPDEST PUSH0 PUSH2 0xA34 DUP3 PUSH2 0x9D8 JUMP JUMPDEST PUSH2 0xA3E DUP2 DUP6 PUSH2 0x9E2 JUMP JUMPDEST SWAP4 POP PUSH2 0xA4E DUP2 DUP6 PUSH1 0x20 DUP7 ADD PUSH2 0x9F2 JUMP JUMPDEST PUSH2 0xA57 DUP2 PUSH2 0xA1A JUMP JUMPDEST DUP5 ADD SWAP2 POP POP SWAP3 SWAP2 POP POP JUMP JUMPDEST PUSH2 0xA6B DUP2 PUSH2 0x97A JUMP JUMPDEST DUP3 MSTORE POP POP JUMP JUMPDEST PUSH0 PUSH2 0x120 DUP3 ADD SWAP1 POP DUP2 DUP2 SUB PUSH0 DUP4 ADD MSTORE PUSH2 0xA8A DUP2 DUP13 PUSH2 0xA2A JUMP JUMPDEST SWAP1 POP PUSH2 0xA99 PUSH1 0x20 DUP4 ADD DUP12 PUSH2 0xA62 JUMP JUMPDEST DUP2 DUP2 SUB PUSH1 0x40 DUP4 ADD MSTORE PUSH2 0xAAB DUP2 DUP11 PUSH2 0xA2A JUMP JUMPDEST SWAP1 POP DUP2 DUP2 SUB PUSH1 0x60 DUP4 ADD MSTORE PUSH2 0xABF DUP2 DUP10 PUSH2 0xA2A JUMP JUMPDEST SWAP1 POP PUSH2 0xACE PUSH1 0x80 DUP4 ADD DUP9 PUSH2 0xA62 JUMP JUMPDEST DUP2 DUP2 SUB PUSH1 0xA0 DUP4 ADD MSTORE PUSH2 0xAE0 DUP2 DUP8 PUSH2 0xA2A JUMP JUMPDEST SWAP1 POP PUSH2 0xAEF PUSH1 0xC0 DUP4 ADD DUP7 PUSH2 0xA62 JUMP JUMPDEST DUP2 DUP2 SUB PUSH1 0xE0 DUP4 ADD MSTORE PUSH2 0xB01 DUP2 DUP6 PUSH2 0xA2A JUMP JUMPDEST SWAP1 POP PUSH2 0xB11 PUSH2 0x100 DUP4 ADD DUP5 PUSH2 0xA62 JUMP JUMPDEST SWAP11 SWAP10 POP POP POP POP POP POP POP POP POP POP JUMP JUMPDEST PUSH0 DUP1 REVERT JUMPDEST PUSH0 DUP1 REVERT JUMPDEST PUSH32 0x4E487B7100000000000000000000000000000000000000000000000000000000 PUSH0 MSTORE PUSH1 0x41 PUSH1 0x4 MSTORE PUSH1 0x24 PUSH0 REVERT JUMPDEST PUSH2 0xB5D DUP3 PUSH2 0xA1A JUMP JUMPDEST DUP2 ADD DUP2 DUP2 LT PUSH8 0xFFFFFFFFFFFFFFFF DUP3 GT OR ISZERO PUSH2 0xB7C JUMPI PUSH2 0xB7B PUSH2 0xB27 JUMP JUMPDEST JUMPDEST DUP1 PUSH1 0x40 MSTORE POP POP POP JUMP JUMPDEST PUSH0 PUSH2 0xB8E PUSH2 0x969 JUMP JUMPDEST SWAP1 POP PUSH2 0xB9A DUP3 DUP3 PUSH2 0xB54 JUMP JUMPDEST SWAP2 SWAP1 POP JUMP JUMPDEST PUSH0 PUSH8 0xFFFFFFFFFFFFFFFF DUP3 GT ISZERO PUSH2 0xBB9 JUMPI PUSH2 0xBB8 PUSH2 0xB27 JUMP JUMPDEST JUMPDEST PUSH2 0xBC2 DUP3 PUSH2 0xA1A JUMP JUMPDEST SWAP1 POP PUSH1 0x20 DUP2 ADD SWAP1 POP SWAP2 SWAP1 POP JUMP JUMPDEST DUP3 DUP2 DUP4 CALLDATACOPY PUSH0 DUP4 DUP4 ADD MSTORE POP POP POP JUMP JUMPDEST PUSH0 PUSH2 0xBEF PUSH2 0xBEA DUP5 PUSH2 0xB9F JUMP JUMPDEST PUSH2 0xB85 JUMP JUMPDEST SWAP1 POP DUP3 DUP2 MSTORE PUSH1 0x20 DUP2 ADD DUP5 DUP5 DUP5 ADD GT ISZERO PUSH2 0xC0B JUMPI PUSH2 0xC0A PUSH2 0xB23 JUMP JUMPDEST JUMPDEST PUSH2 0xC16 DUP5 DUP3 DUP6 PUSH2 0xBCF JUMP JUMPDEST POP SWAP4 SWAP3 POP POP POP JUMP JUMPDEST PUSH0 DUP3 PUSH1 0x1F DUP4 ADD SLT PUSH2 0xC32 JUMPI PUSH2 0xC31 PUSH2 0xB1F JUMP JUMPDEST JUMPDEST DUP2 CALLDATALOAD PUSH2 0xC42 DUP5 DUP3 PUSH1 0x20 DUP7 ADD PUSH2 0xBDD JUMP JUMPDEST SWAP2 POP POP SWAP3 SWAP2 POP POP JUMP JUMPDEST PUSH0 DUP1 PUSH0 DUP1 PUSH0 DUP1 PUSH0 DUP1 PUSH0 DUP1 PUSH2 0x140 DUP12 DUP14 SUB SLT ISZERO PUSH2 0xC6A JUMPI PUSH2 0xC69 PUSH2 0x972 JUMP JUMPDEST JUMPDEST PUSH0 PUSH2 0xC77 DUP14 DUP3 DUP15 ADD PUSH2 0x999 JUMP JUMPDEST SWAP11 POP POP PUSH1 0x20 DUP12 ADD CALLDATALOAD PUSH8 0xFFFFFFFFFFFFFFFF DUP2 GT ISZERO PUSH2 0xC98 JUMPI PUSH2 0xC97 PUSH2 0x976 JUMP JUMPDEST JUMPDEST PUSH2 0xCA4 DUP14 DUP3 DUP15 ADD PUSH2 0xC1E JUMP JUMPDEST SWAP10 POP POP PUSH1 0x40 PUSH2 0xCB5 DUP14 DUP3 DUP15 ADD PUSH2 0x999 JUMP JUMPDEST SWAP9 POP POP PUSH1 0x60 DUP12 ADD CALLDATALOAD PUSH8 0xFFFFFFFFFFFFFFFF DUP2 GT ISZERO PUSH2 0xCD6 JUMPI PUSH2 0xCD5 PUSH2 0x976 JUMP JUMPDEST JUMPDEST PUSH2 0xCE2 DUP14 DUP3 DUP15 ADD PUSH2 0xC1E JUMP JUMPDEST SWAP8 POP POP PUSH1 0x80 DUP12 ADD CALLDATALOAD PUSH8 0xFFFFFFFFFFFFFFFF DUP2 GT ISZERO PUSH2 0xD03 JUMPI PUSH2 0xD02 PUSH2 0x976 JUMP JUMPDEST JUMPDEST PUSH2 0xD0F DUP14 DUP3 DUP15 ADD PUSH2 0xC1E JUMP JUMPDEST SWAP7 POP POP PUSH1 0xA0 PUSH2 0xD20 DUP14 DUP3 DUP15 ADD PUSH2 0x999 JUMP JUMPDEST SWAP6 POP POP PUSH1 0xC0 DUP12 ADD CALLDATALOAD PUSH8 0xFFFFFFFFFFFFFFFF DUP2 GT ISZERO PUSH2 0xD41 JUMPI PUSH2 0xD40 PUSH2 0x976 JUMP JUMPDEST JUMPDEST PUSH2 0xD4D DUP14 DUP3 DUP15 ADD PUSH2 0xC1E JUMP JUMPDEST SWAP5 POP POP PUSH1 0xE0 PUSH2 0xD5E DUP14 DUP3 DUP15 ADD PUSH2 0x999 JUMP JUMPDEST SWAP4 POP POP PUSH2 0x100 DUP12 ADD CALLDATALOAD PUSH8 0xFFFFFFFFFFFFFFFF DUP2 GT ISZERO PUSH2 0xD80 JUMPI PUSH2 0xD7F PUSH2 0x976 JUMP JUMPDEST JUMPDEST PUSH2 0xD8C DUP14 DUP3 DUP15 ADD PUSH2 0xC1E JUMP JUMPDEST SWAP3 POP POP PUSH2 0x120 PUSH2 0xD9E DUP14 DUP3 DUP15 ADD PUSH2 0x999 JUMP JUMPDEST SWAP2 POP POP SWAP3 SWAP6 SWAP9 SWAP12 SWAP2 SWAP5 SWAP8 SWAP11 POP SWAP3 SWAP6 SWAP9 POP JUMP JUMPDEST PUSH0 PUSH1 0x60 DUP3 ADD SWAP1 POP DUP2 DUP2 SUB PUSH0 DUP4 ADD MSTORE PUSH2 0xDC8 DUP2 DUP7 PUSH2 0xA2A JUMP JUMPDEST SWAP1 POP DUP2 DUP2 SUB PUSH1 0x20 DUP4 ADD MSTORE PUSH2 0xDDC DUP2 DUP6 PUSH2 0xA2A JUMP JUMPDEST SWAP1 POP PUSH2 0xDEB PUSH1 0x40 DUP4 ADD DUP5 PUSH2 0xA62 JUMP JUMPDEST SWAP5 SWAP4 POP POP POP POP JUMP JUMPDEST PUSH0 DUP1 PUSH0 DUP1 PUSH1 0x80 DUP6 DUP8 SUB SLT ISZERO PUSH2 0xE0B JUMPI PUSH2 0xE0A PUSH2 0x972 JUMP JUMPDEST JUMPDEST PUSH0 PUSH2 0xE18 DUP8 DUP3 DUP9 ADD PUSH2 0x999 JUMP JUMPDEST SWAP5 POP POP PUSH1 0x20 DUP6 ADD CALLDATALOAD PUSH8 0xFFFFFFFFFFFFFFFF DUP2 GT ISZERO PUSH2 0xE39 JUMPI PUSH2 0xE38 PUSH2 0x976 JUMP JUMPDEST JUMPDEST PUSH2 0xE45 DUP8 DUP3 DUP9 ADD PUSH2 0xC1E JUMP JUMPDEST SWAP4 POP POP PUSH1 0x40 DUP6 ADD CALLDATALOAD PUSH8 0xFFFFFFFFFFFFFFFF DUP2 GT ISZERO PUSH2 0xE66 JUMPI PUSH2 0xE65 PUSH2 0x976 JUMP JUMPDEST JUMPDEST PUSH2 0xE72 DUP8 DUP3 DUP9 ADD PUSH2 0xC1E JUMP JUMPDEST SWAP3 POP POP PUSH1 0x60 PUSH2 0xE83 DUP8 DUP3 DUP9 ADD PUSH2 0x999 JUMP JUMPDEST SWAP2 POP POP SWAP3 SWAP6 SWAP2 SWAP5 POP SWAP3 POP JUMP JUMPDEST PUSH32 0x4E487B7100000000000000000000000000000000000000000000000000000000 PUSH0 MSTORE PUSH1 0x22 PUSH1 0x4 MSTORE PUSH1 0x24 PUSH0 REVERT JUMPDEST PUSH0 PUSH1 0x2 DUP3 DIV SWAP1 POP PUSH1 0x1 DUP3 AND DUP1 PUSH2 0xED3 JUMPI PUSH1 0x7F DUP3 AND SWAP2 POP JUMPDEST PUSH1 0x20 DUP3 LT DUP2 SUB PUSH2 0xEE6 JUMPI PUSH2 0xEE5 PUSH2 0xE8F JUMP JUMPDEST JUMPDEST POP SWAP2 SWAP1 POP JUMP JUMPDEST PUSH32 0x416363657373206973206E6F7420616C6C6F7765640000000000000000000000 PUSH0 DUP3 ADD MSTORE POP JUMP JUMPDEST PUSH0 PUSH2 0xF20 PUSH1 0x15 DUP4 PUSH2 0x9E2 JUMP JUMPDEST SWAP2 POP PUSH2 0xF2B DUP3 PUSH2 0xEEC JUMP JUMPDEST PUSH1 0x20 DUP3 ADD SWAP1 POP SWAP2 SWAP1 POP JUMP JUMPDEST PUSH0 PUSH1 0x20 DUP3 ADD SWAP1 POP DUP2 DUP2 SUB PUSH0 DUP4 ADD MSTORE PUSH2 0xF4D DUP2 PUSH2 0xF14 JUMP JUMPDEST SWAP1 POP SWAP2 SWAP1 POP JUMP JUMPDEST PUSH0 DUP2 SWAP1 POP DUP2 PUSH0 MSTORE PUSH1 0x20 PUSH0 KECCAK256 SWAP1 POP SWAP2 SWAP1 POP JUMP JUMPDEST PUSH0 PUSH1 0x20 PUSH1 0x1F DUP4 ADD DIV SWAP1 POP SWAP2 SWAP1 POP JUMP JUMPDEST PUSH0 DUP3 DUP3 SHL SWAP1 POP SWAP3 SWAP2 POP POP JUMP JUMPDEST PUSH0 PUSH1 0x8 DUP4 MUL PUSH2 0xFB0 PUSH32 0xFFFFFFFFFFFFFFFFFFFFFFFFFFFFFFFFFFFFFFFFFFFFFFFFFFFFFFFFFFFFFFFF DUP3 PUSH2 0xF75 JUMP JUMPDEST PUSH2 0xFBA DUP7 DUP4 PUSH2 0xF75 JUMP JUMPDEST SWAP6 POP DUP1 NOT DUP5 AND SWAP4 POP DUP1 DUP7 AND DUP5 OR SWAP3 POP POP POP SWAP4 SWAP3 POP POP POP JUMP JUMPDEST PUSH0 DUP2 SWAP1 POP SWAP2 SWAP1 POP JUMP JUMPDEST PUSH0 PUSH2 0xFF5 PUSH2 0xFF0 PUSH2 0xFEB DUP5 PUSH2 0x97A JUMP JUMPDEST PUSH2 0xFD2 JUMP JUMPDEST PUSH2 0x97A JUMP JUMPDEST SWAP1 POP SWAP2 SWAP1 POP JUMP JUMPDEST PUSH0 DUP2 SWAP1 POP SWAP2 SWAP1 POP JUMP JUMPDEST PUSH2 0x100E DUP4 PUSH2 0xFDB JUMP JUMPDEST PUSH2 0x1022 PUSH2 0x101A DUP3 PUSH2 0xFFC JUMP JUMPDEST DUP5 DUP5 SLOAD PUSH2 0xF81 JUMP JUMPDEST DUP3 SSTORE POP POP POP POP JUMP JUMPDEST PUSH0 SWAP1 JUMP JUMPDEST PUSH2 0x1036 PUSH2 0x102A JUMP JUMPDEST PUSH2 0x1041 DUP2 DUP5 DUP5 PUSH2 0x1005 JUMP JUMPDEST POP POP POP JUMP JUMPDEST JUMPDEST DUP2 DUP2 LT ISZERO PUSH2 0x1064 JUMPI PUSH2 0x1059 PUSH0 DUP3 PUSH2 0x102E JUMP JUMPDEST PUSH1 0x1 DUP2 ADD SWAP1 POP PUSH2 0x1047 JUMP JUMPDEST POP POP JUMP JUMPDEST PUSH1 0x1F DUP3 GT ISZERO PUSH2 0x10A9 JUMPI PUSH2 0x107A DUP2 PUSH2 0xF54 JUMP JUMPDEST PUSH2 0x1083 DUP5 PUSH2 0xF66 JUMP JUMPDEST DUP2 ADD PUSH1 0x20 DUP6 LT ISZERO PUSH2 0x1092 JUMPI DUP2 SWAP1 POP JUMPDEST PUSH2 0x10A6 PUSH2 0x109E DUP6 PUSH2 0xF66 JUMP JUMPDEST DUP4 ADD DUP3 PUSH2 0x1046 JUMP JUMPDEST POP POP JUMPDEST POP POP POP JUMP JUMPDEST PUSH0 DUP3 DUP3 SHR SWAP1 POP SWAP3 SWAP2 POP POP JUMP JUMPDEST PUSH0 PUSH2 0x10C9 PUSH0 NOT DUP5 PUSH1 0x8 MUL PUSH2 0x10AE JUMP JUMPDEST NOT DUP1 DUP4 AND SWAP2 POP POP SWAP3 SWAP2 POP POP JUMP JUMPDEST PUSH0 PUSH2 0x10E1 DUP4 DUP4 PUSH2 0x10BA JUMP JUMPDEST SWAP2 POP DUP3 PUSH1 0x2 MUL DUP3 OR SWAP1 POP SWAP3 SWAP2 POP POP JUMP JUMPDEST PUSH2 0x10FA DUP3 PUSH2 0x9D8 JUMP JUMPDEST PUSH8 0xFFFFFFFFFFFFFFFF DUP2 GT ISZERO PUSH2 0x1113 JUMPI PUSH2 0x1112 PUSH2 0xB27 JUMP JUMPDEST JUMPDEST PUSH2 0x111D DUP3 SLOAD PUSH2 0xEBC JUMP JUMPDEST PUSH2 0x1128 DUP3 DUP3 DUP6 PUSH2 0x1068 JUMP JUMPDEST PUSH0 PUSH1 0x20 SWAP1 POP PUSH1 0x1F DUP4 GT PUSH1 0x1 DUP2 EQ PUSH2 0x1159 JUMPI PUSH0 DUP5 ISZERO PUSH2 0x1147 JUMPI DUP3 DUP8 ADD MLOAD SWAP1 POP JUMPDEST PUSH2 0x1151 DUP6 DUP3 PUSH2 0x10D6 JUMP JUMPDEST DUP7 SSTORE POP PUSH2 0x11B8 JUMP JUMPDEST PUSH1 0x1F NOT DUP5 AND PUSH2 0x1167 DUP7 PUSH2 0xF54 JUMP JUMPDEST PUSH0 JUMPDEST DUP3 DUP2 LT ISZERO PUSH2 0x118E JUMPI DUP5 DUP10 ADD MLOAD DUP3 SSTORE PUSH1 0x1 DUP3 ADD SWAP2 POP PUSH1 0x20 DUP6 ADD SWAP5 POP PUSH1 0x20 DUP2 ADD SWAP1 POP PUSH2 0x1169 JUMP JUMPDEST DUP7 DUP4 LT ISZERO PUSH2 0x11AB JUMPI DUP5 DUP10 ADD MLOAD PUSH2 0x11A7 PUSH1 0x1F DUP10 AND DUP3 PUSH2 0x10BA JUMP JUMPDEST DUP4 SSTORE POP JUMPDEST PUSH1 0x1 PUSH1 0x2 DUP9 MUL ADD DUP9 SSTORE POP POP POP JUMPDEST POP POP POP POP POP POP JUMP JUMPDEST PUSH0 DUP2 SLOAD SWAP1 POP PUSH2 0x11CE DUP2 PUSH2 0xEBC JUMP JUMPDEST SWAP1 POP SWAP2 SWAP1 POP JUMP JUMPDEST DUP2 DUP2 SUB PUSH2 0x11E3 JUMPI POP POP PUSH2 0x12B8 JUMP JUMPDEST PUSH2 0x11EC DUP3 PUSH2 0x11C0 JUMP JUMPDEST PUSH8 0xFFFFFFFFFFFFFFFF DUP2 GT ISZERO PUSH2 0x1205 JUMPI PUSH2 0x1204 PUSH2 0xB27 JUMP JUMPDEST JUMPDEST PUSH2 0x120F DUP3 SLOAD PUSH2 0xEBC JUMP JUMPDEST PUSH2 0x121A DUP3 DUP3 DUP6 PUSH2 0x1068 JUMP JUMPDEST PUSH0 PUSH1 0x1F DUP4 GT PUSH1 0x1 DUP2 EQ PUSH2 0x1247 JUMPI PUSH0 DUP5 ISZERO PUSH2 0x1235 JUMPI DUP3 DUP8 ADD SLOAD SWAP1 POP JUMPDEST PUSH2 0x123F DUP6 DUP3 PUSH2 0x10D6 JUMP JUMPDEST DUP7 SSTORE POP PUSH2 0x12B1 JUMP JUMPDEST PUSH1 0x1F NOT DUP5 AND PUSH2 0x1255 DUP8 PUSH2 0xF54 JUMP JUMPDEST SWAP7 POP PUSH2 0x1260 DUP7 PUSH2 0xF54 JUMP JUMPDEST PUSH0 JUMPDEST DUP3 DUP2 LT ISZERO PUSH2 0x1287 JUMPI DUP5 DUP10 ADD SLOAD DUP3 SSTORE PUSH1 0x1 DUP3 ADD SWAP2 POP PUSH1 0x1 DUP6 ADD SWAP5 POP PUSH1 0x20 DUP2 ADD SWAP1 POP PUSH2 0x1262 JUMP JUMPDEST DUP7 DUP4 LT ISZERO PUSH2 0x12A4 JUMPI DUP5 DUP10 ADD SLOAD PUSH2 0x12A0 PUSH1 0x1F DUP10 AND DUP3 PUSH2 0x10BA JUMP JUMPDEST DUP4 SSTORE POP JUMPDEST PUSH1 0x1 PUSH1 0x2 DUP9 MUL ADD DUP9 SSTORE POP POP POP JUMPDEST POP POP POP POP POP POP JUMPDEST JUMP INVALID LOG2 PUSH5 0x6970667358 0x22 SLT KECCAK256 0xD6 TIMESTAMP DUP2 SWAP5 0x23 0xEC DUP3 LOG4 0xC5 GASPRICE 0xD7 0xDF 0xA5 0xF7 0xF 0x2C CODESIZE SWAP3 0xA6 0xBF 0xE6 MSTORE8 PREVRANDAO DUP2 JUMPI AND TIMESTAMP 0xD5 0xA6 SWAP8 0xEB 0xCE PUSH5 0x736F6C6343 STOP ADDMOD AND STOP CALLER "
				},
				"gasEstimates": {
					"creation": {
						"codeDepositCost": "969600",
						"executionCost": "25272",
						"totalCost": "994872"
					},
					"external": {
						"retreive_attendant_details(uint256)": "infinite",
						"retreive_patient_details(uint256)": "infinite",
						"store_attendant_details(uint256,string,string,uint256)": "infinite",
						"store_patient_details(uint256,string,uint256,string,string,uint256,string,uint256,string,uint256)": "infinite"
					}
				},
				"methodIdentifiers": {
					"retreive_attendant_details(uint256)": "d734f9b7",
					"retreive_patient_details(uint256)": "65d4352a",
					"store_attendant_details(uint256,string,string,uint256)": "f5b31bfe",
					"store_patient_details(uint256,string,uint256,string,string,uint256,string,uint256,string,uint256)": "c909f8f7"
				}
			},
			"storageLayout": {
				"storage": [
					{
						"astId": 6,
						"contract": "patient.sol:Patient",
						"label": "patientlist",
						"offset": 0,
						"slot": "0",
						"type": "t_mapping(t_uint256,t_struct(patient)34_storage)"
					},
					{
						"astId": 11,
						"contract": "patient.sol:Patient",
						"label": "attendantlist",
						"offset": 0,
						"slot": "1",
						"type": "t_mapping(t_uint256,t_struct(attendant)46_storage)"
					},
					{
						"astId": 37,
						"contract": "patient.sol:Patient",
						"label": "p",
						"offset": 0,
						"slot": "2",
						"type": "t_struct(patient)34_storage"
					},
					{
						"astId": 49,
						"contract": "patient.sol:Patient",
						"label": "a",
						"offset": 0,
						"slot": "13",
						"type": "t_struct(attendant)46_storage"
					},
					{
						"astId": 51,
						"contract": "patient.sol:Patient",
						"label": "owner",
						"offset": 0,
						"slot": "17",
						"type": "t_address"
					}
				],
				"types": {
					"t_address": {
						"encoding": "inplace",
						"label": "address",
						"numberOfBytes": "20"
					},
					"t_mapping(t_uint256,t_struct(attendant)46_storage)": {
						"encoding": "mapping",
						"key": "t_uint256",
						"label": "mapping(uint256 => struct Patient.attendant)",
						"numberOfBytes": "32",
						"value": "t_struct(attendant)46_storage"
					},
					"t_mapping(t_uint256,t_struct(patient)34_storage)": {
						"encoding": "mapping",
						"key": "t_uint256",
						"label": "mapping(uint256 => struct Patient.patient)",
						"numberOfBytes": "32",
						"value": "t_struct(patient)34_storage"
					},
					"t_string_storage": {
						"encoding": "bytes",
						"label": "string",
						"numberOfBytes": "32"
					},
					"t_struct(attendant)46_storage": {
						"encoding": "inplace",
						"label": "struct Patient.attendant",
						"members": [
							{
								"astId": 39,
								"contract": "patient.sol:Patient",
								"label": "patient_id",
								"offset": 0,
								"slot": "0",
								"type": "t_uint256"
							},
							{
								"astId": 41,
								"contract": "patient.sol:Patient",
								"label": "attendant_name",
								"offset": 0,
								"slot": "1",
								"type": "t_string_storage"
							},
							{
								"astId": 43,
								"contract": "patient.sol:Patient",
								"label": "attendant_relation",
								"offset": 0,
								"slot": "2",
								"type": "t_string_storage"
							},
							{
								"astId": 45,
								"contract": "patient.sol:Patient",
								"label": "attendant_phn_no",
								"offset": 0,
								"slot": "3",
								"type": "t_uint256"
							}
						],
						"numberOfBytes": "128"
					},
					"t_struct(patient)34_storage": {
						"encoding": "inplace",
						"label": "struct Patient.patient",
						"members": [
							{
								"astId": 13,
								"contract": "patient.sol:Patient",
								"label": "patient_name",
								"offset": 0,
								"slot": "0",
								"type": "t_string_storage"
							},
							{
								"astId": 15,
								"contract": "patient.sol:Patient",
								"label": "age",
								"offset": 0,
								"slot": "1",
								"type": "t_uint256"
							},
							{
								"astId": 17,
								"contract": "patient.sol:Patient",
								"label": "gender",
								"offset": 0,
								"slot": "2",
								"type": "t_string_storage"
							},
							{
								"astId": 19,
								"contract": "patient.sol:Patient",
								"label": "height",
								"offset": 0,
								"slot": "3",
								"type": "t_string_storage"
							},
							{
								"astId": 21,
								"contract": "patient.sol:Patient",
								"label": "weight",
								"offset": 0,
								"slot": "4",
								"type": "t_uint256"
							},
							{
								"astId": 23,
								"contract": "patient.sol:Patient",
								"label": "patient_address",
								"offset": 0,
								"slot": "5",
								"type": "t_string_storage"
							},
							{
								"astId": 25,
								"contract": "patient.sol:Patient",
								"label": "phone_no",
								"offset": 0,
								"slot": "6",
								"type": "t_uint256"
							},
							{
								"astId": 27,
								"contract": "patient.sol:Patient",
								"label": "email_id",
								"offset": 0,
								"slot": "7",
								"type": "t_string_storage"
							},
							{
								"astId": 29,
								"contract": "patient.sol:Patient",
								"label": "date",
								"offset": 0,
								"slot": "8",
								"type": "t_uint256"
							},
							{
								"astId": 31,
								"contract": "patient.sol:Patient",
								"label": "doctor_id",
								"offset": 0,
								"slot": "9",
								"type": "t_uint256"
							},
							{
								"astId": 33,
								"contract": "patient.sol:Patient",
								"label": "hospital_id",
								"offset": 0,
								"slot": "10",
								"type": "t_uint256"
							}
						],
						"numberOfBytes": "352"
					},
					"t_uint256": {
						"encoding": "inplace",
						"label": "uint256",
						"numberOfBytes": "32"
					}
				}
			},
			"userdoc": {
				"kind": "user",
				"methods": {},
				"version": 1
			}
		}
	}
}