{
	"hospital.sol": {
		"Hospital": {
			"abi": [
				{
					"inputs": [],
					"stateMutability": "nonpayable",
					"type": "constructor"
				},
				{
					"inputs": [
						{
							"internalType": "uint256",
							"name": "hospital_id",
							"type": "uint256"
						}
					],
					"name": "retreive_hospital_details",
					"outputs": [
						{
							"internalType": "string",
							"name": "",
							"type": "string"
						},
						{
							"internalType": "string",
							"name": "",
							"type": "string"
						},
						{
							"internalType": "string",
							"name": "",
							"type": "string"
						}
					],
					"stateMutability": "view",
					"type": "function"
				},
				{
					"inputs": [
						{
							"internalType": "uint256",
							"name": "hospital_id",
							"type": "uint256"
						},
						{
							"internalType": "string",
							"name": "_hospital_name",
							"type": "string"
						},
						{
							"internalType": "string",
							"name": "_hospital_address",
							"type": "string"
						},
						{
							"internalType": "string",
							"name": "_hospital_spec",
							"type": "string"
						}
					],
					"name": "store_doctor_details",
					"outputs": [],
					"stateMutability": "nonpayable",
					"type": "function"
				}
			],
			"devdoc": {
				"details": "Store & retreive Hospital details ",
				"kind": "dev",
				"methods": {
					"retreive_hospital_details(uint256)": {
						"details": "Retreive hospital details",
						"params": {
							"hospital_id": "hospital registration id "
						}
					},
					"store_doctor_details(uint256,string,string,string)": {
						"details": "Store hospital details",
						"params": {
							"_hospital_address": "hospital address ",
							"_hospital_name": "name of hospital",
							"_hospital_spec": "hospital specialisation",
							"hospital_id": "hospital registration id"
						}
					}
				},
				"title": "Hospital Registration",
				"version": 1
			},
			"evm": {
				"assembly": "    /* \"hospital.sol\":119:1776  contract Hospital  {... */\n  mstore(0x40, 0x80)\n    /* \"hospital.sol\":404:464  constructor() public {... */\n  callvalue\n  dup1\n  iszero\n  tag_1\n  jumpi\n  0x00\n  dup1\n  revert\ntag_1:\n  pop\n    /* \"hospital.sol\":445:455  msg.sender */\n  caller\n    /* \"hospital.sol\":437:442  owner */\n  0x04\n  0x00\n    /* \"hospital.sol\":437:455  owner = msg.sender */\n  0x0100\n  exp\n  dup2\n  sload\n  dup2\n  0xffffffffffffffffffffffffffffffffffffffff\n  mul\n  not\n  and\n  swap1\n  dup4\n  0xffffffffffffffffffffffffffffffffffffffff\n  and\n  mul\n  or\n  swap1\n  sstore\n  pop\n    /* \"hospital.sol\":119:1776  contract Hospital  {... */\n  dataSize(sub_0)\n  dup1\n  dataOffset(sub_0)\n  0x00\n  codecopy\n  0x00\n  return\nstop\n\nsub_0: assembly {\n        /* \"hospital.sol\":119:1776  contract Hospital  {... */\n      mstore(0x40, 0x80)\n      callvalue\n      dup1\n      iszero\n      tag_1\n      jumpi\n      0x00\n      dup1\n      revert\n    tag_1:\n      pop\n      jumpi(tag_2, lt(calldatasize, 0x04))\n      shr(0xe0, calldataload(0x00))\n      dup1\n      0x1ae73fe1\n      eq\n      tag_3\n      jumpi\n      dup1\n      0xc1a4cfb6\n      eq\n      tag_4\n      jumpi\n    tag_2:\n      0x00\n      dup1\n      revert\n        /* \"hospital.sol\":923:1311  function store_doctor_details(uint256 hospital_id,string memory _hospital_name,string memory _hospital_address,string memory _hospital_spec)public isOwner {... */\n    tag_3:\n      tag_5\n      0x04\n      dup1\n      calldatasize\n      sub\n      dup2\n      add\n      swap1\n      tag_6\n      swap2\n      swap1\n      tag_7\n      jump\t// in\n    tag_6:\n      tag_8\n      jump\t// in\n    tag_5:\n      stop\n        /* \"hospital.sol\":1465:1741  function retreive_hospital_details(uint256 hospital_id) public view returns (string memory,string memory,string memory){... */\n    tag_4:\n      tag_9\n      0x04\n      dup1\n      calldatasize\n      sub\n      dup2\n      add\n      swap1\n      tag_10\n      swap2\n      swap1\n      tag_11\n      jump\t// in\n    tag_10:\n      tag_12\n      jump\t// in\n    tag_9:\n      mload(0x40)\n      tag_13\n      swap4\n      swap3\n      swap2\n      swap1\n      tag_14\n      jump\t// in\n    tag_13:\n      mload(0x40)\n      dup1\n      swap2\n      sub\n      swap1\n      return\n        /* \"hospital.sol\":923:1311  function store_doctor_details(uint256 hospital_id,string memory _hospital_name,string memory _hospital_address,string memory _hospital_spec)public isOwner {... */\n    tag_8:\n        /* \"hospital.sol\":582:587  owner */\n      0x04\n      0x00\n      swap1\n      sload\n      swap1\n      0x0100\n      exp\n      swap1\n      div\n      0xffffffffffffffffffffffffffffffffffffffff\n      and\n        /* \"hospital.sol\":568:587  msg.sender == owner */\n      0xffffffffffffffffffffffffffffffffffffffff\n      and\n        /* \"hospital.sol\":568:578  msg.sender */\n      caller\n        /* \"hospital.sol\":568:587  msg.sender == owner */\n      0xffffffffffffffffffffffffffffffffffffffff\n      and\n      eq\n        /* \"hospital.sol\":560:613  require(msg.sender == owner, \"Access is not allowed\") */\n      tag_16\n      jumpi\n      mload(0x40)\n      0x08c379a000000000000000000000000000000000000000000000000000000000\n      dup2\n      mstore\n      0x04\n      add\n      tag_17\n      swap1\n      tag_18\n      jump\t// in\n    tag_17:\n      mload(0x40)\n      dup1\n      swap2\n      sub\n      swap1\n      revert\n    tag_16:\n        /* \"hospital.sol\":1116:1130  _hospital_name */\n      dup3\n        /* \"hospital.sol\":1098:1099  h */\n      0x01\n        /* \"hospital.sol\":1098:1113  h.hospital_name */\n      0x00\n      add\n        /* \"hospital.sol\":1098:1130  h.hospital_name = _hospital_name */\n      swap1\n      dup2\n      tag_20\n      swap2\n      swap1\n      tag_21\n      jump\t// in\n    tag_20:\n      pop\n        /* \"hospital.sol\":1162:1179  _hospital_address */\n      dup2\n        /* \"hospital.sol\":1141:1142  h */\n      0x01\n        /* \"hospital.sol\":1141:1159  h.hospital_address */\n      dup1\n      add\n        /* \"hospital.sol\":1141:1179  h.hospital_address = _hospital_address */\n      swap1\n      dup2\n      tag_22\n      swap2\n      swap1\n      tag_21\n      jump\t// in\n    tag_22:\n      pop\n        /* \"hospital.sol\":1208:1222  _hospital_spec */\n      dup1\n        /* \"hospital.sol\":1190:1191  h */\n      0x01\n        /* \"hospital.sol\":1190:1205  h.hospital_spec */\n      0x02\n      add\n        /* \"hospital.sol\":1190:1222  h.hospital_spec = _hospital_spec */\n      swap1\n      dup2\n      tag_23\n      swap2\n      swap1\n      tag_21\n      jump\t// in\n    tag_23:\n      pop\n        /* \"hospital.sol\":1280:1281  h */\n      0x01\n        /* \"hospital.sol\":1252:1264  hospitallist */\n      0x00\n        /* \"hospital.sol\":1252:1277  hospitallist[hospital_id] */\n      dup1\n        /* \"hospital.sol\":1265:1276  hospital_id */\n      dup7\n        /* \"hospital.sol\":1252:1277  hospitallist[hospital_id] */\n      dup2\n      mstore\n      0x20\n      add\n      swap1\n      dup2\n      mstore\n      0x20\n      add\n      0x00\n      keccak256\n        /* \"hospital.sol\":1252:1281  hospitallist[hospital_id] = h */\n      0x00\n      dup3\n      add\n      dup2\n      0x00\n      add\n      swap1\n      dup2\n      tag_24\n      swap2\n      swap1\n      tag_25\n      jump\t// in\n    tag_24:\n      pop\n      0x01\n      dup3\n      add\n      dup2\n      0x01\n      add\n      swap1\n      dup2\n      tag_26\n      swap2\n      swap1\n      tag_25\n      jump\t// in\n    tag_26:\n      pop\n      0x02\n      dup3\n      add\n      dup2\n      0x02\n      add\n      swap1\n      dup2\n      tag_27\n      swap2\n      swap1\n      tag_25\n      jump\t// in\n    tag_27:\n      pop\n      swap1\n      pop\n      pop\n        /* \"hospital.sol\":923:1311  function store_doctor_details(uint256 hospital_id,string memory _hospital_name,string memory _hospital_address,string memory _hospital_spec)public isOwner {... */\n      pop\n      pop\n      pop\n      pop\n      jump\t// out\n        /* \"hospital.sol\":1465:1741  function retreive_hospital_details(uint256 hospital_id) public view returns (string memory,string memory,string memory){... */\n    tag_12:\n        /* \"hospital.sol\":1542:1555  string memory */\n      0x60\n        /* \"hospital.sol\":1556:1569  string memory */\n      dup1\n        /* \"hospital.sol\":1570:1583  string memory */\n      0x60\n        /* \"hospital.sol\":1605:1622  hospital memory h */\n      0x00\n        /* \"hospital.sol\":1625:1637  hospitallist */\n      dup1\n        /* \"hospital.sol\":1625:1650  hospitallist[hospital_id] */\n      0x00\n        /* \"hospital.sol\":1638:1649  hospital_id */\n      dup7\n        /* \"hospital.sol\":1625:1650  hospitallist[hospital_id] */\n      dup2\n      mstore\n      0x20\n      add\n      swap1\n      dup2\n      mstore\n      0x20\n      add\n      0x00\n      keccak256\n        /* \"hospital.sol\":1605:1650  hospital memory h = hospitallist[hospital_id] */\n      mload(0x40)\n      dup1\n      0x60\n      add\n      0x40\n      mstore\n      swap1\n      dup2\n      0x00\n      dup3\n      add\n      dup1\n      sload\n      tag_29\n      swap1\n      tag_30\n      jump\t// in\n    tag_29:\n      dup1\n      0x1f\n      add\n      0x20\n      dup1\n      swap2\n      div\n      mul\n      0x20\n      add\n      mload(0x40)\n      swap1\n      dup2\n      add\n      0x40\n      mstore\n      dup1\n      swap3\n      swap2\n      swap1\n      dup2\n      dup2\n      mstore\n      0x20\n      add\n      dup3\n      dup1\n      sload\n      tag_31\n      swap1\n      tag_30\n      jump\t// in\n    tag_31:\n      dup1\n      iszero\n      tag_32\n      jumpi\n      dup1\n      0x1f\n      lt\n      tag_33\n      jumpi\n      0x0100\n      dup1\n      dup4\n      sload\n      div\n      mul\n      dup4\n      mstore\n      swap2\n      0x20\n      add\n      swap2\n      jump(tag_32)\n    tag_33:\n      dup3\n      add\n      swap2\n      swap1\n      0x00\n      mstore\n      keccak256(0x00, 0x20)\n      swap1\n    tag_34:\n      dup2\n      sload\n      dup2\n      mstore\n      swap1\n      0x01\n      add\n      swap1\n      0x20\n      add\n      dup1\n      dup4\n      gt\n      tag_34\n      jumpi\n      dup3\n      swap1\n      sub\n      0x1f\n      and\n      dup3\n      add\n      swap2\n    tag_32:\n      pop\n      pop\n      pop\n      pop\n      pop\n      dup2\n      mstore\n      0x20\n      add\n      0x01\n      dup3\n      add\n      dup1\n      sload\n      tag_35\n      swap1\n      tag_30\n      jump\t// in\n    tag_35:\n      dup1\n      0x1f\n      add\n      0x20\n      dup1\n      swap2\n      div\n      mul\n      0x20\n      add\n      mload(0x40)\n      swap1\n      dup2\n      add\n      0x40\n      mstore\n      dup1\n      swap3\n      swap2\n      swap1\n      dup2\n      dup2\n      mstore\n      0x20\n      add\n      dup3\n      dup1\n      sload\n      tag_36\n      swap1\n      tag_30\n      jump\t// in\n    tag_36:\n      dup1\n      iszero\n      tag_37\n      jumpi\n      dup1\n      0x1f\n      lt\n      tag_38\n      jumpi\n      0x0100\n      dup1\n      dup4\n      sload\n      div\n      mul\n      dup4\n      mstore\n      swap2\n      0x20\n      add\n      swap2\n      jump(tag_37)\n    tag_38:\n      dup3\n      add\n      swap2\n      swap1\n      0x00\n      mstore\n      keccak256(0x00, 0x20)\n      swap1\n    tag_39:\n      dup2\n      sload\n      dup2\n      mstore\n      swap1\n      0x01\n      add\n      swap1\n      0x20\n      add\n      dup1\n      dup4\n      gt\n      tag_39\n      jumpi\n      dup3\n      swap1\n      sub\n      0x1f\n      and\n      dup3\n      add\n      swap2\n    tag_37:\n      pop\n      pop\n      pop\n      pop\n      pop\n      dup2\n      mstore\n      0x20\n      add\n      0x02\n      dup3\n      add\n      dup1\n      sload\n      tag_40\n      swap1\n      tag_30\n      jump\t// in\n    tag_40:\n      dup1\n      0x1f\n      add\n      0x20\n      dup1\n      swap2\n      div\n      mul\n      0x20\n      add\n      mload(0x40)\n      swap1\n      dup2\n      add\n      0x40\n      mstore\n      dup1\n      swap3\n      swap2\n      swap1\n      dup2\n      dup2\n      mstore\n      0x20\n      add\n      dup3\n      dup1\n      sload\n      tag_41\n      swap1\n      tag_30\n      jump\t// in\n    tag_41:\n      dup1\n      iszero\n      tag_42\n      jumpi\n      dup1\n      0x1f\n      lt\n      tag_43\n      jumpi\n      0x0100\n      dup1\n      dup4\n      sload\n      div\n      mul\n      dup4\n      mstore\n      swap2\n      0x20\n      add\n      swap2\n      jump(tag_42)\n    tag_43:\n      dup3\n      add\n      swap2\n      swap1\n      0x00\n      mstore\n      keccak256(0x00, 0x20)\n      swap1\n    tag_44:\n      dup2\n      sload\n      dup2\n      mstore\n      swap1\n      0x01\n      add\n      swap1\n      0x20\n      add\n      dup1\n      dup4\n      gt\n      tag_44\n      jumpi\n      dup3\n      swap1\n      sub\n      0x1f\n      and\n      dup3\n      add\n      swap2\n    tag_42:\n      pop\n      pop\n      pop\n      pop\n      pop\n      dup2\n      mstore\n      pop\n      pop\n      swap1\n      pop\n        /* \"hospital.sol\":1671:1672  h */\n      dup1\n        /* \"hospital.sol\":1671:1686  h.hospital_name */\n      0x00\n      add\n      mload\n        /* \"hospital.sol\":1687:1688  h */\n      dup2\n        /* \"hospital.sol\":1687:1705  h.hospital_address */\n      0x20\n      add\n      mload\n        /* \"hospital.sol\":1706:1707  h */\n      dup3\n        /* \"hospital.sol\":1706:1721  h.hospital_spec */\n      0x40\n      add\n      mload\n        /* \"hospital.sol\":1663:1722  return (h.hospital_name,h.hospital_address,h.hospital_spec) */\n      swap4\n      pop\n      swap4\n      pop\n      swap4\n      pop\n      pop\n        /* \"hospital.sol\":1465:1741  function retreive_hospital_details(uint256 hospital_id) public view returns (string memory,string memory,string memory){... */\n      swap2\n      swap4\n      swap1\n      swap3\n      pop\n      jump\t// out\n        /* \"#utility.yul\":7:82   */\n    tag_45:\n        /* \"#utility.yul\":40:46   */\n      0x00\n        /* \"#utility.yul\":73:75   */\n      0x40\n        /* \"#utility.yul\":67:76   */\n      mload\n        /* \"#utility.yul\":57:76   */\n      swap1\n      pop\n        /* \"#utility.yul\":7:82   */\n      swap1\n      jump\t// out\n        /* \"#utility.yul\":88:205   */\n    tag_46:\n        /* \"#utility.yul\":197:198   */\n      0x00\n        /* \"#utility.yul\":194:195   */\n      dup1\n        /* \"#utility.yul\":187:199   */\n      revert\n        /* \"#utility.yul\":211:328   */\n    tag_47:\n        /* \"#utility.yul\":320:321   */\n      0x00\n        /* \"#utility.yul\":317:318   */\n      dup1\n        /* \"#utility.yul\":310:322   */\n      revert\n        /* \"#utility.yul\":334:411   */\n    tag_48:\n        /* \"#utility.yul\":371:378   */\n      0x00\n        /* \"#utility.yul\":400:405   */\n      dup2\n        /* \"#utility.yul\":389:405   */\n      swap1\n      pop\n        /* \"#utility.yul\":334:411   */\n      swap2\n      swap1\n      pop\n      jump\t// out\n        /* \"#utility.yul\":417:539   */\n    tag_49:\n        /* \"#utility.yul\":490:514   */\n      tag_90\n        /* \"#utility.yul\":508:513   */\n      dup2\n        /* \"#utility.yul\":490:514   */\n      tag_48\n      jump\t// in\n    tag_90:\n        /* \"#utility.yul\":483:488   */\n      dup2\n        /* \"#utility.yul\":480:515   */\n      eq\n        /* \"#utility.yul\":470:533   */\n      tag_91\n      jumpi\n        /* \"#utility.yul\":529:530   */\n      0x00\n        /* \"#utility.yul\":526:527   */\n      dup1\n        /* \"#utility.yul\":519:531   */\n      revert\n        /* \"#utility.yul\":470:533   */\n    tag_91:\n        /* \"#utility.yul\":417:539   */\n      pop\n      jump\t// out\n        /* \"#utility.yul\":545:684   */\n    tag_50:\n        /* \"#utility.yul\":591:596   */\n      0x00\n        /* \"#utility.yul\":629:635   */\n      dup2\n        /* \"#utility.yul\":616:636   */\n      calldataload\n        /* \"#utility.yul\":607:636   */\n      swap1\n      pop\n        /* \"#utility.yul\":645:678   */\n      tag_93\n        /* \"#utility.yul\":672:677   */\n      dup2\n        /* \"#utility.yul\":645:678   */\n      tag_49\n      jump\t// in\n    tag_93:\n        /* \"#utility.yul\":545:684   */\n      swap3\n      swap2\n      pop\n      pop\n      jump\t// out\n        /* \"#utility.yul\":690:807   */\n    tag_51:\n        /* \"#utility.yul\":799:800   */\n      0x00\n        /* \"#utility.yul\":796:797   */\n      dup1\n        /* \"#utility.yul\":789:801   */\n      revert\n        /* \"#utility.yul\":813:930   */\n    tag_52:\n        /* \"#utility.yul\":922:923   */\n      0x00\n        /* \"#utility.yul\":919:920   */\n      dup1\n        /* \"#utility.yul\":912:924   */\n      revert\n        /* \"#utility.yul\":936:1038   */\n    tag_53:\n        /* \"#utility.yul\":977:983   */\n      0x00\n        /* \"#utility.yul\":1028:1030   */\n      0x1f\n        /* \"#utility.yul\":1024:1031   */\n      not\n        /* \"#utility.yul\":1019:1021   */\n      0x1f\n        /* \"#utility.yul\":1012:1017   */\n      dup4\n        /* \"#utility.yul\":1008:1022   */\n      add\n        /* \"#utility.yul\":1004:1032   */\n      and\n        /* \"#utility.yul\":994:1032   */\n      swap1\n      pop\n        /* \"#utility.yul\":936:1038   */\n      swap2\n      swap1\n      pop\n      jump\t// out\n        /* \"#utility.yul\":1044:1224   */\n    tag_54:\n        /* \"#utility.yul\":1092:1169   */\n      0x4e487b7100000000000000000000000000000000000000000000000000000000\n        /* \"#utility.yul\":1089:1090   */\n      0x00\n        /* \"#utility.yul\":1082:1170   */\n      mstore\n        /* \"#utility.yul\":1189:1193   */\n      0x41\n        /* \"#utility.yul\":1186:1187   */\n      0x04\n        /* \"#utility.yul\":1179:1194   */\n      mstore\n        /* \"#utility.yul\":1213:1217   */\n      0x24\n        /* \"#utility.yul\":1210:1211   */\n      0x00\n        /* \"#utility.yul\":1203:1218   */\n      revert\n        /* \"#utility.yul\":1230:1511   */\n    tag_55:\n        /* \"#utility.yul\":1313:1340   */\n      tag_99\n        /* \"#utility.yul\":1335:1339   */\n      dup3\n        /* \"#utility.yul\":1313:1340   */\n      tag_53\n      jump\t// in\n    tag_99:\n        /* \"#utility.yul\":1305:1311   */\n      dup2\n        /* \"#utility.yul\":1301:1341   */\n      add\n        /* \"#utility.yul\":1443:1449   */\n      dup2\n        /* \"#utility.yul\":1431:1441   */\n      dup2\n        /* \"#utility.yul\":1428:1450   */\n      lt\n        /* \"#utility.yul\":1407:1425   */\n      0xffffffffffffffff\n        /* \"#utility.yul\":1395:1405   */\n      dup3\n        /* \"#utility.yul\":1392:1426   */\n      gt\n        /* \"#utility.yul\":1389:1451   */\n      or\n        /* \"#utility.yul\":1386:1474   */\n      iszero\n      tag_100\n      jumpi\n        /* \"#utility.yul\":1454:1472   */\n      tag_101\n      tag_54\n      jump\t// in\n    tag_101:\n        /* \"#utility.yul\":1386:1474   */\n    tag_100:\n        /* \"#utility.yul\":1494:1504   */\n      dup1\n        /* \"#utility.yul\":1490:1492   */\n      0x40\n        /* \"#utility.yul\":1483:1505   */\n      mstore\n        /* \"#utility.yul\":1273:1511   */\n      pop\n        /* \"#utility.yul\":1230:1511   */\n      pop\n      pop\n      jump\t// out\n        /* \"#utility.yul\":1517:1646   */\n    tag_56:\n        /* \"#utility.yul\":1551:1557   */\n      0x00\n        /* \"#utility.yul\":1578:1598   */\n      tag_103\n      tag_45\n      jump\t// in\n    tag_103:\n        /* \"#utility.yul\":1568:1598   */\n      swap1\n      pop\n        /* \"#utility.yul\":1607:1640   */\n      tag_104\n        /* \"#utility.yul\":1635:1639   */\n      dup3\n        /* \"#utility.yul\":1627:1633   */\n      dup3\n        /* \"#utility.yul\":1607:1640   */\n      tag_55\n      jump\t// in\n    tag_104:\n        /* \"#utility.yul\":1517:1646   */\n      swap2\n      swap1\n      pop\n      jump\t// out\n        /* \"#utility.yul\":1652:1960   */\n    tag_57:\n        /* \"#utility.yul\":1714:1718   */\n      0x00\n        /* \"#utility.yul\":1804:1822   */\n      0xffffffffffffffff\n        /* \"#utility.yul\":1796:1802   */\n      dup3\n        /* \"#utility.yul\":1793:1823   */\n      gt\n        /* \"#utility.yul\":1790:1846   */\n      iszero\n      tag_106\n      jumpi\n        /* \"#utility.yul\":1826:1844   */\n      tag_107\n      tag_54\n      jump\t// in\n    tag_107:\n        /* \"#utility.yul\":1790:1846   */\n    tag_106:\n        /* \"#utility.yul\":1864:1893   */\n      tag_108\n        /* \"#utility.yul\":1886:1892   */\n      dup3\n        /* \"#utility.yul\":1864:1893   */\n      tag_53\n      jump\t// in\n    tag_108:\n        /* \"#utility.yul\":1856:1893   */\n      swap1\n      pop\n        /* \"#utility.yul\":1948:1952   */\n      0x20\n        /* \"#utility.yul\":1942:1946   */\n      dup2\n        /* \"#utility.yul\":1938:1953   */\n      add\n        /* \"#utility.yul\":1930:1953   */\n      swap1\n      pop\n        /* \"#utility.yul\":1652:1960   */\n      swap2\n      swap1\n      pop\n      jump\t// out\n        /* \"#utility.yul\":1966:2112   */\n    tag_58:\n        /* \"#utility.yul\":2063:2069   */\n      dup3\n        /* \"#utility.yul\":2058:2061   */\n      dup2\n        /* \"#utility.yul\":2053:2056   */\n      dup4\n        /* \"#utility.yul\":2040:2070   */\n      calldatacopy\n        /* \"#utility.yul\":2104:2105   */\n      0x00\n        /* \"#utility.yul\":2095:2101   */\n      dup4\n        /* \"#utility.yul\":2090:2093   */\n      dup4\n        /* \"#utility.yul\":2086:2102   */\n      add\n        /* \"#utility.yul\":2079:2106   */\n      mstore\n        /* \"#utility.yul\":1966:2112   */\n      pop\n      pop\n      pop\n      jump\t// out\n        /* \"#utility.yul\":2118:2543   */\n    tag_59:\n        /* \"#utility.yul\":2196:2201   */\n      0x00\n        /* \"#utility.yul\":2221:2287   */\n      tag_111\n        /* \"#utility.yul\":2237:2286   */\n      tag_112\n        /* \"#utility.yul\":2279:2285   */\n      dup5\n        /* \"#utility.yul\":2237:2286   */\n      tag_57\n      jump\t// in\n    tag_112:\n        /* \"#utility.yul\":2221:2287   */\n      tag_56\n      jump\t// in\n    tag_111:\n        /* \"#utility.yul\":2212:2287   */\n      swap1\n      pop\n        /* \"#utility.yul\":2310:2316   */\n      dup3\n        /* \"#utility.yul\":2303:2308   */\n      dup2\n        /* \"#utility.yul\":2296:2317   */\n      mstore\n        /* \"#utility.yul\":2348:2352   */\n      0x20\n        /* \"#utility.yul\":2341:2346   */\n      dup2\n        /* \"#utility.yul\":2337:2353   */\n      add\n        /* \"#utility.yul\":2386:2389   */\n      dup5\n        /* \"#utility.yul\":2377:2383   */\n      dup5\n        /* \"#utility.yul\":2372:2375   */\n      dup5\n        /* \"#utility.yul\":2368:2384   */\n      add\n        /* \"#utility.yul\":2365:2390   */\n      gt\n        /* \"#utility.yul\":2362:2474   */\n      iszero\n      tag_113\n      jumpi\n        /* \"#utility.yul\":2393:2472   */\n      tag_114\n      tag_52\n      jump\t// in\n    tag_114:\n        /* \"#utility.yul\":2362:2474   */\n    tag_113:\n        /* \"#utility.yul\":2483:2537   */\n      tag_115\n        /* \"#utility.yul\":2530:2536   */\n      dup5\n        /* \"#utility.yul\":2525:2528   */\n      dup3\n        /* \"#utility.yul\":2520:2523   */\n      dup6\n        /* \"#utility.yul\":2483:2537   */\n      tag_58\n      jump\t// in\n    tag_115:\n        /* \"#utility.yul\":2202:2543   */\n      pop\n        /* \"#utility.yul\":2118:2543   */\n      swap4\n      swap3\n      pop\n      pop\n      pop\n      jump\t// out\n        /* \"#utility.yul\":2563:2903   */\n    tag_60:\n        /* \"#utility.yul\":2619:2624   */\n      0x00\n        /* \"#utility.yul\":2668:2671   */\n      dup3\n        /* \"#utility.yul\":2661:2665   */\n      0x1f\n        /* \"#utility.yul\":2653:2659   */\n      dup4\n        /* \"#utility.yul\":2649:2666   */\n      add\n        /* \"#utility.yul\":2645:2672   */\n      slt\n        /* \"#utility.yul\":2635:2757   */\n      tag_117\n      jumpi\n        /* \"#utility.yul\":2676:2755   */\n      tag_118\n      tag_51\n      jump\t// in\n    tag_118:\n        /* \"#utility.yul\":2635:2757   */\n    tag_117:\n        /* \"#utility.yul\":2793:2799   */\n      dup2\n        /* \"#utility.yul\":2780:2800   */\n      calldataload\n        /* \"#utility.yul\":2818:2897   */\n      tag_119\n        /* \"#utility.yul\":2893:2896   */\n      dup5\n        /* \"#utility.yul\":2885:2891   */\n      dup3\n        /* \"#utility.yul\":2878:2882   */\n      0x20\n        /* \"#utility.yul\":2870:2876   */\n      dup7\n        /* \"#utility.yul\":2866:2883   */\n      add\n        /* \"#utility.yul\":2818:2897   */\n      tag_59\n      jump\t// in\n    tag_119:\n        /* \"#utility.yul\":2809:2897   */\n      swap2\n      pop\n        /* \"#utility.yul\":2625:2903   */\n      pop\n        /* \"#utility.yul\":2563:2903   */\n      swap3\n      swap2\n      pop\n      pop\n      jump\t// out\n        /* \"#utility.yul\":2909:4214   */\n    tag_7:\n        /* \"#utility.yul\":3025:3031   */\n      0x00\n        /* \"#utility.yul\":3033:3039   */\n      dup1\n        /* \"#utility.yul\":3041:3047   */\n      0x00\n        /* \"#utility.yul\":3049:3055   */\n      dup1\n        /* \"#utility.yul\":3098:3101   */\n      0x80\n        /* \"#utility.yul\":3086:3095   */\n      dup6\n        /* \"#utility.yul\":3077:3084   */\n      dup8\n        /* \"#utility.yul\":3073:3096   */\n      sub\n        /* \"#utility.yul\":3069:3102   */\n      slt\n        /* \"#utility.yul\":3066:3186   */\n      iszero\n      tag_121\n      jumpi\n        /* \"#utility.yul\":3105:3184   */\n      tag_122\n      tag_46\n      jump\t// in\n    tag_122:\n        /* \"#utility.yul\":3066:3186   */\n    tag_121:\n        /* \"#utility.yul\":3225:3226   */\n      0x00\n        /* \"#utility.yul\":3250:3303   */\n      tag_123\n        /* \"#utility.yul\":3295:3302   */\n      dup8\n        /* \"#utility.yul\":3286:3292   */\n      dup3\n        /* \"#utility.yul\":3275:3284   */\n      dup9\n        /* \"#utility.yul\":3271:3293   */\n      add\n        /* \"#utility.yul\":3250:3303   */\n      tag_50\n      jump\t// in\n    tag_123:\n        /* \"#utility.yul\":3240:3303   */\n      swap5\n      pop\n        /* \"#utility.yul\":3196:3313   */\n      pop\n        /* \"#utility.yul\":3380:3382   */\n      0x20\n        /* \"#utility.yul\":3369:3378   */\n      dup6\n        /* \"#utility.yul\":3365:3383   */\n      add\n        /* \"#utility.yul\":3352:3384   */\n      calldataload\n        /* \"#utility.yul\":3411:3429   */\n      0xffffffffffffffff\n        /* \"#utility.yul\":3403:3409   */\n      dup2\n        /* \"#utility.yul\":3400:3430   */\n      gt\n        /* \"#utility.yul\":3397:3514   */\n      iszero\n      tag_124\n      jumpi\n        /* \"#utility.yul\":3433:3512   */\n      tag_125\n      tag_47\n      jump\t// in\n    tag_125:\n        /* \"#utility.yul\":3397:3514   */\n    tag_124:\n        /* \"#utility.yul\":3538:3601   */\n      tag_126\n        /* \"#utility.yul\":3593:3600   */\n      dup8\n        /* \"#utility.yul\":3584:3590   */\n      dup3\n        /* \"#utility.yul\":3573:3582   */\n      dup9\n        /* \"#utility.yul\":3569:3591   */\n      add\n        /* \"#utility.yul\":3538:3601   */\n      tag_60\n      jump\t// in\n    tag_126:\n        /* \"#utility.yul\":3528:3601   */\n      swap4\n      pop\n        /* \"#utility.yul\":3323:3611   */\n      pop\n        /* \"#utility.yul\":3678:3680   */\n      0x40\n        /* \"#utility.yul\":3667:3676   */\n      dup6\n        /* \"#utility.yul\":3663:3681   */\n      add\n        /* \"#utility.yul\":3650:3682   */\n      calldataload\n        /* \"#utility.yul\":3709:3727   */\n      0xffffffffffffffff\n        /* \"#utility.yul\":3701:3707   */\n      dup2\n        /* \"#utility.yul\":3698:3728   */\n      gt\n        /* \"#utility.yul\":3695:3812   */\n      iszero\n      tag_127\n      jumpi\n        /* \"#utility.yul\":3731:3810   */\n      tag_128\n      tag_47\n      jump\t// in\n    tag_128:\n        /* \"#utility.yul\":3695:3812   */\n    tag_127:\n        /* \"#utility.yul\":3836:3899   */\n      tag_129\n        /* \"#utility.yul\":3891:3898   */\n      dup8\n        /* \"#utility.yul\":3882:3888   */\n      dup3\n        /* \"#utility.yul\":3871:3880   */\n      dup9\n        /* \"#utility.yul\":3867:3889   */\n      add\n        /* \"#utility.yul\":3836:3899   */\n      tag_60\n      jump\t// in\n    tag_129:\n        /* \"#utility.yul\":3826:3899   */\n      swap3\n      pop\n        /* \"#utility.yul\":3621:3909   */\n      pop\n        /* \"#utility.yul\":3976:3978   */\n      0x60\n        /* \"#utility.yul\":3965:3974   */\n      dup6\n        /* \"#utility.yul\":3961:3979   */\n      add\n        /* \"#utility.yul\":3948:3980   */\n      calldataload\n        /* \"#utility.yul\":4007:4025   */\n      0xffffffffffffffff\n        /* \"#utility.yul\":3999:4005   */\n      dup2\n        /* \"#utility.yul\":3996:4026   */\n      gt\n        /* \"#utility.yul\":3993:4110   */\n      iszero\n      tag_130\n      jumpi\n        /* \"#utility.yul\":4029:4108   */\n      tag_131\n      tag_47\n      jump\t// in\n    tag_131:\n        /* \"#utility.yul\":3993:4110   */\n    tag_130:\n        /* \"#utility.yul\":4134:4197   */\n      tag_132\n        /* \"#utility.yul\":4189:4196   */\n      dup8\n        /* \"#utility.yul\":4180:4186   */\n      dup3\n        /* \"#utility.yul\":4169:4178   */\n      dup9\n        /* \"#utility.yul\":4165:4187   */\n      add\n        /* \"#utility.yul\":4134:4197   */\n      tag_60\n      jump\t// in\n    tag_132:\n        /* \"#utility.yul\":4124:4197   */\n      swap2\n      pop\n        /* \"#utility.yul\":3919:4207   */\n      pop\n        /* \"#utility.yul\":2909:4214   */\n      swap3\n      swap6\n      swap2\n      swap5\n      pop\n      swap3\n      pop\n      jump\t// out\n        /* \"#utility.yul\":4220:4549   */\n    tag_11:\n        /* \"#utility.yul\":4279:4285   */\n      0x00\n        /* \"#utility.yul\":4328:4330   */\n      0x20\n        /* \"#utility.yul\":4316:4325   */\n      dup3\n        /* \"#utility.yul\":4307:4314   */\n      dup5\n        /* \"#utility.yul\":4303:4326   */\n      sub\n        /* \"#utility.yul\":4299:4331   */\n      slt\n        /* \"#utility.yul\":4296:4415   */\n      iszero\n      tag_134\n      jumpi\n        /* \"#utility.yul\":4334:4413   */\n      tag_135\n      tag_46\n      jump\t// in\n    tag_135:\n        /* \"#utility.yul\":4296:4415   */\n    tag_134:\n        /* \"#utility.yul\":4454:4455   */\n      0x00\n        /* \"#utility.yul\":4479:4532   */\n      tag_136\n        /* \"#utility.yul\":4524:4531   */\n      dup5\n        /* \"#utility.yul\":4515:4521   */\n      dup3\n        /* \"#utility.yul\":4504:4513   */\n      dup6\n        /* \"#utility.yul\":4500:4522   */\n      add\n        /* \"#utility.yul\":4479:4532   */\n      tag_50\n      jump\t// in\n    tag_136:\n        /* \"#utility.yul\":4469:4532   */\n      swap2\n      pop\n        /* \"#utility.yul\":4425:4542   */\n      pop\n        /* \"#utility.yul\":4220:4549   */\n      swap3\n      swap2\n      pop\n      pop\n      jump\t// out\n        /* \"#utility.yul\":4555:4654   */\n    tag_61:\n        /* \"#utility.yul\":4607:4613   */\n      0x00\n        /* \"#utility.yul\":4641:4646   */\n      dup2\n        /* \"#utility.yul\":4635:4647   */\n      mload\n        /* \"#utility.yul\":4625:4647   */\n      swap1\n      pop\n        /* \"#utility.yul\":4555:4654   */\n      swap2\n      swap1\n      pop\n      jump\t// out\n        /* \"#utility.yul\":4660:4829   */\n    tag_62:\n        /* \"#utility.yul\":4744:4755   */\n      0x00\n        /* \"#utility.yul\":4778:4784   */\n      dup3\n        /* \"#utility.yul\":4773:4776   */\n      dup3\n        /* \"#utility.yul\":4766:4785   */\n      mstore\n        /* \"#utility.yul\":4818:4822   */\n      0x20\n        /* \"#utility.yul\":4813:4816   */\n      dup3\n        /* \"#utility.yul\":4809:4823   */\n      add\n        /* \"#utility.yul\":4794:4823   */\n      swap1\n      pop\n        /* \"#utility.yul\":4660:4829   */\n      swap3\n      swap2\n      pop\n      pop\n      jump\t// out\n        /* \"#utility.yul\":4835:5081   */\n    tag_63:\n        /* \"#utility.yul\":4916:4917   */\n      0x00\n        /* \"#utility.yul\":4926:5039   */\n    tag_140:\n        /* \"#utility.yul\":4940:4946   */\n      dup4\n        /* \"#utility.yul\":4937:4938   */\n      dup2\n        /* \"#utility.yul\":4934:4947   */\n      lt\n        /* \"#utility.yul\":4926:5039   */\n      iszero\n      tag_142\n      jumpi\n        /* \"#utility.yul\":5025:5026   */\n      dup1\n        /* \"#utility.yul\":5020:5023   */\n      dup3\n        /* \"#utility.yul\":5016:5027   */\n      add\n        /* \"#utility.yul\":5010:5028   */\n      mload\n        /* \"#utility.yul\":5006:5007   */\n      dup2\n        /* \"#utility.yul\":5001:5004   */\n      dup5\n        /* \"#utility.yul\":4997:5008   */\n      add\n        /* \"#utility.yul\":4990:5029   */\n      mstore\n        /* \"#utility.yul\":4962:4964   */\n      0x20\n        /* \"#utility.yul\":4959:4960   */\n      dup2\n        /* \"#utility.yul\":4955:4965   */\n      add\n        /* \"#utility.yul\":4950:4965   */\n      swap1\n      pop\n        /* \"#utility.yul\":4926:5039   */\n      jump(tag_140)\n    tag_142:\n        /* \"#utility.yul\":5073:5074   */\n      0x00\n        /* \"#utility.yul\":5064:5070   */\n      dup5\n        /* \"#utility.yul\":5059:5062   */\n      dup5\n        /* \"#utility.yul\":5055:5071   */\n      add\n        /* \"#utility.yul\":5048:5075   */\n      mstore\n        /* \"#utility.yul\":4897:5081   */\n      pop\n        /* \"#utility.yul\":4835:5081   */\n      pop\n      pop\n      pop\n      jump\t// out\n        /* \"#utility.yul\":5087:5464   */\n    tag_64:\n        /* \"#utility.yul\":5175:5178   */\n      0x00\n        /* \"#utility.yul\":5203:5242   */\n      tag_144\n        /* \"#utility.yul\":5236:5241   */\n      dup3\n        /* \"#utility.yul\":5203:5242   */\n      tag_61\n      jump\t// in\n    tag_144:\n        /* \"#utility.yul\":5258:5329   */\n      tag_145\n        /* \"#utility.yul\":5322:5328   */\n      dup2\n        /* \"#utility.yul\":5317:5320   */\n      dup6\n        /* \"#utility.yul\":5258:5329   */\n      tag_62\n      jump\t// in\n    tag_145:\n        /* \"#utility.yul\":5251:5329   */\n      swap4\n      pop\n        /* \"#utility.yul\":5338:5403   */\n      tag_146\n        /* \"#utility.yul\":5396:5402   */\n      dup2\n        /* \"#utility.yul\":5391:5394   */\n      dup6\n        /* \"#utility.yul\":5384:5388   */\n      0x20\n        /* \"#utility.yul\":5377:5382   */\n      dup7\n        /* \"#utility.yul\":5373:5389   */\n      add\n        /* \"#utility.yul\":5338:5403   */\n      tag_63\n      jump\t// in\n    tag_146:\n        /* \"#utility.yul\":5428:5457   */\n      tag_147\n        /* \"#utility.yul\":5450:5456   */\n      dup2\n        /* \"#utility.yul\":5428:5457   */\n      tag_53\n      jump\t// in\n    tag_147:\n        /* \"#utility.yul\":5423:5426   */\n      dup5\n        /* \"#utility.yul\":5419:5458   */\n      add\n        /* \"#utility.yul\":5412:5458   */\n      swap2\n      pop\n        /* \"#utility.yul\":5179:5464   */\n      pop\n        /* \"#utility.yul\":5087:5464   */\n      swap3\n      swap2\n      pop\n      pop\n      jump\t// out\n        /* \"#utility.yul\":5470:6185   */\n    tag_14:\n        /* \"#utility.yul\":5679:5683   */\n      0x00\n        /* \"#utility.yul\":5717:5719   */\n      0x60\n        /* \"#utility.yul\":5706:5715   */\n      dup3\n        /* \"#utility.yul\":5702:5720   */\n      add\n        /* \"#utility.yul\":5694:5720   */\n      swap1\n      pop\n        /* \"#utility.yul\":5766:5775   */\n      dup2\n        /* \"#utility.yul\":5760:5764   */\n      dup2\n        /* \"#utility.yul\":5756:5776   */\n      sub\n        /* \"#utility.yul\":5752:5753   */\n      0x00\n        /* \"#utility.yul\":5741:5750   */\n      dup4\n        /* \"#utility.yul\":5737:5754   */\n      add\n        /* \"#utility.yul\":5730:5777   */\n      mstore\n        /* \"#utility.yul\":5794:5872   */\n      tag_149\n        /* \"#utility.yul\":5867:5871   */\n      dup2\n        /* \"#utility.yul\":5858:5864   */\n      dup7\n        /* \"#utility.yul\":5794:5872   */\n      tag_64\n      jump\t// in\n    tag_149:\n        /* \"#utility.yul\":5786:5872   */\n      swap1\n      pop\n        /* \"#utility.yul\":5919:5928   */\n      dup2\n        /* \"#utility.yul\":5913:5917   */\n      dup2\n        /* \"#utility.yul\":5909:5929   */\n      sub\n        /* \"#utility.yul\":5904:5906   */\n      0x20\n        /* \"#utility.yul\":5893:5902   */\n      dup4\n        /* \"#utility.yul\":5889:5907   */\n      add\n        /* \"#utility.yul\":5882:5930   */\n      mstore\n        /* \"#utility.yul\":5947:6025   */\n      tag_150\n        /* \"#utility.yul\":6020:6024   */\n      dup2\n        /* \"#utility.yul\":6011:6017   */\n      dup6\n        /* \"#utility.yul\":5947:6025   */\n      tag_64\n      jump\t// in\n    tag_150:\n        /* \"#utility.yul\":5939:6025   */\n      swap1\n      pop\n        /* \"#utility.yul\":6072:6081   */\n      dup2\n        /* \"#utility.yul\":6066:6070   */\n      dup2\n        /* \"#utility.yul\":6062:6082   */\n      sub\n        /* \"#utility.yul\":6057:6059   */\n      0x40\n        /* \"#utility.yul\":6046:6055   */\n      dup4\n        /* \"#utility.yul\":6042:6060   */\n      add\n        /* \"#utility.yul\":6035:6083   */\n      mstore\n        /* \"#utility.yul\":6100:6178   */\n      tag_151\n        /* \"#utility.yul\":6173:6177   */\n      dup2\n        /* \"#utility.yul\":6164:6170   */\n      dup5\n        /* \"#utility.yul\":6100:6178   */\n      tag_64\n      jump\t// in\n    tag_151:\n        /* \"#utility.yul\":6092:6178   */\n      swap1\n      pop\n        /* \"#utility.yul\":5470:6185   */\n      swap5\n      swap4\n      pop\n      pop\n      pop\n      pop\n      jump\t// out\n        /* \"#utility.yul\":6191:6362   */\n    tag_65:\n        /* \"#utility.yul\":6331:6354   */\n      0x416363657373206973206e6f7420616c6c6f7765640000000000000000000000\n        /* \"#utility.yul\":6327:6328   */\n      0x00\n        /* \"#utility.yul\":6319:6325   */\n      dup3\n        /* \"#utility.yul\":6315:6329   */\n      add\n        /* \"#utility.yul\":6308:6355   */\n      mstore\n        /* \"#utility.yul\":6191:6362   */\n      pop\n      jump\t// out\n        /* \"#utility.yul\":6368:6734   */\n    tag_66:\n        /* \"#utility.yul\":6510:6513   */\n      0x00\n        /* \"#utility.yul\":6531:6598   */\n      tag_154\n        /* \"#utility.yul\":6595:6597   */\n      0x15\n        /* \"#utility.yul\":6590:6593   */\n      dup4\n        /* \"#utility.yul\":6531:6598   */\n      tag_62\n      jump\t// in\n    tag_154:\n        /* \"#utility.yul\":6524:6598   */\n      swap2\n      pop\n        /* \"#utility.yul\":6607:6700   */\n      tag_155\n        /* \"#utility.yul\":6696:6699   */\n      dup3\n        /* \"#utility.yul\":6607:6700   */\n      tag_65\n      jump\t// in\n    tag_155:\n        /* \"#utility.yul\":6725:6727   */\n      0x20\n        /* \"#utility.yul\":6720:6723   */\n      dup3\n        /* \"#utility.yul\":6716:6728   */\n      add\n        /* \"#utility.yul\":6709:6728   */\n      swap1\n      pop\n        /* \"#utility.yul\":6368:6734   */\n      swap2\n      swap1\n      pop\n      jump\t// out\n        /* \"#utility.yul\":6740:7159   */\n    tag_18:\n        /* \"#utility.yul\":6906:6910   */\n      0x00\n        /* \"#utility.yul\":6944:6946   */\n      0x20\n        /* \"#utility.yul\":6933:6942   */\n      dup3\n        /* \"#utility.yul\":6929:6947   */\n      add\n        /* \"#utility.yul\":6921:6947   */\n      swap1\n      pop\n        /* \"#utility.yul\":6993:7002   */\n      dup2\n        /* \"#utility.yul\":6987:6991   */\n      dup2\n        /* \"#utility.yul\":6983:7003   */\n      sub\n        /* \"#utility.yul\":6979:6980   */\n      0x00\n        /* \"#utility.yul\":6968:6977   */\n      dup4\n        /* \"#utility.yul\":6964:6981   */\n      add\n        /* \"#utility.yul\":6957:7004   */\n      mstore\n        /* \"#utility.yul\":7021:7152   */\n      tag_157\n        /* \"#utility.yul\":7147:7151   */\n      dup2\n        /* \"#utility.yul\":7021:7152   */\n      tag_66\n      jump\t// in\n    tag_157:\n        /* \"#utility.yul\":7013:7152   */\n      swap1\n      pop\n        /* \"#utility.yul\":6740:7159   */\n      swap2\n      swap1\n      pop\n      jump\t// out\n        /* \"#utility.yul\":7165:7345   */\n    tag_67:\n        /* \"#utility.yul\":7213:7290   */\n      0x4e487b7100000000000000000000000000000000000000000000000000000000\n        /* \"#utility.yul\":7210:7211   */\n      0x00\n        /* \"#utility.yul\":7203:7291   */\n      mstore\n        /* \"#utility.yul\":7310:7314   */\n      0x22\n        /* \"#utility.yul\":7307:7308   */\n      0x04\n        /* \"#utility.yul\":7300:7315   */\n      mstore\n        /* \"#utility.yul\":7334:7338   */\n      0x24\n        /* \"#utility.yul\":7331:7332   */\n      0x00\n        /* \"#utility.yul\":7324:7339   */\n      revert\n        /* \"#utility.yul\":7351:7671   */\n    tag_30:\n        /* \"#utility.yul\":7395:7401   */\n      0x00\n        /* \"#utility.yul\":7432:7433   */\n      0x02\n        /* \"#utility.yul\":7426:7430   */\n      dup3\n        /* \"#utility.yul\":7422:7434   */\n      div\n        /* \"#utility.yul\":7412:7434   */\n      swap1\n      pop\n        /* \"#utility.yul\":7479:7480   */\n      0x01\n        /* \"#utility.yul\":7473:7477   */\n      dup3\n        /* \"#utility.yul\":7469:7481   */\n      and\n        /* \"#utility.yul\":7500:7518   */\n      dup1\n        /* \"#utility.yul\":7490:7571   */\n      tag_160\n      jumpi\n        /* \"#utility.yul\":7556:7560   */\n      0x7f\n        /* \"#utility.yul\":7548:7554   */\n      dup3\n        /* \"#utility.yul\":7544:7561   */\n      and\n        /* \"#utility.yul\":7534:7561   */\n      swap2\n      pop\n        /* \"#utility.yul\":7490:7571   */\n    tag_160:\n        /* \"#utility.yul\":7618:7620   */\n      0x20\n        /* \"#utility.yul\":7610:7616   */\n      dup3\n        /* \"#utility.yul\":7607:7621   */\n      lt\n        /* \"#utility.yul\":7587:7605   */\n      dup2\n        /* \"#utility.yul\":7584:7622   */\n      sub\n        /* \"#utility.yul\":7581:7665   */\n      tag_161\n      jumpi\n        /* \"#utility.yul\":7637:7655   */\n      tag_162\n      tag_67\n      jump\t// in\n    tag_162:\n        /* \"#utility.yul\":7581:7665   */\n    tag_161:\n        /* \"#utility.yul\":7402:7671   */\n      pop\n        /* \"#utility.yul\":7351:7671   */\n      swap2\n      swap1\n      pop\n      jump\t// out\n        /* \"#utility.yul\":7677:7818   */\n    tag_68:\n        /* \"#utility.yul\":7726:7730   */\n      0x00\n        /* \"#utility.yul\":7749:7752   */\n      dup2\n        /* \"#utility.yul\":7741:7752   */\n      swap1\n      pop\n        /* \"#utility.yul\":7772:7775   */\n      dup2\n        /* \"#utility.yul\":7769:7770   */\n      0x00\n        /* \"#utility.yul\":7762:7776   */\n      mstore\n        /* \"#utility.yul\":7806:7810   */\n      0x20\n        /* \"#utility.yul\":7803:7804   */\n      0x00\n        /* \"#utility.yul\":7793:7811   */\n      keccak256\n        /* \"#utility.yul\":7785:7811   */\n      swap1\n      pop\n        /* \"#utility.yul\":7677:7818   */\n      swap2\n      swap1\n      pop\n      jump\t// out\n        /* \"#utility.yul\":7824:7917   */\n    tag_69:\n        /* \"#utility.yul\":7861:7867   */\n      0x00\n        /* \"#utility.yul\":7908:7910   */\n      0x20\n        /* \"#utility.yul\":7903:7905   */\n      0x1f\n        /* \"#utility.yul\":7896:7901   */\n      dup4\n        /* \"#utility.yul\":7892:7906   */\n      add\n        /* \"#utility.yul\":7888:7911   */\n      div\n        /* \"#utility.yul\":7878:7911   */\n      swap1\n      pop\n        /* \"#utility.yul\":7824:7917   */\n      swap2\n      swap1\n      pop\n      jump\t// out\n        /* \"#utility.yul\":7923:8030   */\n    tag_70:\n        /* \"#utility.yul\":7967:7975   */\n      0x00\n        /* \"#utility.yul\":8017:8022   */\n      dup3\n        /* \"#utility.yul\":8011:8015   */\n      dup3\n        /* \"#utility.yul\":8007:8023   */\n      shl\n        /* \"#utility.yul\":7986:8023   */\n      swap1\n      pop\n        /* \"#utility.yul\":7923:8030   */\n      swap3\n      swap2\n      pop\n      pop\n      jump\t// out\n        /* \"#utility.yul\":8036:8429   */\n    tag_71:\n        /* \"#utility.yul\":8105:8111   */\n      0x00\n        /* \"#utility.yul\":8155:8156   */\n      0x08\n        /* \"#utility.yul\":8143:8153   */\n      dup4\n        /* \"#utility.yul\":8139:8157   */\n      mul\n        /* \"#utility.yul\":8178:8275   */\n      tag_167\n        /* \"#utility.yul\":8208:8274   */\n      0xffffffffffffffffffffffffffffffffffffffffffffffffffffffffffffffff\n        /* \"#utility.yul\":8197:8206   */\n      dup3\n        /* \"#utility.yul\":8178:8275   */\n      tag_70\n      jump\t// in\n    tag_167:\n        /* \"#utility.yul\":8296:8335   */\n      tag_168\n        /* \"#utility.yul\":8326:8334   */\n      dup7\n        /* \"#utility.yul\":8315:8324   */\n      dup4\n        /* \"#utility.yul\":8296:8335   */\n      tag_70\n      jump\t// in\n    tag_168:\n        /* \"#utility.yul\":8284:8335   */\n      swap6\n      pop\n        /* \"#utility.yul\":8368:8372   */\n      dup1\n        /* \"#utility.yul\":8364:8373   */\n      not\n        /* \"#utility.yul\":8357:8362   */\n      dup5\n        /* \"#utility.yul\":8353:8374   */\n      and\n        /* \"#utility.yul\":8344:8374   */\n      swap4\n      pop\n        /* \"#utility.yul\":8417:8421   */\n      dup1\n        /* \"#utility.yul\":8407:8415   */\n      dup7\n        /* \"#utility.yul\":8403:8422   */\n      and\n        /* \"#utility.yul\":8396:8401   */\n      dup5\n        /* \"#utility.yul\":8393:8423   */\n      or\n        /* \"#utility.yul\":8383:8423   */\n      swap3\n      pop\n        /* \"#utility.yul\":8112:8429   */\n      pop\n      pop\n        /* \"#utility.yul\":8036:8429   */\n      swap4\n      swap3\n      pop\n      pop\n      pop\n      jump\t// out\n        /* \"#utility.yul\":8435:8495   */\n    tag_72:\n        /* \"#utility.yul\":8463:8466   */\n      0x00\n        /* \"#utility.yul\":8484:8489   */\n      dup2\n        /* \"#utility.yul\":8477:8489   */\n      swap1\n      pop\n        /* \"#utility.yul\":8435:8495   */\n      swap2\n      swap1\n      pop\n      jump\t// out\n        /* \"#utility.yul\":8501:8643   */\n    tag_73:\n        /* \"#utility.yul\":8551:8560   */\n      0x00\n        /* \"#utility.yul\":8584:8637   */\n      tag_171\n        /* \"#utility.yul\":8602:8636   */\n      tag_172\n        /* \"#utility.yul\":8611:8635   */\n      tag_173\n        /* \"#utility.yul\":8629:8634   */\n      dup5\n        /* \"#utility.yul\":8611:8635   */\n      tag_48\n      jump\t// in\n    tag_173:\n        /* \"#utility.yul\":8602:8636   */\n      tag_72\n      jump\t// in\n    tag_172:\n        /* \"#utility.yul\":8584:8637   */\n      tag_48\n      jump\t// in\n    tag_171:\n        /* \"#utility.yul\":8571:8637   */\n      swap1\n      pop\n        /* \"#utility.yul\":8501:8643   */\n      swap2\n      swap1\n      pop\n      jump\t// out\n        /* \"#utility.yul\":8649:8724   */\n    tag_74:\n        /* \"#utility.yul\":8692:8695   */\n      0x00\n        /* \"#utility.yul\":8713:8718   */\n      dup2\n        /* \"#utility.yul\":8706:8718   */\n      swap1\n      pop\n        /* \"#utility.yul\":8649:8724   */\n      swap2\n      swap1\n      pop\n      jump\t// out\n        /* \"#utility.yul\":8730:8999   */\n    tag_75:\n        /* \"#utility.yul\":8840:8879   */\n      tag_176\n        /* \"#utility.yul\":8871:8878   */\n      dup4\n        /* \"#utility.yul\":8840:8879   */\n      tag_73\n      jump\t// in\n    tag_176:\n        /* \"#utility.yul\":8901:8992   */\n      tag_177\n        /* \"#utility.yul\":8950:8991   */\n      tag_178\n        /* \"#utility.yul\":8974:8990   */\n      dup3\n        /* \"#utility.yul\":8950:8991   */\n      tag_74\n      jump\t// in\n    tag_178:\n        /* \"#utility.yul\":8942:8948   */\n      dup5\n        /* \"#utility.yul\":8935:8939   */\n      dup5\n        /* \"#utility.yul\":8929:8940   */\n      sload\n        /* \"#utility.yul\":8901:8992   */\n      tag_71\n      jump\t// in\n    tag_177:\n        /* \"#utility.yul\":8895:8899   */\n      dup3\n        /* \"#utility.yul\":8888:8993   */\n      sstore\n        /* \"#utility.yul\":8806:8999   */\n      pop\n        /* \"#utility.yul\":8730:8999   */\n      pop\n      pop\n      pop\n      jump\t// out\n        /* \"#utility.yul\":9005:9078   */\n    tag_76:\n        /* \"#utility.yul\":9050:9053   */\n      0x00\n        /* \"#utility.yul\":9005:9078   */\n      swap1\n      jump\t// out\n        /* \"#utility.yul\":9084:9273   */\n    tag_77:\n        /* \"#utility.yul\":9161:9193   */\n      tag_181\n      tag_76\n      jump\t// in\n    tag_181:\n        /* \"#utility.yul\":9202:9267   */\n      tag_182\n        /* \"#utility.yul\":9260:9266   */\n      dup2\n        /* \"#utility.yul\":9252:9258   */\n      dup5\n        /* \"#utility.yul\":9246:9250   */\n      dup5\n        /* \"#utility.yul\":9202:9267   */\n      tag_75\n      jump\t// in\n    tag_182:\n        /* \"#utility.yul\":9137:9273   */\n      pop\n        /* \"#utility.yul\":9084:9273   */\n      pop\n      pop\n      jump\t// out\n        /* \"#utility.yul\":9279:9465   */\n    tag_78:\n        /* \"#utility.yul\":9339:9459   */\n    tag_184:\n        /* \"#utility.yul\":9356:9359   */\n      dup2\n        /* \"#utility.yul\":9349:9354   */\n      dup2\n        /* \"#utility.yul\":9346:9360   */\n      lt\n        /* \"#utility.yul\":9339:9459   */\n      iszero\n      tag_186\n      jumpi\n        /* \"#utility.yul\":9410:9449   */\n      tag_187\n        /* \"#utility.yul\":9447:9448   */\n      0x00\n        /* \"#utility.yul\":9440:9445   */\n      dup3\n        /* \"#utility.yul\":9410:9449   */\n      tag_77\n      jump\t// in\n    tag_187:\n        /* \"#utility.yul\":9383:9384   */\n      0x01\n        /* \"#utility.yul\":9376:9381   */\n      dup2\n        /* \"#utility.yul\":9372:9385   */\n      add\n        /* \"#utility.yul\":9363:9385   */\n      swap1\n      pop\n        /* \"#utility.yul\":9339:9459   */\n      jump(tag_184)\n    tag_186:\n        /* \"#utility.yul\":9279:9465   */\n      pop\n      pop\n      jump\t// out\n        /* \"#utility.yul\":9471:10014   */\n    tag_79:\n        /* \"#utility.yul\":9572:9574   */\n      0x1f\n        /* \"#utility.yul\":9567:9570   */\n      dup3\n        /* \"#utility.yul\":9564:9575   */\n      gt\n        /* \"#utility.yul\":9561:10007   */\n      iszero\n      tag_189\n      jumpi\n        /* \"#utility.yul\":9606:9644   */\n      tag_190\n        /* \"#utility.yul\":9638:9643   */\n      dup2\n        /* \"#utility.yul\":9606:9644   */\n      tag_68\n      jump\t// in\n    tag_190:\n        /* \"#utility.yul\":9690:9719   */\n      tag_191\n        /* \"#utility.yul\":9708:9718   */\n      dup5\n        /* \"#utility.yul\":9690:9719   */\n      tag_69\n      jump\t// in\n    tag_191:\n        /* \"#utility.yul\":9680:9688   */\n      dup2\n        /* \"#utility.yul\":9676:9720   */\n      add\n        /* \"#utility.yul\":9873:9875   */\n      0x20\n        /* \"#utility.yul\":9861:9871   */\n      dup6\n        /* \"#utility.yul\":9858:9876   */\n      lt\n        /* \"#utility.yul\":9855:9904   */\n      iszero\n      tag_192\n      jumpi\n        /* \"#utility.yul\":9894:9902   */\n      dup2\n        /* \"#utility.yul\":9879:9902   */\n      swap1\n      pop\n        /* \"#utility.yul\":9855:9904   */\n    tag_192:\n        /* \"#utility.yul\":9917:9997   */\n      tag_193\n        /* \"#utility.yul\":9973:9995   */\n      tag_194\n        /* \"#utility.yul\":9991:9994   */\n      dup6\n        /* \"#utility.yul\":9973:9995   */\n      tag_69\n      jump\t// in\n    tag_194:\n        /* \"#utility.yul\":9963:9971   */\n      dup4\n        /* \"#utility.yul\":9959:9996   */\n      add\n        /* \"#utility.yul\":9946:9957   */\n      dup3\n        /* \"#utility.yul\":9917:9997   */\n      tag_78\n      jump\t// in\n    tag_193:\n        /* \"#utility.yul\":9576:10007   */\n      pop\n      pop\n        /* \"#utility.yul\":9561:10007   */\n    tag_189:\n        /* \"#utility.yul\":9471:10014   */\n      pop\n      pop\n      pop\n      jump\t// out\n        /* \"#utility.yul\":10020:10137   */\n    tag_80:\n        /* \"#utility.yul\":10074:10082   */\n      0x00\n        /* \"#utility.yul\":10124:10129   */\n      dup3\n        /* \"#utility.yul\":10118:10122   */\n      dup3\n        /* \"#utility.yul\":10114:10130   */\n      shr\n        /* \"#utility.yul\":10093:10130   */\n      swap1\n      pop\n        /* \"#utility.yul\":10020:10137   */\n      swap3\n      swap2\n      pop\n      pop\n      jump\t// out\n        /* \"#utility.yul\":10143:10312   */\n    tag_81:\n        /* \"#utility.yul\":10187:10193   */\n      0x00\n        /* \"#utility.yul\":10220:10271   */\n      tag_197\n        /* \"#utility.yul\":10268:10269   */\n      0x00\n        /* \"#utility.yul\":10264:10270   */\n      not\n        /* \"#utility.yul\":10256:10261   */\n      dup5\n        /* \"#utility.yul\":10253:10254   */\n      0x08\n        /* \"#utility.yul\":10249:10262   */\n      mul\n        /* \"#utility.yul\":10220:10271   */\n      tag_80\n      jump\t// in\n    tag_197:\n        /* \"#utility.yul\":10216:10272   */\n      not\n        /* \"#utility.yul\":10301:10305   */\n      dup1\n        /* \"#utility.yul\":10295:10299   */\n      dup4\n        /* \"#utility.yul\":10291:10306   */\n      and\n        /* \"#utility.yul\":10281:10306   */\n      swap2\n      pop\n        /* \"#utility.yul\":10194:10312   */\n      pop\n        /* \"#utility.yul\":10143:10312   */\n      swap3\n      swap2\n      pop\n      pop\n      jump\t// out\n        /* \"#utility.yul\":10317:10612   */\n    tag_82:\n        /* \"#utility.yul\":10393:10397   */\n      0x00\n        /* \"#utility.yul\":10539:10568   */\n      tag_199\n        /* \"#utility.yul\":10564:10567   */\n      dup4\n        /* \"#utility.yul\":10558:10562   */\n      dup4\n        /* \"#utility.yul\":10539:10568   */\n      tag_81\n      jump\t// in\n    tag_199:\n        /* \"#utility.yul\":10531:10568   */\n      swap2\n      pop\n        /* \"#utility.yul\":10601:10604   */\n      dup3\n        /* \"#utility.yul\":10598:10599   */\n      0x02\n        /* \"#utility.yul\":10594:10605   */\n      mul\n        /* \"#utility.yul\":10588:10592   */\n      dup3\n        /* \"#utility.yul\":10585:10606   */\n      or\n        /* \"#utility.yul\":10577:10606   */\n      swap1\n      pop\n        /* \"#utility.yul\":10317:10612   */\n      swap3\n      swap2\n      pop\n      pop\n      jump\t// out\n        /* \"#utility.yul\":10617:12012   */\n    tag_21:\n        /* \"#utility.yul\":10734:10771   */\n      tag_201\n        /* \"#utility.yul\":10767:10770   */\n      dup3\n        /* \"#utility.yul\":10734:10771   */\n      tag_61\n      jump\t// in\n    tag_201:\n        /* \"#utility.yul\":10836:10854   */\n      0xffffffffffffffff\n        /* \"#utility.yul\":10828:10834   */\n      dup2\n        /* \"#utility.yul\":10825:10855   */\n      gt\n        /* \"#utility.yul\":10822:10878   */\n      iszero\n      tag_202\n      jumpi\n        /* \"#utility.yul\":10858:10876   */\n      tag_203\n      tag_54\n      jump\t// in\n    tag_203:\n        /* \"#utility.yul\":10822:10878   */\n    tag_202:\n        /* \"#utility.yul\":10902:10940   */\n      tag_204\n        /* \"#utility.yul\":10934:10938   */\n      dup3\n        /* \"#utility.yul\":10928:10939   */\n      sload\n        /* \"#utility.yul\":10902:10940   */\n      tag_30\n      jump\t// in\n    tag_204:\n        /* \"#utility.yul\":10987:11054   */\n      tag_205\n        /* \"#utility.yul\":11047:11053   */\n      dup3\n        /* \"#utility.yul\":11039:11045   */\n      dup3\n        /* \"#utility.yul\":11033:11037   */\n      dup6\n        /* \"#utility.yul\":10987:11054   */\n      tag_79\n      jump\t// in\n    tag_205:\n        /* \"#utility.yul\":11081:11082   */\n      0x00\n        /* \"#utility.yul\":11105:11109   */\n      0x20\n        /* \"#utility.yul\":11092:11109   */\n      swap1\n      pop\n        /* \"#utility.yul\":11137:11139   */\n      0x1f\n        /* \"#utility.yul\":11129:11135   */\n      dup4\n        /* \"#utility.yul\":11126:11140   */\n      gt\n        /* \"#utility.yul\":11154:11155   */\n      0x01\n        /* \"#utility.yul\":11149:11767   */\n      dup2\n      eq\n      tag_207\n      jumpi\n        /* \"#utility.yul\":11811:11812   */\n      0x00\n        /* \"#utility.yul\":11828:11834   */\n      dup5\n        /* \"#utility.yul\":11825:11902   */\n      iszero\n      tag_208\n      jumpi\n        /* \"#utility.yul\":11877:11886   */\n      dup3\n        /* \"#utility.yul\":11872:11875   */\n      dup8\n        /* \"#utility.yul\":11868:11887   */\n      add\n        /* \"#utility.yul\":11862:11888   */\n      mload\n        /* \"#utility.yul\":11853:11888   */\n      swap1\n      pop\n        /* \"#utility.yul\":11825:11902   */\n    tag_208:\n        /* \"#utility.yul\":11928:11995   */\n      tag_209\n        /* \"#utility.yul\":11988:11994   */\n      dup6\n        /* \"#utility.yul\":11981:11986   */\n      dup3\n        /* \"#utility.yul\":11928:11995   */\n      tag_82\n      jump\t// in\n    tag_209:\n        /* \"#utility.yul\":11922:11926   */\n      dup7\n        /* \"#utility.yul\":11915:11996   */\n      sstore\n        /* \"#utility.yul\":11784:12006   */\n      pop\n        /* \"#utility.yul\":11119:12006   */\n      jump(tag_206)\n        /* \"#utility.yul\":11149:11767   */\n    tag_207:\n        /* \"#utility.yul\":11201:11205   */\n      0x1f\n        /* \"#utility.yul\":11197:11206   */\n      not\n        /* \"#utility.yul\":11189:11195   */\n      dup5\n        /* \"#utility.yul\":11185:11207   */\n      and\n        /* \"#utility.yul\":11235:11272   */\n      tag_210\n        /* \"#utility.yul\":11267:11271   */\n      dup7\n        /* \"#utility.yul\":11235:11272   */\n      tag_68\n      jump\t// in\n    tag_210:\n        /* \"#utility.yul\":11294:11295   */\n      0x00\n        /* \"#utility.yul\":11308:11516   */\n    tag_211:\n        /* \"#utility.yul\":11322:11329   */\n      dup3\n        /* \"#utility.yul\":11319:11320   */\n      dup2\n        /* \"#utility.yul\":11316:11330   */\n      lt\n        /* \"#utility.yul\":11308:11516   */\n      iszero\n      tag_213\n      jumpi\n        /* \"#utility.yul\":11401:11410   */\n      dup5\n        /* \"#utility.yul\":11396:11399   */\n      dup10\n        /* \"#utility.yul\":11392:11411   */\n      add\n        /* \"#utility.yul\":11386:11412   */\n      mload\n        /* \"#utility.yul\":11378:11384   */\n      dup3\n        /* \"#utility.yul\":11371:11413   */\n      sstore\n        /* \"#utility.yul\":11452:11453   */\n      0x01\n        /* \"#utility.yul\":11444:11450   */\n      dup3\n        /* \"#utility.yul\":11440:11454   */\n      add\n        /* \"#utility.yul\":11430:11454   */\n      swap2\n      pop\n        /* \"#utility.yul\":11499:11501   */\n      0x20\n        /* \"#utility.yul\":11488:11497   */\n      dup6\n        /* \"#utility.yul\":11484:11502   */\n      add\n        /* \"#utility.yul\":11471:11502   */\n      swap5\n      pop\n        /* \"#utility.yul\":11345:11349   */\n      0x20\n        /* \"#utility.yul\":11342:11343   */\n      dup2\n        /* \"#utility.yul\":11338:11350   */\n      add\n        /* \"#utility.yul\":11333:11350   */\n      swap1\n      pop\n        /* \"#utility.yul\":11308:11516   */\n      jump(tag_211)\n    tag_213:\n        /* \"#utility.yul\":11544:11550   */\n      dup7\n        /* \"#utility.yul\":11535:11542   */\n      dup4\n        /* \"#utility.yul\":11532:11551   */\n      lt\n        /* \"#utility.yul\":11529:11708   */\n      iszero\n      tag_214\n      jumpi\n        /* \"#utility.yul\":11602:11611   */\n      dup5\n        /* \"#utility.yul\":11597:11600   */\n      dup10\n        /* \"#utility.yul\":11593:11612   */\n      add\n        /* \"#utility.yul\":11587:11613   */\n      mload\n        /* \"#utility.yul\":11645:11693   */\n      tag_215\n        /* \"#utility.yul\":11687:11691   */\n      0x1f\n        /* \"#utility.yul\":11679:11685   */\n      dup10\n        /* \"#utility.yul\":11675:11692   */\n      and\n        /* \"#utility.yul\":11664:11673   */\n      dup3\n        /* \"#utility.yul\":11645:11693   */\n      tag_81\n      jump\t// in\n    tag_215:\n        /* \"#utility.yul\":11637:11643   */\n      dup4\n        /* \"#utility.yul\":11630:11694   */\n      sstore\n        /* \"#utility.yul\":11552:11708   */\n      pop\n        /* \"#utility.yul\":11529:11708   */\n    tag_214:\n        /* \"#utility.yul\":11754:11755   */\n      0x01\n        /* \"#utility.yul\":11750:11751   */\n      0x02\n        /* \"#utility.yul\":11742:11748   */\n      dup9\n        /* \"#utility.yul\":11738:11752   */\n      mul\n        /* \"#utility.yul\":11734:11756   */\n      add\n        /* \"#utility.yul\":11728:11732   */\n      dup9\n        /* \"#utility.yul\":11721:11757   */\n      sstore\n        /* \"#utility.yul\":11156:11767   */\n      pop\n      pop\n      pop\n        /* \"#utility.yul\":11119:12006   */\n    tag_206:\n      pop\n        /* \"#utility.yul\":10709:12012   */\n      pop\n      pop\n      pop\n        /* \"#utility.yul\":10617:12012   */\n      pop\n      pop\n      jump\t// out\n        /* \"#utility.yul\":12018:12167   */\n    tag_83:\n        /* \"#utility.yul\":12067:12073   */\n      0x00\n        /* \"#utility.yul\":12101:12106   */\n      dup2\n        /* \"#utility.yul\":12095:12107   */\n      sload\n        /* \"#utility.yul\":12085:12107   */\n      swap1\n      pop\n        /* \"#utility.yul\":12127:12160   */\n      tag_217\n        /* \"#utility.yul\":12153:12159   */\n      dup2\n        /* \"#utility.yul\":12127:12160   */\n      tag_30\n      jump\t// in\n    tag_217:\n        /* \"#utility.yul\":12117:12160   */\n      swap1\n      pop\n        /* \"#utility.yul\":12018:12167   */\n      swap2\n      swap1\n      pop\n      jump\t// out\n        /* \"#utility.yul\":12173:13624   */\n    tag_25:\n        /* \"#utility.yul\":12284:12287   */\n      dup2\n        /* \"#utility.yul\":12278:12282   */\n      dup2\n        /* \"#utility.yul\":12275:12288   */\n      sub\n        /* \"#utility.yul\":12272:12298   */\n      tag_219\n      jumpi\n        /* \"#utility.yul\":12291:12296   */\n      pop\n      pop\n      jump(tag_218)\n        /* \"#utility.yul\":12272:12298   */\n    tag_219:\n        /* \"#utility.yul\":12322:12356   */\n      tag_220\n        /* \"#utility.yul\":12352:12355   */\n      dup3\n        /* \"#utility.yul\":12322:12356   */\n      tag_83\n      jump\t// in\n    tag_220:\n        /* \"#utility.yul\":12421:12439   */\n      0xffffffffffffffff\n        /* \"#utility.yul\":12413:12419   */\n      dup2\n        /* \"#utility.yul\":12410:12440   */\n      gt\n        /* \"#utility.yul\":12407:12463   */\n      iszero\n      tag_221\n      jumpi\n        /* \"#utility.yul\":12443:12461   */\n      tag_222\n      tag_54\n      jump\t// in\n    tag_222:\n        /* \"#utility.yul\":12407:12463   */\n    tag_221:\n        /* \"#utility.yul\":12487:12525   */\n      tag_223\n        /* \"#utility.yul\":12519:12523   */\n      dup3\n        /* \"#utility.yul\":12513:12524   */\n      sload\n        /* \"#utility.yul\":12487:12525   */\n      tag_30\n      jump\t// in\n    tag_223:\n        /* \"#utility.yul\":12572:12639   */\n      tag_224\n        /* \"#utility.yul\":12632:12638   */\n      dup3\n        /* \"#utility.yul\":12624:12630   */\n      dup3\n        /* \"#utility.yul\":12618:12622   */\n      dup6\n        /* \"#utility.yul\":12572:12639   */\n      tag_79\n      jump\t// in\n    tag_224:\n        /* \"#utility.yul\":12666:12667   */\n      0x00\n        /* \"#utility.yul\":12695:12697   */\n      0x1f\n        /* \"#utility.yul\":12687:12693   */\n      dup4\n        /* \"#utility.yul\":12684:12698   */\n      gt\n        /* \"#utility.yul\":12712:12713   */\n      0x01\n        /* \"#utility.yul\":12707:13379   */\n      dup2\n      eq\n      tag_226\n      jumpi\n        /* \"#utility.yul\":13423:13424   */\n      0x00\n        /* \"#utility.yul\":13440:13446   */\n      dup5\n        /* \"#utility.yul\":13437:13514   */\n      iszero\n      tag_227\n      jumpi\n        /* \"#utility.yul\":13489:13498   */\n      dup3\n        /* \"#utility.yul\":13484:13487   */\n      dup8\n        /* \"#utility.yul\":13480:13499   */\n      add\n        /* \"#utility.yul\":13474:13500   */\n      sload\n        /* \"#utility.yul\":13465:13500   */\n      swap1\n      pop\n        /* \"#utility.yul\":13437:13514   */\n    tag_227:\n        /* \"#utility.yul\":13540:13607   */\n      tag_228\n        /* \"#utility.yul\":13600:13606   */\n      dup6\n        /* \"#utility.yul\":13593:13598   */\n      dup3\n        /* \"#utility.yul\":13540:13607   */\n      tag_82\n      jump\t// in\n    tag_228:\n        /* \"#utility.yul\":13534:13538   */\n      dup7\n        /* \"#utility.yul\":13527:13608   */\n      sstore\n        /* \"#utility.yul\":13396:13618   */\n      pop\n        /* \"#utility.yul\":12677:13618   */\n      jump(tag_225)\n        /* \"#utility.yul\":12707:13379   */\n    tag_226:\n        /* \"#utility.yul\":12759:12763   */\n      0x1f\n        /* \"#utility.yul\":12755:12764   */\n      not\n        /* \"#utility.yul\":12747:12753   */\n      dup5\n        /* \"#utility.yul\":12743:12765   */\n      and\n        /* \"#utility.yul\":12785:12821   */\n      tag_229\n        /* \"#utility.yul\":12817:12820   */\n      dup8\n        /* \"#utility.yul\":12785:12821   */\n      tag_68\n      jump\t// in\n    tag_229:\n        /* \"#utility.yul\":12778:12821   */\n      swap7\n      pop\n        /* \"#utility.yul\":12848:12885   */\n      tag_230\n        /* \"#utility.yul\":12880:12884   */\n      dup7\n        /* \"#utility.yul\":12848:12885   */\n      tag_68\n      jump\t// in\n    tag_230:\n        /* \"#utility.yul\":12907:12908   */\n      0x00\n        /* \"#utility.yul\":12921:13128   */\n    tag_231:\n        /* \"#utility.yul\":12935:12942   */\n      dup3\n        /* \"#utility.yul\":12932:12933   */\n      dup2\n        /* \"#utility.yul\":12929:12943   */\n      lt\n        /* \"#utility.yul\":12921:13128   */\n      iszero\n      tag_233\n      jumpi\n        /* \"#utility.yul\":13014:13023   */\n      dup5\n        /* \"#utility.yul\":13009:13012   */\n      dup10\n        /* \"#utility.yul\":13005:13024   */\n      add\n        /* \"#utility.yul\":12999:13025   */\n      sload\n        /* \"#utility.yul\":12991:12997   */\n      dup3\n        /* \"#utility.yul\":12984:13026   */\n      sstore\n        /* \"#utility.yul\":13065:13066   */\n      0x01\n        /* \"#utility.yul\":13057:13063   */\n      dup3\n        /* \"#utility.yul\":13053:13067   */\n      add\n        /* \"#utility.yul\":13043:13067   */\n      swap2\n      pop\n        /* \"#utility.yul\":13112:13113   */\n      0x01\n        /* \"#utility.yul\":13101:13110   */\n      dup6\n        /* \"#utility.yul\":13097:13114   */\n      add\n        /* \"#utility.yul\":13084:13114   */\n      swap5\n      pop\n        /* \"#utility.yul\":12958:12962   */\n      0x20\n        /* \"#utility.yul\":12955:12956   */\n      dup2\n        /* \"#utility.yul\":12951:12963   */\n      add\n        /* \"#utility.yul\":12946:12963   */\n      swap1\n      pop\n        /* \"#utility.yul\":12921:13128   */\n      jump(tag_231)\n    tag_233:\n        /* \"#utility.yul\":13156:13162   */\n      dup7\n        /* \"#utility.yul\":13147:13154   */\n      dup4\n        /* \"#utility.yul\":13144:13163   */\n      lt\n        /* \"#utility.yul\":13141:13320   */\n      iszero\n      tag_234\n      jumpi\n        /* \"#utility.yul\":13214:13223   */\n      dup5\n        /* \"#utility.yul\":13209:13212   */\n      dup10\n        /* \"#utility.yul\":13205:13224   */\n      add\n        /* \"#utility.yul\":13199:13225   */\n      sload\n        /* \"#utility.yul\":13257:13305   */\n      tag_235\n        /* \"#utility.yul\":13299:13303   */\n      0x1f\n        /* \"#utility.yul\":13291:13297   */\n      dup10\n        /* \"#utility.yul\":13287:13304   */\n      and\n        /* \"#utility.yul\":13276:13285   */\n      dup3\n        /* \"#utility.yul\":13257:13305   */\n      tag_81\n      jump\t// in\n    tag_235:\n        /* \"#utility.yul\":13249:13255   */\n      dup4\n        /* \"#utility.yul\":13242:13306   */\n      sstore\n        /* \"#utility.yul\":13164:13320   */\n      pop\n        /* \"#utility.yul\":13141:13320   */\n    tag_234:\n        /* \"#utility.yul\":13366:13367   */\n      0x01\n        /* \"#utility.yul\":13362:13363   */\n      0x02\n        /* \"#utility.yul\":13354:13360   */\n      dup9\n        /* \"#utility.yul\":13350:13364   */\n      mul\n        /* \"#utility.yul\":13346:13368   */\n      add\n        /* \"#utility.yul\":13340:13344   */\n      dup9\n        /* \"#utility.yul\":13333:13369   */\n      sstore\n        /* \"#utility.yul\":12714:13379   */\n      pop\n      pop\n      pop\n        /* \"#utility.yul\":12677:13618   */\n    tag_225:\n      pop\n        /* \"#utility.yul\":12262:13624   */\n      pop\n      pop\n      pop\n        /* \"#utility.yul\":12173:13624   */\n      pop\n      pop\n    tag_218:\n      jump\t// out\n\n    auxdata: 0xa26469706673582212203588cc1ce94f7e8560966149982fa0021e8071cca7c7039c5ffd4d54032a08ba64736f6c63430008160033\n}\n",
				"bytecode": {
					"linkReferences": {},
					"object": "608060405234801561000f575f80fd5b503360045f6101000a81548173ffffffffffffffffffffffffffffffffffffffff021916908373ffffffffffffffffffffffffffffffffffffffff160217905550610b1a8061005d5f395ff3fe608060405234801561000f575f80fd5b5060043610610034575f3560e01c80631ae73fe114610038578063c1a4cfb614610054575b5f80fd5b610052600480360381019061004d9190610512565b610086565b005b61006e600480360381019061006991906105ca565b6101a4565b60405161007d9392919061066f565b60405180910390f35b60045f9054906101000a900473ffffffffffffffffffffffffffffffffffffffff1673ffffffffffffffffffffffffffffffffffffffff163373ffffffffffffffffffffffffffffffffffffffff1614610115576040517f08c379a000000000000000000000000000000000000000000000000000000000815260040161010c90610703565b60405180910390fd5b8260015f019081610126919061091b565b5081600180019081610138919061091b565b50806001600201908161014b919061091b565b5060015f808681526020019081526020015f205f8201815f01908161017091906109ff565b506001820181600101908161018591906109ff565b506002820181600201908161019a91906109ff565b5090505050505050565b60608060605f805f8681526020019081526020015f206040518060600160405290815f820180546101d49061074e565b80601f01602080910402602001604051908101604052809291908181526020018280546102009061074e565b801561024b5780601f106102225761010080835404028352916020019161024b565b820191905f5260205f20905b81548152906001019060200180831161022e57829003601f168201915b505050505081526020016001820180546102649061074e565b80601f01602080910402602001604051908101604052809291908181526020018280546102909061074e565b80156102db5780601f106102b2576101008083540402835291602001916102db565b820191905f5260205f20905b8154815290600101906020018083116102be57829003601f168201915b505050505081526020016002820180546102f49061074e565b80601f01602080910402602001604051908101604052809291908181526020018280546103209061074e565b801561036b5780601f106103425761010080835404028352916020019161036b565b820191905f5260205f20905b81548152906001019060200180831161034e57829003601f168201915b5050505050815250509050805f015181602001518260400151935093509350509193909250565b5f604051905090565b5f80fd5b5f80fd5b5f819050919050565b6103b5816103a3565b81146103bf575f80fd5b50565b5f813590506103d0816103ac565b92915050565b5f80fd5b5f80fd5b5f601f19601f8301169050919050565b7f4e487b71000000000000000000000000000000000000000000000000000000005f52604160045260245ffd5b610424826103de565b810181811067ffffffffffffffff82111715610443576104426103ee565b5b80604052505050565b5f610455610392565b9050610461828261041b565b919050565b5f67ffffffffffffffff8211156104805761047f6103ee565b5b610489826103de565b9050602081019050919050565b828183375f83830152505050565b5f6104b66104b184610466565b61044c565b9050828152602081018484840111156104d2576104d16103da565b5b6104dd848285610496565b509392505050565b5f82601f8301126104f9576104f86103d6565b5b81356105098482602086016104a4565b91505092915050565b5f805f806080858703121561052a5761052961039b565b5b5f610537878288016103c2565b945050602085013567ffffffffffffffff8111156105585761055761039f565b5b610564878288016104e5565b935050604085013567ffffffffffffffff8111156105855761058461039f565b5b610591878288016104e5565b925050606085013567ffffffffffffffff8111156105b2576105b161039f565b5b6105be878288016104e5565b91505092959194509250565b5f602082840312156105df576105de61039b565b5b5f6105ec848285016103c2565b91505092915050565b5f81519050919050565b5f82825260208201905092915050565b5f5b8381101561062c578082015181840152602081019050610611565b5f8484015250505050565b5f610641826105f5565b61064b81856105ff565b935061065b81856020860161060f565b610664816103de565b840191505092915050565b5f6060820190508181035f8301526106878186610637565b9050818103602083015261069b8185610637565b905081810360408301526106af8184610637565b9050949350505050565b7f416363657373206973206e6f7420616c6c6f77656400000000000000000000005f82015250565b5f6106ed6015836105ff565b91506106f8826106b9565b602082019050919050565b5f6020820190508181035f83015261071a816106e1565b9050919050565b7f4e487b71000000000000000000000000000000000000000000000000000000005f52602260045260245ffd5b5f600282049050600182168061076557607f821691505b60208210810361077857610777610721565b5b50919050565b5f819050815f5260205f209050919050565b5f6020601f8301049050919050565b5f82821b905092915050565b5f600883026107da7fffffffffffffffffffffffffffffffffffffffffffffffffffffffffffffffff8261079f565b6107e4868361079f565b95508019841693508086168417925050509392505050565b5f819050919050565b5f61081f61081a610815846103a3565b6107fc565b6103a3565b9050919050565b5f819050919050565b61083883610805565b61084c61084482610826565b8484546107ab565b825550505050565b5f90565b610860610854565b61086b81848461082f565b505050565b5b8181101561088e576108835f82610858565b600181019050610871565b5050565b601f8211156108d3576108a48161077e565b6108ad84610790565b810160208510156108bc578190505b6108d06108c885610790565b830182610870565b50505b505050565b5f82821c905092915050565b5f6108f35f19846008026108d8565b1980831691505092915050565b5f61090b83836108e4565b9150826002028217905092915050565b610924826105f5565b67ffffffffffffffff81111561093d5761093c6103ee565b5b610947825461074e565b610952828285610892565b5f60209050601f831160018114610983575f8415610971578287015190505b61097b8582610900565b8655506109e2565b601f1984166109918661077e565b5f5b828110156109b857848901518255600182019150602085019450602081019050610993565b868310156109d557848901516109d1601f8916826108e4565b8355505b6001600288020188555050505b505050505050565b5f815490506109f88161074e565b9050919050565b818103610a0d575050610ae2565b610a16826109ea565b67ffffffffffffffff811115610a2f57610a2e6103ee565b5b610a39825461074e565b610a44828285610892565b5f601f831160018114610a71575f8415610a5f578287015490505b610a698582610900565b865550610adb565b601f198416610a7f8761077e565b9650610a8a8661077e565b5f5b82811015610ab157848901548255600182019150600185019450602081019050610a8c565b86831015610ace5784890154610aca601f8916826108e4565b8355505b6001600288020188555050505b5050505050505b56fea26469706673582212203588cc1ce94f7e8560966149982fa0021e8071cca7c7039c5ffd4d54032a08ba64736f6c63430008160033",
					"opcodes": "PUSH1 0x80 PUSH1 0x40 MSTORE CALLVALUE DUP1 ISZERO PUSH2 0xF JUMPI PUSH0 DUP1 REVERT JUMPDEST POP CALLER PUSH1 0x4 PUSH0 PUSH2 0x100 EXP DUP2 SLOAD DUP2 PUSH20 0xFFFFFFFFFFFFFFFFFFFFFFFFFFFFFFFFFFFFFFFF MUL NOT AND SWAP1 DUP4 PUSH20 0xFFFFFFFFFFFFFFFFFFFFFFFFFFFFFFFFFFFFFFFF AND MUL OR SWAP1 SSTORE POP PUSH2 0xB1A DUP1 PUSH2 0x5D PUSH0 CODECOPY PUSH0 RETURN INVALID PUSH1 0x80 PUSH1 0x40 MSTORE CALLVALUE DUP1 ISZERO PUSH2 0xF JUMPI PUSH0 DUP1 REVERT JUMPDEST POP PUSH1 0x4 CALLDATASIZE LT PUSH2 0x34 JUMPI PUSH0 CALLDATALOAD PUSH1 0xE0 SHR DUP1 PUSH4 0x1AE73FE1 EQ PUSH2 0x38 JUMPI DUP1 PUSH4 0xC1A4CFB6 EQ PUSH2 0x54 JUMPI JUMPDEST PUSH0 DUP1 REVERT JUMPDEST PUSH2 0x52 PUSH1 0x4 DUP1 CALLDATASIZE SUB DUP2 ADD SWAP1 PUSH2 0x4D SWAP2 SWAP1 PUSH2 0x512 JUMP JUMPDEST PUSH2 0x86 JUMP JUMPDEST STOP JUMPDEST PUSH2 0x6E PUSH1 0x4 DUP1 CALLDATASIZE SUB DUP2 ADD SWAP1 PUSH2 0x69 SWAP2 SWAP1 PUSH2 0x5CA JUMP JUMPDEST PUSH2 0x1A4 JUMP JUMPDEST PUSH1 0x40 MLOAD PUSH2 0x7D SWAP4 SWAP3 SWAP2 SWAP1 PUSH2 0x66F JUMP JUMPDEST PUSH1 0x40 MLOAD DUP1 SWAP2 SUB SWAP1 RETURN JUMPDEST PUSH1 0x4 PUSH0 SWAP1 SLOAD SWAP1 PUSH2 0x100 EXP SWAP1 DIV PUSH20 0xFFFFFFFFFFFFFFFFFFFFFFFFFFFFFFFFFFFFFFFF AND PUSH20 0xFFFFFFFFFFFFFFFFFFFFFFFFFFFFFFFFFFFFFFFF AND CALLER PUSH20 0xFFFFFFFFFFFFFFFFFFFFFFFFFFFFFFFFFFFFFFFF AND EQ PUSH2 0x115 JUMPI PUSH1 0x40 MLOAD PUSH32 0x8C379A000000000000000000000000000000000000000000000000000000000 DUP2 MSTORE PUSH1 0x4 ADD PUSH2 0x10C SWAP1 PUSH2 0x703 JUMP JUMPDEST PUSH1 0x40 MLOAD DUP1 SWAP2 SUB SWAP1 REVERT JUMPDEST DUP3 PUSH1 0x1 PUSH0 ADD SWAP1 DUP2 PUSH2 0x126 SWAP2 SWAP1 PUSH2 0x91B JUMP JUMPDEST POP DUP2 PUSH1 0x1 DUP1 ADD SWAP1 DUP2 PUSH2 0x138 SWAP2 SWAP1 PUSH2 0x91B JUMP JUMPDEST POP DUP1 PUSH1 0x1 PUSH1 0x2 ADD SWAP1 DUP2 PUSH2 0x14B SWAP2 SWAP1 PUSH2 0x91B JUMP JUMPDEST POP PUSH1 0x1 PUSH0 DUP1 DUP7 DUP2 MSTORE PUSH1 0x20 ADD SWAP1 DUP2 MSTORE PUSH1 0x20 ADD PUSH0 KECCAK256 PUSH0 DUP3 ADD DUP2 PUSH0 ADD SWAP1 DUP2 PUSH2 0x170 SWAP2 SWAP1 PUSH2 0x9FF JUMP JUMPDEST POP PUSH1 0x1 DUP3 ADD DUP2 PUSH1 0x1 ADD SWAP1 DUP2 PUSH2 0x185 SWAP2 SWAP1 PUSH2 0x9FF JUMP JUMPDEST POP PUSH1 0x2 DUP3 ADD DUP2 PUSH1 0x2 ADD SWAP1 DUP2 PUSH2 0x19A SWAP2 SWAP1 PUSH2 0x9FF JUMP JUMPDEST POP SWAP1 POP POP POP POP POP POP JUMP JUMPDEST PUSH1 0x60 DUP1 PUSH1 0x60 PUSH0 DUP1 PUSH0 DUP7 DUP2 MSTORE PUSH1 0x20 ADD SWAP1 DUP2 MSTORE PUSH1 0x20 ADD PUSH0 KECCAK256 PUSH1 0x40 MLOAD DUP1 PUSH1 0x60 ADD PUSH1 0x40 MSTORE SWAP1 DUP2 PUSH0 DUP3 ADD DUP1 SLOAD PUSH2 0x1D4 SWAP1 PUSH2 0x74E JUMP JUMPDEST DUP1 PUSH1 0x1F ADD PUSH1 0x20 DUP1 SWAP2 DIV MUL PUSH1 0x20 ADD PUSH1 0x40 MLOAD SWAP1 DUP2 ADD PUSH1 0x40 MSTORE DUP1 SWAP3 SWAP2 SWAP1 DUP2 DUP2 MSTORE PUSH1 0x20 ADD DUP3 DUP1 SLOAD PUSH2 0x200 SWAP1 PUSH2 0x74E JUMP JUMPDEST DUP1 ISZERO PUSH2 0x24B JUMPI DUP1 PUSH1 0x1F LT PUSH2 0x222 JUMPI PUSH2 0x100 DUP1 DUP4 SLOAD DIV MUL DUP4 MSTORE SWAP2 PUSH1 0x20 ADD SWAP2 PUSH2 0x24B JUMP JUMPDEST DUP3 ADD SWAP2 SWAP1 PUSH0 MSTORE PUSH1 0x20 PUSH0 KECCAK256 SWAP1 JUMPDEST DUP2 SLOAD DUP2 MSTORE SWAP1 PUSH1 0x1 ADD SWAP1 PUSH1 0x20 ADD DUP1 DUP4 GT PUSH2 0x22E JUMPI DUP3 SWAP1 SUB PUSH1 0x1F AND DUP3 ADD SWAP2 JUMPDEST POP POP POP POP POP DUP2 MSTORE PUSH1 0x20 ADD PUSH1 0x1 DUP3 ADD DUP1 SLOAD PUSH2 0x264 SWAP1 PUSH2 0x74E JUMP JUMPDEST DUP1 PUSH1 0x1F ADD PUSH1 0x20 DUP1 SWAP2 DIV MUL PUSH1 0x20 ADD PUSH1 0x40 MLOAD SWAP1 DUP2 ADD PUSH1 0x40 MSTORE DUP1 SWAP3 SWAP2 SWAP1 DUP2 DUP2 MSTORE PUSH1 0x20 ADD DUP3 DUP1 SLOAD PUSH2 0x290 SWAP1 PUSH2 0x74E JUMP JUMPDEST DUP1 ISZERO PUSH2 0x2DB JUMPI DUP1 PUSH1 0x1F LT PUSH2 0x2B2 JUMPI PUSH2 0x100 DUP1 DUP4 SLOAD DIV MUL DUP4 MSTORE SWAP2 PUSH1 0x20 ADD SWAP2 PUSH2 0x2DB JUMP JUMPDEST DUP3 ADD SWAP2 SWAP1 PUSH0 MSTORE PUSH1 0x20 PUSH0 KECCAK256 SWAP1 JUMPDEST DUP2 SLOAD DUP2 MSTORE SWAP1 PUSH1 0x1 ADD SWAP1 PUSH1 0x20 ADD DUP1 DUP4 GT PUSH2 0x2BE JUMPI DUP3 SWAP1 SUB PUSH1 0x1F AND DUP3 ADD SWAP2 JUMPDEST POP POP POP POP POP DUP2 MSTORE PUSH1 0x20 ADD PUSH1 0x2 DUP3 ADD DUP1 SLOAD PUSH2 0x2F4 SWAP1 PUSH2 0x74E JUMP JUMPDEST DUP1 PUSH1 0x1F ADD PUSH1 0x20 DUP1 SWAP2 DIV MUL PUSH1 0x20 ADD PUSH1 0x40 MLOAD SWAP1 DUP2 ADD PUSH1 0x40 MSTORE DUP1 SWAP3 SWAP2 SWAP1 DUP2 DUP2 MSTORE PUSH1 0x20 ADD DUP3 DUP1 SLOAD PUSH2 0x320 SWAP1 PUSH2 0x74E JUMP JUMPDEST DUP1 ISZERO PUSH2 0x36B JUMPI DUP1 PUSH1 0x1F LT PUSH2 0x342 JUMPI PUSH2 0x100 DUP1 DUP4 SLOAD DIV MUL DUP4 MSTORE SWAP2 PUSH1 0x20 ADD SWAP2 PUSH2 0x36B JUMP JUMPDEST DUP3 ADD SWAP2 SWAP1 PUSH0 MSTORE PUSH1 0x20 PUSH0 KECCAK256 SWAP1 JUMPDEST DUP2 SLOAD DUP2 MSTORE SWAP1 PUSH1 0x1 ADD SWAP1 PUSH1 0x20 ADD DUP1 DUP4 GT PUSH2 0x34E JUMPI DUP3 SWAP1 SUB PUSH1 0x1F AND DUP3 ADD SWAP2 JUMPDEST POP POP POP POP POP DUP2 MSTORE POP POP SWAP1 POP DUP1 PUSH0 ADD MLOAD DUP2 PUSH1 0x20 ADD MLOAD DUP3 PUSH1 0x40 ADD MLOAD SWAP4 POP SWAP4 POP SWAP4 POP POP SWAP2 SWAP4 SWAP1 SWAP3 POP JUMP JUMPDEST PUSH0 PUSH1 0x40 MLOAD SWAP1 POP SWAP1 JUMP JUMPDEST PUSH0 DUP1 REVERT JUMPDEST PUSH0 DUP1 REVERT JUMPDEST PUSH0 DUP2 SWAP1 POP SWAP2 SWAP1 POP JUMP JUMPDEST PUSH2 0x3B5 DUP2 PUSH2 0x3A3 JUMP JUMPDEST DUP2 EQ PUSH2 0x3BF JUMPI PUSH0 DUP1 REVERT JUMPDEST POP JUMP JUMPDEST PUSH0 DUP2 CALLDATALOAD SWAP1 POP PUSH2 0x3D0 DUP2 PUSH2 0x3AC JUMP JUMPDEST SWAP3 SWAP2 POP POP JUMP JUMPDEST PUSH0 DUP1 REVERT JUMPDEST PUSH0 DUP1 REVERT JUMPDEST PUSH0 PUSH1 0x1F NOT PUSH1 0x1F DUP4 ADD AND SWAP1 POP SWAP2 SWAP1 POP JUMP JUMPDEST PUSH32 0x4E487B7100000000000000000000000000000000000000000000000000000000 PUSH0 MSTORE PUSH1 0x41 PUSH1 0x4 MSTORE PUSH1 0x24 PUSH0 REVERT JUMPDEST PUSH2 0x424 DUP3 PUSH2 0x3DE JUMP JUMPDEST DUP2 ADD DUP2 DUP2 LT PUSH8 0xFFFFFFFFFFFFFFFF DUP3 GT OR ISZERO PUSH2 0x443 JUMPI PUSH2 0x442 PUSH2 0x3EE JUMP JUMPDEST JUMPDEST DUP1 PUSH1 0x40 MSTORE POP POP POP JUMP JUMPDEST PUSH0 PUSH2 0x455 PUSH2 0x392 JUMP JUMPDEST SWAP1 POP PUSH2 0x461 DUP3 DUP3 PUSH2 0x41B JUMP JUMPDEST SWAP2 SWAP1 POP JUMP JUMPDEST PUSH0 PUSH8 0xFFFFFFFFFFFFFFFF DUP3 GT ISZERO PUSH2 0x480 JUMPI PUSH2 0x47F PUSH2 0x3EE JUMP JUMPDEST JUMPDEST PUSH2 0x489 DUP3 PUSH2 0x3DE JUMP JUMPDEST SWAP1 POP PUSH1 0x20 DUP2 ADD SWAP1 POP SWAP2 SWAP1 POP JUMP JUMPDEST DUP3 DUP2 DUP4 CALLDATACOPY PUSH0 DUP4 DUP4 ADD MSTORE POP POP POP JUMP JUMPDEST PUSH0 PUSH2 0x4B6 PUSH2 0x4B1 DUP5 PUSH2 0x466 JUMP JUMPDEST PUSH2 0x44C JUMP JUMPDEST SWAP1 POP DUP3 DUP2 MSTORE PUSH1 0x20 DUP2 ADD DUP5 DUP5 DUP5 ADD GT ISZERO PUSH2 0x4D2 JUMPI PUSH2 0x4D1 PUSH2 0x3DA JUMP JUMPDEST JUMPDEST PUSH2 0x4DD DUP5 DUP3 DUP6 PUSH2 0x496 JUMP JUMPDEST POP SWAP4 SWAP3 POP POP POP JUMP JUMPDEST PUSH0 DUP3 PUSH1 0x1F DUP4 ADD SLT PUSH2 0x4F9 JUMPI PUSH2 0x4F8 PUSH2 0x3D6 JUMP JUMPDEST JUMPDEST DUP2 CALLDATALOAD PUSH2 0x509 DUP5 DUP3 PUSH1 0x20 DUP7 ADD PUSH2 0x4A4 JUMP JUMPDEST SWAP2 POP POP SWAP3 SWAP2 POP POP JUMP JUMPDEST PUSH0 DUP1 PUSH0 DUP1 PUSH1 0x80 DUP6 DUP8 SUB SLT ISZERO PUSH2 0x52A JUMPI PUSH2 0x529 PUSH2 0x39B JUMP JUMPDEST JUMPDEST PUSH0 PUSH2 0x537 DUP8 DUP3 DUP9 ADD PUSH2 0x3C2 JUMP JUMPDEST SWAP5 POP POP PUSH1 0x20 DUP6 ADD CALLDATALOAD PUSH8 0xFFFFFFFFFFFFFFFF DUP2 GT ISZERO PUSH2 0x558 JUMPI PUSH2 0x557 PUSH2 0x39F JUMP JUMPDEST JUMPDEST PUSH2 0x564 DUP8 DUP3 DUP9 ADD PUSH2 0x4E5 JUMP JUMPDEST SWAP4 POP POP PUSH1 0x40 DUP6 ADD CALLDATALOAD PUSH8 0xFFFFFFFFFFFFFFFF DUP2 GT ISZERO PUSH2 0x585 JUMPI PUSH2 0x584 PUSH2 0x39F JUMP JUMPDEST JUMPDEST PUSH2 0x591 DUP8 DUP3 DUP9 ADD PUSH2 0x4E5 JUMP JUMPDEST SWAP3 POP POP PUSH1 0x60 DUP6 ADD CALLDATALOAD PUSH8 0xFFFFFFFFFFFFFFFF DUP2 GT ISZERO PUSH2 0x5B2 JUMPI PUSH2 0x5B1 PUSH2 0x39F JUMP JUMPDEST JUMPDEST PUSH2 0x5BE DUP8 DUP3 DUP9 ADD PUSH2 0x4E5 JUMP JUMPDEST SWAP2 POP POP SWAP3 SWAP6 SWAP2 SWAP5 POP SWAP3 POP JUMP JUMPDEST PUSH0 PUSH1 0x20 DUP3 DUP5 SUB SLT ISZERO PUSH2 0x5DF JUMPI PUSH2 0x5DE PUSH2 0x39B JUMP JUMPDEST JUMPDEST PUSH0 PUSH2 0x5EC DUP5 DUP3 DUP6 ADD PUSH2 0x3C2 JUMP JUMPDEST SWAP2 POP POP SWAP3 SWAP2 POP POP JUMP JUMPDEST PUSH0 DUP2 MLOAD SWAP1 POP SWAP2 SWAP1 POP JUMP JUMPDEST PUSH0 DUP3 DUP3 MSTORE PUSH1 0x20 DUP3 ADD SWAP1 POP SWAP3 SWAP2 POP POP JUMP JUMPDEST PUSH0 JUMPDEST DUP4 DUP2 LT ISZERO PUSH2 0x62C JUMPI DUP1 DUP3 ADD MLOAD DUP2 DUP5 ADD MSTORE PUSH1 0x20 DUP2 ADD SWAP1 POP PUSH2 0x611 JUMP JUMPDEST PUSH0 DUP5 DUP5 ADD MSTORE POP POP POP POP JUMP JUMPDEST PUSH0 PUSH2 0x641 DUP3 PUSH2 0x5F5 JUMP JUMPDEST PUSH2 0x64B DUP2 DUP6 PUSH2 0x5FF JUMP JUMPDEST SWAP4 POP PUSH2 0x65B DUP2 DUP6 PUSH1 0x20 DUP7 ADD PUSH2 0x60F JUMP JUMPDEST PUSH2 0x664 DUP2 PUSH2 0x3DE JUMP JUMPDEST DUP5 ADD SWAP2 POP POP SWAP3 SWAP2 POP POP JUMP JUMPDEST PUSH0 PUSH1 0x60 DUP3 ADD SWAP1 POP DUP2 DUP2 SUB PUSH0 DUP4 ADD MSTORE PUSH2 0x687 DUP2 DUP7 PUSH2 0x637 JUMP JUMPDEST SWAP1 POP DUP2 DUP2 SUB PUSH1 0x20 DUP4 ADD MSTORE PUSH2 0x69B DUP2 DUP6 PUSH2 0x637 JUMP JUMPDEST SWAP1 POP DUP2 DUP2 SUB PUSH1 0x40 DUP4 ADD MSTORE PUSH2 0x6AF DUP2 DUP5 PUSH2 0x637 JUMP JUMPDEST SWAP1 POP SWAP5 SWAP4 POP POP POP POP JUMP JUMPDEST PUSH32 0x416363657373206973206E6F7420616C6C6F7765640000000000000000000000 PUSH0 DUP3 ADD MSTORE POP JUMP JUMPDEST PUSH0 PUSH2 0x6ED PUSH1 0x15 DUP4 PUSH2 0x5FF JUMP JUMPDEST SWAP2 POP PUSH2 0x6F8 DUP3 PUSH2 0x6B9 JUMP JUMPDEST PUSH1 0x20 DUP3 ADD SWAP1 POP SWAP2 SWAP1 POP JUMP JUMPDEST PUSH0 PUSH1 0x20 DUP3 ADD SWAP1 POP DUP2 DUP2 SUB PUSH0 DUP4 ADD MSTORE PUSH2 0x71A DUP2 PUSH2 0x6E1 JUMP JUMPDEST SWAP1 POP SWAP2 SWAP1 POP JUMP JUMPDEST PUSH32 0x4E487B7100000000000000000000000000000000000000000000000000000000 PUSH0 MSTORE PUSH1 0x22 PUSH1 0x4 MSTORE PUSH1 0x24 PUSH0 REVERT JUMPDEST PUSH0 PUSH1 0x2 DUP3 DIV SWAP1 POP PUSH1 0x1 DUP3 AND DUP1 PUSH2 0x765 JUMPI PUSH1 0x7F DUP3 AND SWAP2 POP JUMPDEST PUSH1 0x20 DUP3 LT DUP2 SUB PUSH2 0x778 JUMPI PUSH2 0x777 PUSH2 0x721 JUMP JUMPDEST JUMPDEST POP SWAP2 SWAP1 POP JUMP JUMPDEST PUSH0 DUP2 SWAP1 POP DUP2 PUSH0 MSTORE PUSH1 0x20 PUSH0 KECCAK256 SWAP1 POP SWAP2 SWAP1 POP JUMP JUMPDEST PUSH0 PUSH1 0x20 PUSH1 0x1F DUP4 ADD DIV SWAP1 POP SWAP2 SWAP1 POP JUMP JUMPDEST PUSH0 DUP3 DUP3 SHL SWAP1 POP SWAP3 SWAP2 POP POP JUMP JUMPDEST PUSH0 PUSH1 0x8 DUP4 MUL PUSH2 0x7DA PUSH32 0xFFFFFFFFFFFFFFFFFFFFFFFFFFFFFFFFFFFFFFFFFFFFFFFFFFFFFFFFFFFFFFFF DUP3 PUSH2 0x79F JUMP JUMPDEST PUSH2 0x7E4 DUP7 DUP4 PUSH2 0x79F JUMP JUMPDEST SWAP6 POP DUP1 NOT DUP5 AND SWAP4 POP DUP1 DUP7 AND DUP5 OR SWAP3 POP POP POP SWAP4 SWAP3 POP POP POP JUMP JUMPDEST PUSH0 DUP2 SWAP1 POP SWAP2 SWAP1 POP JUMP JUMPDEST PUSH0 PUSH2 0x81F PUSH2 0x81A PUSH2 0x815 DUP5 PUSH2 0x3A3 JUMP JUMPDEST PUSH2 0x7FC JUMP JUMPDEST PUSH2 0x3A3 JUMP JUMPDEST SWAP1 POP SWAP2 SWAP1 POP JUMP JUMPDEST PUSH0 DUP2 SWAP1 POP SWAP2 SWAP1 POP JUMP JUMPDEST PUSH2 0x838 DUP4 PUSH2 0x805 JUMP JUMPDEST PUSH2 0x84C PUSH2 0x844 DUP3 PUSH2 0x826 JUMP JUMPDEST DUP5 DUP5 SLOAD PUSH2 0x7AB JUMP JUMPDEST DUP3 SSTORE POP POP POP POP JUMP JUMPDEST PUSH0 SWAP1 JUMP JUMPDEST PUSH2 0x860 PUSH2 0x854 JUMP JUMPDEST PUSH2 0x86B DUP2 DUP5 DUP5 PUSH2 0x82F JUMP JUMPDEST POP POP POP JUMP JUMPDEST JUMPDEST DUP2 DUP2 LT ISZERO PUSH2 0x88E JUMPI PUSH2 0x883 PUSH0 DUP3 PUSH2 0x858 JUMP JUMPDEST PUSH1 0x1 DUP2 ADD SWAP1 POP PUSH2 0x871 JUMP JUMPDEST POP POP JUMP JUMPDEST PUSH1 0x1F DUP3 GT ISZERO PUSH2 0x8D3 JUMPI PUSH2 0x8A4 DUP2 PUSH2 0x77E JUMP JUMPDEST PUSH2 0x8AD DUP5 PUSH2 0x790 JUMP JUMPDEST DUP2 ADD PUSH1 0x20 DUP6 LT ISZERO PUSH2 0x8BC JUMPI DUP2 SWAP1 POP JUMPDEST PUSH2 0x8D0 PUSH2 0x8C8 DUP6 PUSH2 0x790 JUMP JUMPDEST DUP4 ADD DUP3 PUSH2 0x870 JUMP JUMPDEST POP POP JUMPDEST POP POP POP JUMP JUMPDEST PUSH0 DUP3 DUP3 SHR SWAP1 POP SWAP3 SWAP2 POP POP JUMP JUMPDEST PUSH0 PUSH2 0x8F3 PUSH0 NOT DUP5 PUSH1 0x8 MUL PUSH2 0x8D8 JUMP JUMPDEST NOT DUP1 DUP4 AND SWAP2 POP POP SWAP3 SWAP2 POP POP JUMP JUMPDEST PUSH0 PUSH2 0x90B DUP4 DUP4 PUSH2 0x8E4 JUMP JUMPDEST SWAP2 POP DUP3 PUSH1 0x2 MUL DUP3 OR SWAP1 POP SWAP3 SWAP2 POP POP JUMP JUMPDEST PUSH2 0x924 DUP3 PUSH2 0x5F5 JUMP JUMPDEST PUSH8 0xFFFFFFFFFFFFFFFF DUP2 GT ISZERO PUSH2 0x93D JUMPI PUSH2 0x93C PUSH2 0x3EE JUMP JUMPDEST JUMPDEST PUSH2 0x947 DUP3 SLOAD PUSH2 0x74E JUMP JUMPDEST PUSH2 0x952 DUP3 DUP3 DUP6 PUSH2 0x892 JUMP JUMPDEST PUSH0 PUSH1 0x20 SWAP1 POP PUSH1 0x1F DUP4 GT PUSH1 0x1 DUP2 EQ PUSH2 0x983 JUMPI PUSH0 DUP5 ISZERO PUSH2 0x971 JUMPI DUP3 DUP8 ADD MLOAD SWAP1 POP JUMPDEST PUSH2 0x97B DUP6 DUP3 PUSH2 0x900 JUMP JUMPDEST DUP7 SSTORE POP PUSH2 0x9E2 JUMP JUMPDEST PUSH1 0x1F NOT DUP5 AND PUSH2 0x991 DUP7 PUSH2 0x77E JUMP JUMPDEST PUSH0 JUMPDEST DUP3 DUP2 LT ISZERO PUSH2 0x9B8 JUMPI DUP5 DUP10 ADD MLOAD DUP3 SSTORE PUSH1 0x1 DUP3 ADD SWAP2 POP PUSH1 0x20 DUP6 ADD SWAP5 POP PUSH1 0x20 DUP2 ADD SWAP1 POP PUSH2 0x993 JUMP JUMPDEST DUP7 DUP4 LT ISZERO PUSH2 0x9D5 JUMPI DUP5 DUP10 ADD MLOAD PUSH2 0x9D1 PUSH1 0x1F DUP10 AND DUP3 PUSH2 0x8E4 JUMP JUMPDEST DUP4 SSTORE POP JUMPDEST PUSH1 0x1 PUSH1 0x2 DUP9 MUL ADD DUP9 SSTORE POP POP POP JUMPDEST POP POP POP POP POP POP JUMP JUMPDEST PUSH0 DUP2 SLOAD SWAP1 POP PUSH2 0x9F8 DUP2 PUSH2 0x74E JUMP JUMPDEST SWAP1 POP SWAP2 SWAP1 POP JUMP JUMPDEST DUP2 DUP2 SUB PUSH2 0xA0D JUMPI POP POP PUSH2 0xAE2 JUMP JUMPDEST PUSH2 0xA16 DUP3 PUSH2 0x9EA JUMP JUMPDEST PUSH8 0xFFFFFFFFFFFFFFFF DUP2 GT ISZERO PUSH2 0xA2F JUMPI PUSH2 0xA2E PUSH2 0x3EE JUMP JUMPDEST JUMPDEST PUSH2 0xA39 DUP3 SLOAD PUSH2 0x74E JUMP JUMPDEST PUSH2 0xA44 DUP3 DUP3 DUP6 PUSH2 0x892 JUMP JUMPDEST PUSH0 PUSH1 0x1F DUP4 GT PUSH1 0x1 DUP2 EQ PUSH2 0xA71 JUMPI PUSH0 DUP5 ISZERO PUSH2 0xA5F JUMPI DUP3 DUP8 ADD SLOAD SWAP1 POP JUMPDEST PUSH2 0xA69 DUP6 DUP3 PUSH2 0x900 JUMP JUMPDEST DUP7 SSTORE POP PUSH2 0xADB JUMP JUMPDEST PUSH1 0x1F NOT DUP5 AND PUSH2 0xA7F DUP8 PUSH2 0x77E JUMP JUMPDEST SWAP7 POP PUSH2 0xA8A DUP7 PUSH2 0x77E JUMP JUMPDEST PUSH0 JUMPDEST DUP3 DUP2 LT ISZERO PUSH2 0xAB1 JUMPI DUP5 DUP10 ADD SLOAD DUP3 SSTORE PUSH1 0x1 DUP3 ADD SWAP2 POP PUSH1 0x1 DUP6 ADD SWAP5 POP PUSH1 0x20 DUP2 ADD SWAP1 POP PUSH2 0xA8C JUMP JUMPDEST DUP7 DUP4 LT ISZERO PUSH2 0xACE JUMPI DUP5 DUP10 ADD SLOAD PUSH2 0xACA PUSH1 0x1F DUP10 AND DUP3 PUSH2 0x8E4 JUMP JUMPDEST DUP4 SSTORE POP JUMPDEST PUSH1 0x1 PUSH1 0x2 DUP9 MUL ADD DUP9 SSTORE POP POP POP JUMPDEST POP POP POP POP POP POP JUMPDEST JUMP INVALID LOG2 PUSH5 0x6970667358 0x22 SLT KECCAK256 CALLDATALOAD DUP9 0xCC SHR 0xE9 0x4F PUSH31 0x8560966149982FA0021E8071CCA7C7039C5FFD4D54032A08BA64736F6C6343 STOP ADDMOD AND STOP CALLER "
				},
				"gasEstimates": {
					"creation": {
						"codeDepositCost": "568400",
						"executionCost": "24863",
						"totalCost": "593263"
					},
					"external": {
						"retreive_hospital_details(uint256)": "infinite",
						"store_doctor_details(uint256,string,string,string)": "infinite"
					}
				},
				"methodIdentifiers": {
					"retreive_hospital_details(uint256)": "c1a4cfb6",
					"store_doctor_details(uint256,string,string,string)": "1ae73fe1"
				}
			},
			"storageLayout": {
				"storage": [
					{
						"astId": 7,
						"contract": "hospital.sol:Hospital",
						"label": "hospitallist",
						"offset": 0,
						"slot": "0",
						"type": "t_mapping(t_uint256,t_struct(hospital)14_storage)"
					},
					{
						"astId": 17,
						"contract": "hospital.sol:Hospital",
						"label": "h",
						"offset": 0,
						"slot": "1",
						"type": "t_struct(hospital)14_storage"
					},
					{
						"astId": 19,
						"contract": "hospital.sol:Hospital",
						"label": "owner",
						"offset": 0,
						"slot": "4",
						"type": "t_address"
					}
				],
				"types": {
					"t_address": {
						"encoding": "inplace",
						"label": "address",
						"numberOfBytes": "20"
					},
					"t_mapping(t_uint256,t_struct(hospital)14_storage)": {
						"encoding": "mapping",
						"key": "t_uint256",
						"label": "mapping(uint256 => struct Hospital.hospital)",
						"numberOfBytes": "32",
						"value": "t_struct(hospital)14_storage"
					},
					"t_string_storage": {
						"encoding": "bytes",
						"label": "string",
						"numberOfBytes": "32"
					},
					"t_struct(hospital)14_storage": {
						"encoding": "inplace",
						"label": "struct Hospital.hospital",
						"members": [
							{
								"astId": 9,
								"contract": "hospital.sol:Hospital",
								"label": "hospital_name",
								"offset": 0,
								"slot": "0",
								"type": "t_string_storage"
							},
							{
								"astId": 11,
								"contract": "hospital.sol:Hospital",
								"label": "hospital_address",
								"offset": 0,
								"slot": "1",
								"type": "t_string_storage"
							},
							{
								"astId": 13,
								"contract": "hospital.sol:Hospital",
								"label": "hospital_spec",
								"offset": 0,
								"slot": "2",
								"type": "t_string_storage"
							}
						],
						"numberOfBytes": "96"
					},
					"t_uint256": {
						"encoding": "inplace",
						"label": "uint256",
						"numberOfBytes": "32"
					}
				}
			},
			"userdoc": {
				"kind": "user",
				"methods": {},
				"version": 1
			}
		}
	}
}