{
	"data": {
		"bytecode": {
			"linkReferences": {},
			"object": "608060405234801561000f575f80fd5b5073d9145cce52d386f254917e481eb44e9943f3913860055f6101000a81548173ffffffffffffffffffffffffffffffffffffffff021916908373ffffffffffffffffffffffffffffffffffffffff160217905550610bb1806100715f395ff3fe608060405234801561000f575f80fd5b5060043610610034575f3560e01c806368bdecfe146100385780636cac3a181461006b575b5f80fd5b610052600480360381019061004d919061040a565b610087565b60405161006294939291906104d7565b60405180910390f35b61008560048036038101906100809190610685565b61028b565b005b6060805f60605f805f8761ffff1681526020019081526020015f206040518060800160405290815f820180546100bc9061077d565b80601f01602080910402602001604051908101604052809291908181526020018280546100e89061077d565b80156101335780601f1061010a57610100808354040283529160200191610133565b820191905f5260205f20905b81548152906001019060200180831161011657829003601f168201915b5050505050815260200160018201805461014c9061077d565b80601f01602080910402602001604051908101604052809291908181526020018280546101789061077d565b80156101c35780601f1061019a576101008083540402835291602001916101c3565b820191905f5260205f20905b8154815290600101906020018083116101a657829003601f168201915b50505050508152602001600282015481526020016003820180546101e69061077d565b80601f01602080910402602001604051908101604052809291908181526020018280546102129061077d565b801561025d5780601f106102345761010080835404028352916020019161025d565b820191905f5260205f20905b81548152906001019060200180831161024057829003601f168201915b5050505050815250509050805f01518160200151826040015183606001519450945094509450509193509193565b60055f9054906101000a900473ffffffffffffffffffffffffffffffffffffffff1673ffffffffffffffffffffffffffffffffffffffff163373ffffffffffffffffffffffffffffffffffffffff161461031a576040517f08c379a0000000000000000000000000000000000000000000000000000000008152600401610311906107f7565b60405180910390fd5b8360015f01908161032b91906109b2565b508260018001908161033d91906109b2565b5081600160020181905550806001600301908161035a91906109b2565b5060015f808761ffff1681526020019081526020015f205f8201815f0190816103839190610a96565b50600182018160010190816103989190610a96565b5060028201548160020155600382018160030190816103b79190610a96565b509050505050505050565b5f604051905090565b5f80fd5b5f80fd5b5f61ffff82169050919050565b6103e9816103d3565b81146103f3575f80fd5b50565b5f81359050610404816103e0565b92915050565b5f6020828403121561041f5761041e6103cb565b5b5f61042c848285016103f6565b91505092915050565b5f81519050919050565b5f82825260208201905092915050565b5f5b8381101561046c578082015181840152602081019050610451565b5f8484015250505050565b5f601f19601f8301169050919050565b5f61049182610435565b61049b818561043f565b93506104ab81856020860161044f565b6104b481610477565b840191505092915050565b5f819050919050565b6104d1816104bf565b82525050565b5f6080820190508181035f8301526104ef8187610487565b905081810360208301526105038186610487565b905061051260408301856104c8565b81810360608301526105248184610487565b905095945050505050565b5f80fd5b5f80fd5b7f4e487b71000000000000000000000000000000000000000000000000000000005f52604160045260245ffd5b61056d82610477565b810181811067ffffffffffffffff8211171561058c5761058b610537565b5b80604052505050565b5f61059e6103c2565b90506105aa8282610564565b919050565b5f67ffffffffffffffff8211156105c9576105c8610537565b5b6105d282610477565b9050602081019050919050565b828183375f83830152505050565b5f6105ff6105fa846105af565b610595565b90508281526020810184848401111561061b5761061a610533565b5b6106268482856105df565b509392505050565b5f82601f8301126106425761064161052f565b5b81356106528482602086016105ed565b91505092915050565b610664816104bf565b811461066e575f80fd5b50565b5f8135905061067f8161065b565b92915050565b5f805f805f60a0868803121561069e5761069d6103cb565b5b5f6106ab888289016103f6565b955050602086013567ffffffffffffffff8111156106cc576106cb6103cf565b5b6106d88882890161062e565b945050604086013567ffffffffffffffff8111156106f9576106f86103cf565b5b6107058882890161062e565b935050606061071688828901610671565b925050608086013567ffffffffffffffff811115610737576107366103cf565b5b6107438882890161062e565b9150509295509295909350565b7f4e487b71000000000000000000000000000000000000000000000000000000005f52602260045260245ffd5b5f600282049050600182168061079457607f821691505b6020821081036107a7576107a6610750565b5b50919050565b7f416363657373206973206e6f7420616c6c6f77656400000000000000000000005f82015250565b5f6107e160158361043f565b91506107ec826107ad565b602082019050919050565b5f6020820190508181035f83015261080e816107d5565b9050919050565b5f819050815f5260205f209050919050565b5f6020601f8301049050919050565b5f82821b905092915050565b5f600883026108717fffffffffffffffffffffffffffffffffffffffffffffffffffffffffffffffff82610836565b61087b8683610836565b95508019841693508086168417925050509392505050565b5f819050919050565b5f6108b66108b16108ac846104bf565b610893565b6104bf565b9050919050565b5f819050919050565b6108cf8361089c565b6108e36108db826108bd565b848454610842565b825550505050565b5f90565b6108f76108eb565b6109028184846108c6565b505050565b5b818110156109255761091a5f826108ef565b600181019050610908565b5050565b601f82111561096a5761093b81610815565b61094484610827565b81016020851015610953578190505b61096761095f85610827565b830182610907565b50505b505050565b5f82821c905092915050565b5f61098a5f198460080261096f565b1980831691505092915050565b5f6109a2838361097b565b9150826002028217905092915050565b6109bb82610435565b67ffffffffffffffff8111156109d4576109d3610537565b5b6109de825461077d565b6109e9828285610929565b5f60209050601f831160018114610a1a575f8415610a08578287015190505b610a128582610997565b865550610a79565b601f198416610a2886610815565b5f5b82811015610a4f57848901518255600182019150602085019450602081019050610a2a565b86831015610a6c5784890151610a68601f89168261097b565b8355505b6001600288020188555050505b505050505050565b5f81549050610a8f8161077d565b9050919050565b818103610aa4575050610b79565b610aad82610a81565b67ffffffffffffffff811115610ac657610ac5610537565b5b610ad0825461077d565b610adb828285610929565b5f601f831160018114610b08575f8415610af6578287015490505b610b008582610997565b865550610b72565b601f198416610b1687610815565b9650610b2186610815565b5f5b82811015610b4857848901548255600182019150600185019450602081019050610b23565b86831015610b655784890154610b61601f89168261097b565b8355505b6001600288020188555050505b5050505050505b56fea26469706673582212204980b944c61af6f2a32fd35ffe805f434ec6add9e34cb4436fda9dd02a058a3e64736f6c63430008160033",
			"opcodes": "PUSH1 0x80 PUSH1 0x40 MSTORE CALLVALUE DUP1 ISZERO PUSH2 0xF JUMPI PUSH0 DUP1 REVERT JUMPDEST POP PUSH20 0xD9145CCE52D386F254917E481EB44E9943F39138 PUSH1 0x5 PUSH0 PUSH2 0x100 EXP DUP2 SLOAD DUP2 PUSH20 0xFFFFFFFFFFFFFFFFFFFFFFFFFFFFFFFFFFFFFFFF MUL NOT AND SWAP1 DUP4 PUSH20 0xFFFFFFFFFFFFFFFFFFFFFFFFFFFFFFFFFFFFFFFF AND MUL OR SWAP1 SSTORE POP PUSH2 0xBB1 DUP1 PUSH2 0x71 PUSH0 CODECOPY PUSH0 RETURN INVALID PUSH1 0x80 PUSH1 0x40 MSTORE CALLVALUE DUP1 ISZERO PUSH2 0xF JUMPI PUSH0 DUP1 REVERT JUMPDEST POP PUSH1 0x4 CALLDATASIZE LT PUSH2 0x34 JUMPI PUSH0 CALLDATALOAD PUSH1 0xE0 SHR DUP1 PUSH4 0x68BDECFE EQ PUSH2 0x38 JUMPI DUP1 PUSH4 0x6CAC3A18 EQ PUSH2 0x6B JUMPI JUMPDEST PUSH0 DUP1 REVERT JUMPDEST PUSH2 0x52 PUSH1 0x4 DUP1 CALLDATASIZE SUB DUP2 ADD SWAP1 PUSH2 0x4D SWAP2 SWAP1 PUSH2 0x40A JUMP JUMPDEST PUSH2 0x87 JUMP JUMPDEST PUSH1 0x40 MLOAD PUSH2 0x62 SWAP5 SWAP4 SWAP3 SWAP2 SWAP1 PUSH2 0x4D7 JUMP JUMPDEST PUSH1 0x40 MLOAD DUP1 SWAP2 SUB SWAP1 RETURN JUMPDEST PUSH2 0x85 PUSH1 0x4 DUP1 CALLDATASIZE SUB DUP2 ADD SWAP1 PUSH2 0x80 SWAP2 SWAP1 PUSH2 0x685 JUMP JUMPDEST PUSH2 0x28B JUMP JUMPDEST STOP JUMPDEST PUSH1 0x60 DUP1 PUSH0 PUSH1 0x60 PUSH0 DUP1 PUSH0 DUP8 PUSH2 0xFFFF AND DUP2 MSTORE PUSH1 0x20 ADD SWAP1 DUP2 MSTORE PUSH1 0x20 ADD PUSH0 KECCAK256 PUSH1 0x40 MLOAD DUP1 PUSH1 0x80 ADD PUSH1 0x40 MSTORE SWAP1 DUP2 PUSH0 DUP3 ADD DUP1 SLOAD PUSH2 0xBC SWAP1 PUSH2 0x77D JUMP JUMPDEST DUP1 PUSH1 0x1F ADD PUSH1 0x20 DUP1 SWAP2 DIV MUL PUSH1 0x20 ADD PUSH1 0x40 MLOAD SWAP1 DUP2 ADD PUSH1 0x40 MSTORE DUP1 SWAP3 SWAP2 SWAP1 DUP2 DUP2 MSTORE PUSH1 0x20 ADD DUP3 DUP1 SLOAD PUSH2 0xE8 SWAP1 PUSH2 0x77D JUMP JUMPDEST DUP1 ISZERO PUSH2 0x133 JUMPI DUP1 PUSH1 0x1F LT PUSH2 0x10A JUMPI PUSH2 0x100 DUP1 DUP4 SLOAD DIV MUL DUP4 MSTORE SWAP2 PUSH1 0x20 ADD SWAP2 PUSH2 0x133 JUMP JUMPDEST DUP3 ADD SWAP2 SWAP1 PUSH0 MSTORE PUSH1 0x20 PUSH0 KECCAK256 SWAP1 JUMPDEST DUP2 SLOAD DUP2 MSTORE SWAP1 PUSH1 0x1 ADD SWAP1 PUSH1 0x20 ADD DUP1 DUP4 GT PUSH2 0x116 JUMPI DUP3 SWAP1 SUB PUSH1 0x1F AND DUP3 ADD SWAP2 JUMPDEST POP POP POP POP POP DUP2 MSTORE PUSH1 0x20 ADD PUSH1 0x1 DUP3 ADD DUP1 SLOAD PUSH2 0x14C SWAP1 PUSH2 0x77D JUMP JUMPDEST DUP1 PUSH1 0x1F ADD PUSH1 0x20 DUP1 SWAP2 DIV MUL PUSH1 0x20 ADD PUSH1 0x40 MLOAD SWAP1 DUP2 ADD PUSH1 0x40 MSTORE DUP1 SWAP3 SWAP2 SWAP1 DUP2 DUP2 MSTORE PUSH1 0x20 ADD DUP3 DUP1 SLOAD PUSH2 0x178 SWAP1 PUSH2 0x77D JUMP JUMPDEST DUP1 ISZERO PUSH2 0x1C3 JUMPI DUP1 PUSH1 0x1F LT PUSH2 0x19A JUMPI PUSH2 0x100 DUP1 DUP4 SLOAD DIV MUL DUP4 MSTORE SWAP2 PUSH1 0x20 ADD SWAP2 PUSH2 0x1C3 JUMP JUMPDEST DUP3 ADD SWAP2 SWAP1 PUSH0 MSTORE PUSH1 0x20 PUSH0 KECCAK256 SWAP1 JUMPDEST DUP2 SLOAD DUP2 MSTORE SWAP1 PUSH1 0x1 ADD SWAP1 PUSH1 0x20 ADD DUP1 DUP4 GT PUSH2 0x1A6 JUMPI DUP3 SWAP1 SUB PUSH1 0x1F AND DUP3 ADD SWAP2 JUMPDEST POP POP POP POP POP DUP2 MSTORE PUSH1 0x20 ADD PUSH1 0x2 DUP3 ADD SLOAD DUP2 MSTORE PUSH1 0x20 ADD PUSH1 0x3 DUP3 ADD DUP1 SLOAD PUSH2 0x1E6 SWAP1 PUSH2 0x77D JUMP JUMPDEST DUP1 PUSH1 0x1F ADD PUSH1 0x20 DUP1 SWAP2 DIV MUL PUSH1 0x20 ADD PUSH1 0x40 MLOAD SWAP1 DUP2 ADD PUSH1 0x40 MSTORE DUP1 SWAP3 SWAP2 SWAP1 DUP2 DUP2 MSTORE PUSH1 0x20 ADD DUP3 DUP1 SLOAD PUSH2 0x212 SWAP1 PUSH2 0x77D JUMP JUMPDEST DUP1 ISZERO PUSH2 0x25D JUMPI DUP1 PUSH1 0x1F LT PUSH2 0x234 JUMPI PUSH2 0x100 DUP1 DUP4 SLOAD DIV MUL DUP4 MSTORE SWAP2 PUSH1 0x20 ADD SWAP2 PUSH2 0x25D JUMP JUMPDEST DUP3 ADD SWAP2 SWAP1 PUSH0 MSTORE PUSH1 0x20 PUSH0 KECCAK256 SWAP1 JUMPDEST DUP2 SLOAD DUP2 MSTORE SWAP1 PUSH1 0x1 ADD SWAP1 PUSH1 0x20 ADD DUP1 DUP4 GT PUSH2 0x240 JUMPI DUP3 SWAP1 SUB PUSH1 0x1F AND DUP3 ADD SWAP2 JUMPDEST POP POP POP POP POP DUP2 MSTORE POP POP SWAP1 POP DUP1 PUSH0 ADD MLOAD DUP2 PUSH1 0x20 ADD MLOAD DUP3 PUSH1 0x40 ADD MLOAD DUP4 PUSH1 0x60 ADD MLOAD SWAP5 POP SWAP5 POP SWAP5 POP SWAP5 POP POP SWAP2 SWAP4 POP SWAP2 SWAP4 JUMP JUMPDEST PUSH1 0x5 PUSH0 SWAP1 SLOAD SWAP1 PUSH2 0x100 EXP SWAP1 DIV PUSH20 0xFFFFFFFFFFFFFFFFFFFFFFFFFFFFFFFFFFFFFFFF AND PUSH20 0xFFFFFFFFFFFFFFFFFFFFFFFFFFFFFFFFFFFFFFFF AND CALLER PUSH20 0xFFFFFFFFFFFFFFFFFFFFFFFFFFFFFFFFFFFFFFFF AND EQ PUSH2 0x31A JUMPI PUSH1 0x40 MLOAD PUSH32 0x8C379A000000000000000000000000000000000000000000000000000000000 DUP2 MSTORE PUSH1 0x4 ADD PUSH2 0x311 SWAP1 PUSH2 0x7F7 JUMP JUMPDEST PUSH1 0x40 MLOAD DUP1 SWAP2 SUB SWAP1 REVERT JUMPDEST DUP4 PUSH1 0x1 PUSH0 ADD SWAP1 DUP2 PUSH2 0x32B SWAP2 SWAP1 PUSH2 0x9B2 JUMP JUMPDEST POP DUP3 PUSH1 0x1 DUP1 ADD SWAP1 DUP2 PUSH2 0x33D SWAP2 SWAP1 PUSH2 0x9B2 JUMP JUMPDEST POP DUP2 PUSH1 0x1 PUSH1 0x2 ADD DUP2 SWAP1 SSTORE POP DUP1 PUSH1 0x1 PUSH1 0x3 ADD SWAP1 DUP2 PUSH2 0x35A SWAP2 SWAP1 PUSH2 0x9B2 JUMP JUMPDEST POP PUSH1 0x1 PUSH0 DUP1 DUP8 PUSH2 0xFFFF AND DUP2 MSTORE PUSH1 0x20 ADD SWAP1 DUP2 MSTORE PUSH1 0x20 ADD PUSH0 KECCAK256 PUSH0 DUP3 ADD DUP2 PUSH0 ADD SWAP1 DUP2 PUSH2 0x383 SWAP2 SWAP1 PUSH2 0xA96 JUMP JUMPDEST POP PUSH1 0x1 DUP3 ADD DUP2 PUSH1 0x1 ADD SWAP1 DUP2 PUSH2 0x398 SWAP2 SWAP1 PUSH2 0xA96 JUMP JUMPDEST POP PUSH1 0x2 DUP3 ADD SLOAD DUP2 PUSH1 0x2 ADD SSTORE PUSH1 0x3 DUP3 ADD DUP2 PUSH1 0x3 ADD SWAP1 DUP2 PUSH2 0x3B7 SWAP2 SWAP1 PUSH2 0xA96 JUMP JUMPDEST POP SWAP1 POP POP POP POP POP POP POP JUMP JUMPDEST PUSH0 PUSH1 0x40 MLOAD SWAP1 POP SWAP1 JUMP JUMPDEST PUSH0 DUP1 REVERT JUMPDEST PUSH0 DUP1 REVERT JUMPDEST PUSH0 PUSH2 0xFFFF DUP3 AND SWAP1 POP SWAP2 SWAP1 POP JUMP JUMPDEST PUSH2 0x3E9 DUP2 PUSH2 0x3D3 JUMP JUMPDEST DUP2 EQ PUSH2 0x3F3 JUMPI PUSH0 DUP1 REVERT JUMPDEST POP JUMP JUMPDEST PUSH0 DUP2 CALLDATALOAD SWAP1 POP PUSH2 0x404 DUP2 PUSH2 0x3E0 JUMP JUMPDEST SWAP3 SWAP2 POP POP JUMP JUMPDEST PUSH0 PUSH1 0x20 DUP3 DUP5 SUB SLT ISZERO PUSH2 0x41F JUMPI PUSH2 0x41E PUSH2 0x3CB JUMP JUMPDEST JUMPDEST PUSH0 PUSH2 0x42C DUP5 DUP3 DUP6 ADD PUSH2 0x3F6 JUMP JUMPDEST SWAP2 POP POP SWAP3 SWAP2 POP POP JUMP JUMPDEST PUSH0 DUP2 MLOAD SWAP1 POP SWAP2 SWAP1 POP JUMP JUMPDEST PUSH0 DUP3 DUP3 MSTORE PUSH1 0x20 DUP3 ADD SWAP1 POP SWAP3 SWAP2 POP POP JUMP JUMPDEST PUSH0 JUMPDEST DUP4 DUP2 LT ISZERO PUSH2 0x46C JUMPI DUP1 DUP3 ADD MLOAD DUP2 DUP5 ADD MSTORE PUSH1 0x20 DUP2 ADD SWAP1 POP PUSH2 0x451 JUMP JUMPDEST PUSH0 DUP5 DUP5 ADD MSTORE POP POP POP POP JUMP JUMPDEST PUSH0 PUSH1 0x1F NOT PUSH1 0x1F DUP4 ADD AND SWAP1 POP SWAP2 SWAP1 POP JUMP JUMPDEST PUSH0 PUSH2 0x491 DUP3 PUSH2 0x435 JUMP JUMPDEST PUSH2 0x49B DUP2 DUP6 PUSH2 0x43F JUMP JUMPDEST SWAP4 POP PUSH2 0x4AB DUP2 DUP6 PUSH1 0x20 DUP7 ADD PUSH2 0x44F JUMP JUMPDEST PUSH2 0x4B4 DUP2 PUSH2 0x477 JUMP JUMPDEST DUP5 ADD SWAP2 POP POP SWAP3 SWAP2 POP POP JUMP JUMPDEST PUSH0 DUP2 SWAP1 POP SWAP2 SWAP1 POP JUMP JUMPDEST PUSH2 0x4D1 DUP2 PUSH2 0x4BF JUMP JUMPDEST DUP3 MSTORE POP POP JUMP JUMPDEST PUSH0 PUSH1 0x80 DUP3 ADD SWAP1 POP DUP2 DUP2 SUB PUSH0 DUP4 ADD MSTORE PUSH2 0x4EF DUP2 DUP8 PUSH2 0x487 JUMP JUMPDEST SWAP1 POP DUP2 DUP2 SUB PUSH1 0x20 DUP4 ADD MSTORE PUSH2 0x503 DUP2 DUP7 PUSH2 0x487 JUMP JUMPDEST SWAP1 POP PUSH2 0x512 PUSH1 0x40 DUP4 ADD DUP6 PUSH2 0x4C8 JUMP JUMPDEST DUP2 DUP2 SUB PUSH1 0x60 DUP4 ADD MSTORE PUSH2 0x524 DUP2 DUP5 PUSH2 0x487 JUMP JUMPDEST SWAP1 POP SWAP6 SWAP5 POP POP POP POP POP JUMP JUMPDEST PUSH0 DUP1 REVERT JUMPDEST PUSH0 DUP1 REVERT JUMPDEST PUSH32 0x4E487B7100000000000000000000000000000000000000000000000000000000 PUSH0 MSTORE PUSH1 0x41 PUSH1 0x4 MSTORE PUSH1 0x24 PUSH0 REVERT JUMPDEST PUSH2 0x56D DUP3 PUSH2 0x477 JUMP JUMPDEST DUP2 ADD DUP2 DUP2 LT PUSH8 0xFFFFFFFFFFFFFFFF DUP3 GT OR ISZERO PUSH2 0x58C JUMPI PUSH2 0x58B PUSH2 0x537 JUMP JUMPDEST JUMPDEST DUP1 PUSH1 0x40 MSTORE POP POP POP JUMP JUMPDEST PUSH0 PUSH2 0x59E PUSH2 0x3C2 JUMP JUMPDEST SWAP1 POP PUSH2 0x5AA DUP3 DUP3 PUSH2 0x564 JUMP JUMPDEST SWAP2 SWAP1 POP JUMP JUMPDEST PUSH0 PUSH8 0xFFFFFFFFFFFFFFFF DUP3 GT ISZERO PUSH2 0x5C9 JUMPI PUSH2 0x5C8 PUSH2 0x537 JUMP JUMPDEST JUMPDEST PUSH2 0x5D2 DUP3 PUSH2 0x477 JUMP JUMPDEST SWAP1 POP PUSH1 0x20 DUP2 ADD SWAP1 POP SWAP2 SWAP1 POP JUMP JUMPDEST DUP3 DUP2 DUP4 CALLDATACOPY PUSH0 DUP4 DUP4 ADD MSTORE POP POP POP JUMP JUMPDEST PUSH0 PUSH2 0x5FF PUSH2 0x5FA DUP5 PUSH2 0x5AF JUMP JUMPDEST PUSH2 0x595 JUMP JUMPDEST SWAP1 POP DUP3 DUP2 MSTORE PUSH1 0x20 DUP2 ADD DUP5 DUP5 DUP5 ADD GT ISZERO PUSH2 0x61B JUMPI PUSH2 0x61A PUSH2 0x533 JUMP JUMPDEST JUMPDEST PUSH2 0x626 DUP5 DUP3 DUP6 PUSH2 0x5DF JUMP JUMPDEST POP SWAP4 SWAP3 POP POP POP JUMP JUMPDEST PUSH0 DUP3 PUSH1 0x1F DUP4 ADD SLT PUSH2 0x642 JUMPI PUSH2 0x641 PUSH2 0x52F JUMP JUMPDEST JUMPDEST DUP2 CALLDATALOAD PUSH2 0x652 DUP5 DUP3 PUSH1 0x20 DUP7 ADD PUSH2 0x5ED JUMP JUMPDEST SWAP2 POP POP SWAP3 SWAP2 POP POP JUMP JUMPDEST PUSH2 0x664 DUP2 PUSH2 0x4BF JUMP JUMPDEST DUP2 EQ PUSH2 0x66E JUMPI PUSH0 DUP1 REVERT JUMPDEST POP JUMP JUMPDEST PUSH0 DUP2 CALLDATALOAD SWAP1 POP PUSH2 0x67F DUP2 PUSH2 0x65B JUMP JUMPDEST SWAP3 SWAP2 POP POP JUMP JUMPDEST PUSH0 DUP1 PUSH0 DUP1 PUSH0 PUSH1 0xA0 DUP7 DUP9 SUB SLT ISZERO PUSH2 0x69E JUMPI PUSH2 0x69D PUSH2 0x3CB JUMP JUMPDEST JUMPDEST PUSH0 PUSH2 0x6AB DUP9 DUP3 DUP10 ADD PUSH2 0x3F6 JUMP JUMPDEST SWAP6 POP POP PUSH1 0x20 DUP7 ADD CALLDATALOAD PUSH8 0xFFFFFFFFFFFFFFFF DUP2 GT ISZERO PUSH2 0x6CC JUMPI PUSH2 0x6CB PUSH2 0x3CF JUMP JUMPDEST JUMPDEST PUSH2 0x6D8 DUP9 DUP3 DUP10 ADD PUSH2 0x62E JUMP JUMPDEST SWAP5 POP POP PUSH1 0x40 DUP7 ADD CALLDATALOAD PUSH8 0xFFFFFFFFFFFFFFFF DUP2 GT ISZERO PUSH2 0x6F9 JUMPI PUSH2 0x6F8 PUSH2 0x3CF JUMP JUMPDEST JUMPDEST PUSH2 0x705 DUP9 DUP3 DUP10 ADD PUSH2 0x62E JUMP JUMPDEST SWAP4 POP POP PUSH1 0x60 PUSH2 0x716 DUP9 DUP3 DUP10 ADD PUSH2 0x671 JUMP JUMPDEST SWAP3 POP POP PUSH1 0x80 DUP7 ADD CALLDATALOAD PUSH8 0xFFFFFFFFFFFFFFFF DUP2 GT ISZERO PUSH2 0x737 JUMPI PUSH2 0x736 PUSH2 0x3CF JUMP JUMPDEST JUMPDEST PUSH2 0x743 DUP9 DUP3 DUP10 ADD PUSH2 0x62E JUMP JUMPDEST SWAP2 POP POP SWAP3 SWAP6 POP SWAP3 SWAP6 SWAP1 SWAP4 POP JUMP JUMPDEST PUSH32 0x4E487B7100000000000000000000000000000000000000000000000000000000 PUSH0 MSTORE PUSH1 0x22 PUSH1 0x4 MSTORE PUSH1 0x24 PUSH0 REVERT JUMPDEST PUSH0 PUSH1 0x2 DUP3 DIV SWAP1 POP PUSH1 0x1 DUP3 AND DUP1 PUSH2 0x794 JUMPI PUSH1 0x7F DUP3 AND SWAP2 POP JUMPDEST PUSH1 0x20 DUP3 LT DUP2 SUB PUSH2 0x7A7 JUMPI PUSH2 0x7A6 PUSH2 0x750 JUMP JUMPDEST JUMPDEST POP SWAP2 SWAP1 POP JUMP JUMPDEST PUSH32 0x416363657373206973206E6F7420616C6C6F7765640000000000000000000000 PUSH0 DUP3 ADD MSTORE POP JUMP JUMPDEST PUSH0 PUSH2 0x7E1 PUSH1 0x15 DUP4 PUSH2 0x43F JUMP JUMPDEST SWAP2 POP PUSH2 0x7EC DUP3 PUSH2 0x7AD JUMP JUMPDEST PUSH1 0x20 DUP3 ADD SWAP1 POP SWAP2 SWAP1 POP JUMP JUMPDEST PUSH0 PUSH1 0x20 DUP3 ADD SWAP1 POP DUP2 DUP2 SUB PUSH0 DUP4 ADD MSTORE PUSH2 0x80E DUP2 PUSH2 0x7D5 JUMP JUMPDEST SWAP1 POP SWAP2 SWAP1 POP JUMP JUMPDEST PUSH0 DUP2 SWAP1 POP DUP2 PUSH0 MSTORE PUSH1 0x20 PUSH0 KECCAK256 SWAP1 POP SWAP2 SWAP1 POP JUMP JUMPDEST PUSH0 PUSH1 0x20 PUSH1 0x1F DUP4 ADD DIV SWAP1 POP SWAP2 SWAP1 POP JUMP JUMPDEST PUSH0 DUP3 DUP3 SHL SWAP1 POP SWAP3 SWAP2 POP POP JUMP JUMPDEST PUSH0 PUSH1 0x8 DUP4 MUL PUSH2 0x871 PUSH32 0xFFFFFFFFFFFFFFFFFFFFFFFFFFFFFFFFFFFFFFFFFFFFFFFFFFFFFFFFFFFFFFFF DUP3 PUSH2 0x836 JUMP JUMPDEST PUSH2 0x87B DUP7 DUP4 PUSH2 0x836 JUMP JUMPDEST SWAP6 POP DUP1 NOT DUP5 AND SWAP4 POP DUP1 DUP7 AND DUP5 OR SWAP3 POP POP POP SWAP4 SWAP3 POP POP POP JUMP JUMPDEST PUSH0 DUP2 SWAP1 POP SWAP2 SWAP1 POP JUMP JUMPDEST PUSH0 PUSH2 0x8B6 PUSH2 0x8B1 PUSH2 0x8AC DUP5 PUSH2 0x4BF JUMP JUMPDEST PUSH2 0x893 JUMP JUMPDEST PUSH2 0x4BF JUMP JUMPDEST SWAP1 POP SWAP2 SWAP1 POP JUMP JUMPDEST PUSH0 DUP2 SWAP1 POP SWAP2 SWAP1 POP JUMP JUMPDEST PUSH2 0x8CF DUP4 PUSH2 0x89C JUMP JUMPDEST PUSH2 0x8E3 PUSH2 0x8DB DUP3 PUSH2 0x8BD JUMP JUMPDEST DUP5 DUP5 SLOAD PUSH2 0x842 JUMP JUMPDEST DUP3 SSTORE POP POP POP POP JUMP JUMPDEST PUSH0 SWAP1 JUMP JUMPDEST PUSH2 0x8F7 PUSH2 0x8EB JUMP JUMPDEST PUSH2 0x902 DUP2 DUP5 DUP5 PUSH2 0x8C6 JUMP JUMPDEST POP POP POP JUMP JUMPDEST JUMPDEST DUP2 DUP2 LT ISZERO PUSH2 0x925 JUMPI PUSH2 0x91A PUSH0 DUP3 PUSH2 0x8EF JUMP JUMPDEST PUSH1 0x1 DUP2 ADD SWAP1 POP PUSH2 0x908 JUMP JUMPDEST POP POP JUMP JUMPDEST PUSH1 0x1F DUP3 GT ISZERO PUSH2 0x96A JUMPI PUSH2 0x93B DUP2 PUSH2 0x815 JUMP JUMPDEST PUSH2 0x944 DUP5 PUSH2 0x827 JUMP JUMPDEST DUP2 ADD PUSH1 0x20 DUP6 LT ISZERO PUSH2 0x953 JUMPI DUP2 SWAP1 POP JUMPDEST PUSH2 0x967 PUSH2 0x95F DUP6 PUSH2 0x827 JUMP JUMPDEST DUP4 ADD DUP3 PUSH2 0x907 JUMP JUMPDEST POP POP JUMPDEST POP POP POP JUMP JUMPDEST PUSH0 DUP3 DUP3 SHR SWAP1 POP SWAP3 SWAP2 POP POP JUMP JUMPDEST PUSH0 PUSH2 0x98A PUSH0 NOT DUP5 PUSH1 0x8 MUL PUSH2 0x96F JUMP JUMPDEST NOT DUP1 DUP4 AND SWAP2 POP POP SWAP3 SWAP2 POP POP JUMP JUMPDEST PUSH0 PUSH2 0x9A2 DUP4 DUP4 PUSH2 0x97B JUMP JUMPDEST SWAP2 POP DUP3 PUSH1 0x2 MUL DUP3 OR SWAP1 POP SWAP3 SWAP2 POP POP JUMP JUMPDEST PUSH2 0x9BB DUP3 PUSH2 0x435 JUMP JUMPDEST PUSH8 0xFFFFFFFFFFFFFFFF DUP2 GT ISZERO PUSH2 0x9D4 JUMPI PUSH2 0x9D3 PUSH2 0x537 JUMP JUMPDEST JUMPDEST PUSH2 0x9DE DUP3 SLOAD PUSH2 0x77D JUMP JUMPDEST PUSH2 0x9E9 DUP3 DUP3 DUP6 PUSH2 0x929 JUMP JUMPDEST PUSH0 PUSH1 0x20 SWAP1 POP PUSH1 0x1F DUP4 GT PUSH1 0x1 DUP2 EQ PUSH2 0xA1A JUMPI PUSH0 DUP5 ISZERO PUSH2 0xA08 JUMPI DUP3 DUP8 ADD MLOAD SWAP1 POP JUMPDEST PUSH2 0xA12 DUP6 DUP3 PUSH2 0x997 JUMP JUMPDEST DUP7 SSTORE POP PUSH2 0xA79 JUMP JUMPDEST PUSH1 0x1F NOT DUP5 AND PUSH2 0xA28 DUP7 PUSH2 0x815 JUMP JUMPDEST PUSH0 JUMPDEST DUP3 DUP2 LT ISZERO PUSH2 0xA4F JUMPI DUP5 DUP10 ADD MLOAD DUP3 SSTORE PUSH1 0x1 DUP3 ADD SWAP2 POP PUSH1 0x20 DUP6 ADD SWAP5 POP PUSH1 0x20 DUP2 ADD SWAP1 POP PUSH2 0xA2A JUMP JUMPDEST DUP7 DUP4 LT ISZERO PUSH2 0xA6C JUMPI DUP5 DUP10 ADD MLOAD PUSH2 0xA68 PUSH1 0x1F DUP10 AND DUP3 PUSH2 0x97B JUMP JUMPDEST DUP4 SSTORE POP JUMPDEST PUSH1 0x1 PUSH1 0x2 DUP9 MUL ADD DUP9 SSTORE POP POP POP JUMPDEST POP POP POP POP POP POP JUMP JUMPDEST PUSH0 DUP2 SLOAD SWAP1 POP PUSH2 0xA8F DUP2 PUSH2 0x77D JUMP JUMPDEST SWAP1 POP SWAP2 SWAP1 POP JUMP JUMPDEST DUP2 DUP2 SUB PUSH2 0xAA4 JUMPI POP POP PUSH2 0xB79 JUMP JUMPDEST PUSH2 0xAAD DUP3 PUSH2 0xA81 JUMP JUMPDEST PUSH8 0xFFFFFFFFFFFFFFFF DUP2 GT ISZERO PUSH2 0xAC6 JUMPI PUSH2 0xAC5 PUSH2 0x537 JUMP JUMPDEST JUMPDEST PUSH2 0xAD0 DUP3 SLOAD PUSH2 0x77D JUMP JUMPDEST PUSH2 0xADB DUP3 DUP3 DUP6 PUSH2 0x929 JUMP JUMPDEST PUSH0 PUSH1 0x1F DUP4 GT PUSH1 0x1 DUP2 EQ PUSH2 0xB08 JUMPI PUSH0 DUP5 ISZERO PUSH2 0xAF6 JUMPI DUP3 DUP8 ADD SLOAD SWAP1 POP JUMPDEST PUSH2 0xB00 DUP6 DUP3 PUSH2 0x997 JUMP JUMPDEST DUP7 SSTORE POP PUSH2 0xB72 JUMP JUMPDEST PUSH1 0x1F NOT DUP5 AND PUSH2 0xB16 DUP8 PUSH2 0x815 JUMP JUMPDEST SWAP7 POP PUSH2 0xB21 DUP7 PUSH2 0x815 JUMP JUMPDEST PUSH0 JUMPDEST DUP3 DUP2 LT ISZERO PUSH2 0xB48 JUMPI DUP5 DUP10 ADD SLOAD DUP3 SSTORE PUSH1 0x1 DUP3 ADD SWAP2 POP PUSH1 0x1 DUP6 ADD SWAP5 POP PUSH1 0x20 DUP2 ADD SWAP1 POP PUSH2 0xB23 JUMP JUMPDEST DUP7 DUP4 LT ISZERO PUSH2 0xB65 JUMPI DUP5 DUP10 ADD SLOAD PUSH2 0xB61 PUSH1 0x1F DUP10 AND DUP3 PUSH2 0x97B JUMP JUMPDEST DUP4 SSTORE POP JUMPDEST PUSH1 0x1 PUSH1 0x2 DUP9 MUL ADD DUP9 SSTORE POP POP POP JUMPDEST POP POP POP POP POP POP JUMPDEST JUMP INVALID LOG2 PUSH5 0x6970667358 0x22 SLT KECCAK256 0x49 DUP1 0xB9 PREVRANDAO 0xC6 BYTE 0xF6 CALLCODE LOG3 0x2F 0xD3 PUSH0 INVALID DUP1 PUSH0 NUMBER 0x4E 0xC6 0xAD 0xD9 0xE3 0x4C 0xB4 NUMBER PUSH16 0xDA9DD02A058A3E64736F6C6343000816 STOP CALLER "
		},
		"gasEstimates": {
			"creation": {
				"codeDepositCost": "598600",
				"executionCost": "24896",
				"totalCost": "623496"
			},
			"external": {
				"retreive_doctor_details(uint16)": "infinite",
				"store_doctor_details(uint16,string,string,uint256,string)": "infinite"
			}
		},
		"methodIdentifiers": {
			"retreive_doctor_details(uint16)": "68bdecfe",
			"store_doctor_details(uint16,string,string,uint256,string)": "6cac3a18"
		}
	},
	"abi": [
		{
			"inputs": [],
			"stateMutability": "nonpayable",
			"type": "constructor"
		},
		{
			"inputs": [
				{
					"internalType": "uint16",
					"name": "doctor_id",
					"type": "uint16"
				}
			],
			"name": "retreive_doctor_details",
			"outputs": [
				{
					"internalType": "string",
					"name": "",
					"type": "string"
				},
				{
					"internalType": "string",
					"name": "",
					"type": "string"
				},
				{
					"internalType": "uint256",
					"name": "",
					"type": "uint256"
				},
				{
					"internalType": "string",
					"name": "",
					"type": "string"
				}
			],
			"stateMutability": "view",
			"type": "function"
		},
		{
			"inputs": [
				{
					"internalType": "uint16",
					"name": "doctor_id",
					"type": "uint16"
				},
				{
					"internalType": "string",
					"name": "_doctor_name",
					"type": "string"
				},
				{
					"internalType": "string",
					"name": "_doctor_specialisation",
					"type": "string"
				},
				{
					"internalType": "uint256",
					"name": "_doctor_ph_no",
					"type": "uint256"
				},
				{
					"internalType": "string",
					"name": "_doctor_address",
					"type": "string"
				}
			],
			"name": "store_doctor_details",
			"outputs": [],
			"stateMutability": "nonpayable",
			"type": "function"
		}
	]
}